:020000022000DC
:1060000000F0032071630200596302005B63020029
:106010005D6302005F630200616302000000000034
:1060200000000000000000000000000063630200A8
:1060300065630200000000006763020069630200FC
:106040006B6302006B6302006B6302006B63020010
:106050006B6302006B630200DD7302006B6302007E
:106060006B6302006B6302004DB003006B630200C0
:106070006B6302006B6302006B6302006B630200E0
:106080006B63020039490400D1D502006B63020042
:106090009D4904006B630200E9E003006B630200AA
:1060A0006B6302006B6302006B6302006B630200B0
:1060B0006B6302006B630200000000000000000040
:1060C0006B6302006B6302006B6302006B63020090
:1060D0006B6302006B6302006B6302006B63020080
:1060E0006B6302006B6302006B6302000000000040
:1060F000000000006B630200000000006B63020000
:10610000000000000000000000000000000000008F
:10611000000000000000000000000000000000007F
:10612000000000000000000000000000000000006F
:10613000000000000000000000000000000000005F
:10614000000000000000000000000000000000004F
:10615000000000000000000000000000000000003F
:10616000000000000000000000000000000000002F
:10617000000000000000000000000000000000001F
:10618000000000000000000000000000000000000F
:1061900000000000000000000000000000000000FF
:1061A00000000000000000000000000000000000EF
:1061B00000000000000000000000000000000000DF
:1061C00000000000000000000000000000000000CF
:1061D00000000000000000000000000000000000BF
:1061E00000000000000000000000000000000000AF
:1061F000000000000000000000000000000000009F
:10620000354936480A1A02D0072291438D4634494F
:1062100034480A1A06D00722914381F309880222E2
:1062200082F3148830483149314A00F043F831484C
:106230003149324A00F03EF831483249324A00F0E2
:1062400039F832483249334A00F034F83248334999
:10625000334A00F02FF833483349344A00F02AF823
:1062600033483449344A00F025F834483449002290
:1062700000F02BF833483449002200F026F8334868
:106280003349091A082903DB002202600430016047
:106290001F482049884205D00268043003B4904763
:1062A00003BCF7E700208646EC4600200021294A7F
:1062B0009047FEE7884207D0521A05D00378013094
:1062C0000B700131013AF9D17047884202D0027057
:1062D0000130FAE77047000000F0032000E80320D7
:1062E00000F0032000F00320C09C0400A02D00203B
:1062F0003C330020A8630200A86302006C6F040016
:10630000C09C0400A02D0020A02D0020B870040027
:10631000B8700400B8700400B8700400B8700400CD
:10632000B8700400B8700400B8700400C09C040089
:106330005CA204003C3300203C3300203C330020AE
:10634000696B00206C6B00206C6B00206C6B002074
:106350006C6F0020AD6B0200FEE7FEE7FEE7FEE794
:10636000FEE7FEE7FEE7FEE7FEE7FEE7704700BF59
:106370000948804709484FF0070188438546084887
:1063800080470848016841F470010160BFF34F8FF6
:10639000BFF36F8FFFF734BF6D63020000F003207F
:0863A000E5E4030088ED00E0D4
:1063A8003FDF704741DF704700B587B0364B1B6849
:1063B80013F4804F03D0354B1B68032B22DC9DF868
:1063C8001430042262F3061303F0F303022262F38B
:1063D80001038DF8143042F21073049306AA642363
:1063E80042F80C3D4FF47A7307CA0BF08FFD07286B
:1063F8002FD0082811D048B340B3254A872118F078
:1064080065F923E0234BD3F80435234A0092692227
:106418002249042008F0F6F9D1E71B4B1B6813F456
:10642800804F0DD0194B1B68002B09DD194BD3F891
:1064380004351B4A009279221849012008F0E2F934
:10644800062232214FF4F03000F036FF07B05DF835
:1064580004FB0D4B1B6813F4804F0DD00B4B1B68CE
:10646800002B09DD0B4BD3F804350E4A009280222D
:106478000A49012008F0C6F9062232214FF4F0300B
:1064880000F01AFFE2E700BF8C32002088320020BB
:106498000073040000100140787304006F73040057
:1064A800AC730400D073040000B583B01D4B1B68A7
:1064B80013F4804F03D01C4B1B68032B20DC0BF01C
:1064C80029FED0B1082826D1164B1B6813F4804F3B
:1064D8000DD0154B1B68002B09DD144BD3F8043580
:1064E800134A009297221349012008F08BF90622DB
:1064F80032214FF4F03000F0DFFE03B05DF804FB0A
:106508000A4BD3F804350C4A00928E22094904201C
:1065180008F078F9D3E70028EFD0084A9E2118F050
:10652800D5F8EAE78C3200208832002000100140BC
:10653800C47404006F730400A074040000730400A2
:1065480000B583B00F4B1B6813F4804F03D00E4B7C
:106558001B68032B0ADC0322C8214FF4F03000F03B
:10656800ABFE0CF0CDFC03B05DF804FB074BD3F891
:106578000435074A009258220649042008F042F9D7
:10658800E9E700BF8C32002088320020001001406B
:10659800247404006F730400F0B58BB0032811D87D
:1065A800DFE800F002203476524B1B6813F4804F6A
:1065B80003D0514B1B68032B06DC0BF0A1FC70B910
:1065C800FFF7F2FE0BB0F0BD4C4BD3F804354C4A44
:1065D8000092AE224B49042008F014F9EDE7FFF7CA
:1065E80063FFEFE7434B1B6813F4804FEAD0424B3D
:1065F8001B68032BE6DD414BD3F80435424A009271
:10660800BE224049042008F0FDF8DBE7394B1B683F
:1066180013F4804F03D0384B1B68032B2DDC02F09A
:1066280009FA020FC0F30361C0F30354C0F3034532
:10663800C0F30336C0F30327C0F3031C00F00F00B8
:106648002C4B1B6813F4804FBCD02B4B1B68032BBF
:10665800B8DD2A4BD3F804350890CDF81CC006974E
:1066680005960495039402910192284A0092CF223C
:106678002449042008F0C6F8A4E7204BD3F80435D1
:10668800234A0092C4221F49042008F0BBF8C6E739
:10669800184B1B6813F4804F03D0174B1B68032B50
:1066A80016DC0CF0C7FBF0B1124B1B6813F4804FDB
:1066B80088D0114B1B68032B84DD104BD3F80435AD
:1066C800144A0092E2220F49042008F09BF879E767
:1066D8000A4BD3F80435104A0092D62209490420FF
:1066E80008F090F8DDE70EF063F80CF099FBFFF77F
:1066F80027FF67E78C320020883200200010014015
:10670800A87104006F730400C0710400F0710400E4
:10671800D87104009872040080720400303804288C
:1067280000D9704708B5FFF737FF08BD08B50378EB
:106738001C2B00D008BDFFF703FFFBE700B58BB0AB
:106748002022002101A820F0A8FB01238DF80430A5
:1067580007238DF8073006238DF80C300A4B059374
:106768000A4B09930A4901A80CF072FB28B9094899
:1067780005F008FD0BB05DF804FB074A40F28111F3
:1067880017F0A4FFF3E700BF35670200096A0200AB
:106798003C330020A02D00200073040000B583B016
:1067A800234A05214FF4103008F010F8214B1B68DC
:1067B80013F4804F03D0204B1B68032B19DC1EF009
:1067C800EDF810BB00F0BAFD1C4800F0D7FD10BB77
:1067D80000F0A0FF00F0BCFF00F0E8FFFFF7AEFFFD
:1067E8000120FFF7DDFDE0B90BF068FB03B05DF8B1
:1067F80004FB134BD3F80435124A00924FF4C672C7
:106808001149042007F0FEFFD9E7104A4FF4C77179
:1068180017F05CFFD6E70D4A4FF4C97117F056FF21
:10682800D6E70A4A40F29D1117F050FFDCE700BF97
:10683800A9E702008C32002088320020A1650200FE
:1068480000100140D07204006F730400007304004C
:1068580010B584B00378153B052B72D8DFE803F038
:106868000371624D7F9B041D5A4B1B6813F4804FC4
:1068780003D0594B1B68032B0EDC20460BF0A6FBFC
:106888000E2833D8DFE800F05D3232323232321669
:106898001632323232321600504BD3F80435828821
:1068A80001924F4A00924FF491724E49042007F02A
:1068B800A9FFE2E7474B1B6813F4804F0FD0464B04
:1068C8001B68002B0BDD454BD3F804350190464A75
:1068D800009240F22F124349012007F093FF06224D
:1068E80032214FF4F03000F0E7FC2AE048B33F4A89
:1068F80040F2371117F0EAFE23E0364B1B6813F419
:10690800804F1ED0344B1B68032B1ADD334BD3F852
:106918000435374A009240F23F123249042007F00A
:1069280071FF0EE02B4B1B6813F4804F03D02A4BEA
:106938001B68032B07DC062232214FF4F03000F0ED
:10694800BBFC04B010BD254BD3F80435294A00928E
:1069580040F243122349042007F054FFEBE71D4B94
:106968001B6813F4804F03D01B4B1B68032B04DCFC
:1069780001210E2000F084FCE3E7184BD3F804351E
:10698800028901921C4A009240F2511215490420D2
:1069980007F038FFECE70F4B1B6813F4804F03D068
:1069A8000D4B1B68032B04DC00210E2000F068FC53
:1069B800C7E70A4BD3F804350289817A029101921C
:1069C8000E4A00924FF4B0720649042007F01AFFED
:1069D800EAE700BF8C320020883200200010014016
:1069E800D07004006F730400F47004000073040096
:1069F80014710400347104005071040078710400AB
:106A080000B583B00C4B1B6813F4804F03D00B4BBD
:106A18001B68032B04DC01F01FF903B05DF804FBCD
:106A2800074BD3F80435074A00924FF4BA72064967
:106A3800042007F0E7FEEEE78C32002088320020C1
:106A480000100140047404006F73040030B587B06F
:106A58006421194800F0A2FB184B1B789BB102F087
:106A680021F800F0EDFC0CF03BFAF8B900214FF4E6
:106A7800F03000F016FC0222C8214FF4F03000F08C
:106A88001BFC07B030BD6C460D4D0FCD0FC495E80B
:106A9800030084E80300684600F01EFB0028DED0EF
:106AA800084A40F2B31117F011FED8E7054A4FF42F
:106AB800DC7117F00BFED9E7256702003C33002094
:106AC800B87004000073040010B5044600214FF4A8
:106AD800F03000F0E6FB4FF4FA7202FB04F2054BCB
:106AE80083FB0232121132214FF4C03000F0E4FB74
:106AF80010BD00BF1F85EB5108B500F011FC08BDA3
:106B080000B585B0214B1B6813F4804F03D0204B90
:106B18001B68032B1FDC00F01BFE00F047FE03A8D8
:106B280012F02CF9194B1B6813F4804F03D0184B43
:106B38001B68032B1BDC00F0F3FB00214FF4F03043
:106B480000F0AFFB0422C8214FF4F03000F0B4FB92
:106B580005B05DF804FB0F4BD3F804350E4A0092DC
:106B68004FF482720D49042007F04CFED3E7094B1D
:106B7800D3F80435BDF80C200192094A009240F27E
:106B88000F120649042007F03DFED4E78C3200209E
:106B98008832002000100140407404006F73040024
:106BA8005C74040008B5FFF7F9FDFFF74FFFF1EE3D
:106BB800103A23F09F03E1EE103AF1EE103A034B3E
:106BC8004022C3F88421FFF7EDFBF0E700E100E085
:106BD80030B583B0044615461C4B1B6813F4804F30
:106BE80003D01B4B1B68032B11DCA36B04F13C0186
:106BF8002046984794F83C302B7094F83D306B70E1
:106C0800236C0BB1626C6AB16B6003B030BD114B81
:106C1800D3F80435104A009296221049042007F050
:106C2800F1FDE2E71DF03CFFA16C1DF03FFF4FF4C2
:106C38007A7303FB00F0C00B236C834203D310B1BB
:106C4800181A6860E1E700236B60DEE78C320020E9
:106C5800883200200010014050750400437504007C
:106C680010B588B00446436CE3B9036C13B190F8CF
:106C78003D20BAB194F83D2084F83C208DF81820C6
:106C88008DF81920079306A920461DF02DFA94F8CF
:106C98004C303BB9636B94F83C102046984701236D
:106CA80084F84C300F4B1B6813F4804F03D00E4B05
:106CB8001B68042B01DC08B010BD0C4BD3F804355D
:106CC80094F83C2094F83D10206C0490606C03907C
:106CD80002910192064A009272220649052007F0A5
:106CE80091FDE8E78C320020883200200010014036
:106CF8009475040043750400F0B583B00446036B33
:106D080018681DF0B7FE636C8BBB236C6BB35E0C0D
:106D1800DD034FF47A72002315F5FA7046F100018D
:106D28001FF01AFFB0F1807F35D204283CD9236BBD
:106D38002246014618681DF07FFE05461DF0B0FE8C
:106D4800A06495B11C4B1B6813F4804F0DD01B4BEE
:106D58001B68002B09DD1A4BD3F80435194A009239
:106D680055221949012007F04DFD03B0F0BD226BF3
:106D780015685F0CDE034FF47A72002316F5FA707B
:106D880047F100011FF0E8FE2246014628461DF0A3
:106D980053FE0546D5E7236B22466FF07F411868FE
:106DA8001DF04AFE0546C9E7236B224605211868EF
:106DB8001DF042FE0546C1E78C32002088320020D3
:106DC800001001407475040043750400F0B583B0E9
:106DD800044617461E46089D1A4B1B6813F4804F3D
:106DE80003D0194B1B68032B1BDC002384F84C30A1
:106DF8003B7884F83D300EB373686364336823646A
:106E08002046FFF72DFF2046FFF776FF3DB194F8A7
:106E18003C302B7094F83D306B70236C6B6003B082
:106E2800F0BD0A4BD3F8043512780192084A009253
:106E3800B8220849042007F0E5FCD6E7002363647C
:106E48002364DDE78C3200208832002000100140E6
:106E58005C750400437504002DE930480446436C12
:106E6800ABB9056CBDB14FEA554C4FEAC53B4FF481
:106E78007A7200231BF5FA704CF100011FF06CFECA
:106E8800B0F1807F0CD3A5F2FF15256403E0002341
:106E98004364FFF7E5FE2046FFF72EFFBDE8308884
:106EA800002323642046FFF7DBFEF4E7A0B110B50A
:106EB80004460D4AC262426B8AB1826B8AB11DF0E8
:106EC800DDF8034608B1184610BD084A0021206BBA
:106ED8001DF09CFD0346F6E70E23184670470E2367
:106EE800F1E70E23EFE700BF6C750400616E020046
:106EF8002C4B1B78002B54D000B585B0012804D04A
:106F0800032847D005B05DF804FB04A9002341F825
:106F1800083D012016F090FF48BB02A816F0DEFFDE
:106F280040BB04A9012341F8043D0DF1060012F00D
:106F38009CFD10BBBDF8060012F012F90DF1050119
:106F480012F0B4FAE0B90DF0A5F99DF8051000208B
:106F58000DF070FCB8B905F0B1F8C0B9114B0022BA
:106F68001A70114B1B68002BCCD09847CAE717F052
:106F78009FFBD2E717F09CFBD3E717F099FBD9E703
:106F880017F096FBDFE7784600F0F0FCE3E717F030
:106F98008FFBE3E717F018F80028B3D017F088FB49
:106FA800B0E770473F3300204033002008B5064B58
:106FB80001221A70054805F0E5F805F0C5F800B992
:106FC80008BD17F075FBFBE73F330020AC2D002010
:106FD80008B503781C2B00D008BD074B1B78002B85
:106FE800FAD017F035F818B9044805F0CFF8F3E7E8
:106FF80017F05EFBF8E700BF3F330020AC2D002000
:1070080008B50849084817F0F3FF034608B11846C1
:1070180008BD0323002205490969054818F004F84A
:107028000346F4E758330020C436002040330020DC
:107038009035002008B50378023B082B3FD8DFE8DD
:1070480003F01C05113E3E2C3E3E36001E4B5B688D
:10705800002B34D0007A002831D01C4A012111704D
:1070680098472CE0184B9B684BB3184A127832B3F8
:10707800164A00211170984721E0154B1B784BB92F
:10708800114BDB681BB1114A002111709847FFF7BB
:10709800B7FF14E0FFF78AFF11E010220A4B596985
:1070A8000C4818F04BF850B117F002FB07E0816864
:1070B800C0680BF055FE18B9054B01221A7008BDBF
:1070C80017F0F6FAF8E700BF403300203D33002000
:1070D8003E3300209035002070B586B004461F4A24
:1070E80003AB07CA03C323F8022B120C1A701C4EF9
:1070F80035460FCC0FC594E8030085E80300736993
:1071080053B3184B009303AB174A1849184817F0A4
:107118002BFF034610B1184606B070BD154819F08C
:10712800E3FB0146124817F04BFF03460028F2D153
:10713800114819F09BFD03460028ECD10E4819F0C0
:10714800CBFD01460A4817F03BFF03460028E2D171
:10715800FFF756FF0346DEE70723DCE7D875040090
:10716800403300203D70020058330020C436002010
:1071780090350020783300204035002008B5064BB4
:107188001B683BB115F0F0F8002803DB024B1B68C5
:107198009847F7E708BD00BF0437002010B50C4634
:1071A800144B1860144A012114481DF02FFCA0B993
:1071B800610CE00341F26F7200238B4208BF8242E8
:1071C80010D24FF47A7200231FF0C6FC0146002249
:1071D8000B481DF031FC38B910BD0A4A4A2117F096
:1071E80075FAE5E70521F2E7064A4B2117F06EFA32
:1071F800F2E700BF0437002085710200E47504003F
:1072080008370020E875040008B5134B1B6873B1F4
:107218004FF0A042D2F80435104909684B40C2F833
:1072280004350D4A1368013B136023B108BD0020E3
:1072380017F03EFAECE70A481DF01CFC4FF0A0429C
:10724800D2F804350549096823EA010305490968A4
:107258000B43C2F80435E9E7283700202C37002013
:1072680030370020583700204FF0A043D3F80425CA
:10727800012303FA00F002420CBF184600207047B1
:1072880039B9012303FA00F04FF0A043C3F8080509
:107298007047012303FA00F04FF0A043C3F80C0530
:1072A800704721B94FF0A043C3F8080570474FF065
:1072B800A043C3F80C05704712B11346132900D830
:1072C800704770B5124A10605B00013B114A1360A9
:1072D8004FF0A043D3F8043518400F4B1860002630
:1072E8004D0CCC034FF47A72002314F5FA7045F173
:1072F80000011FF031FC3246014608481DF09CFB96
:1073080028B9034B1A684FF0A043C3F80C2570BD89
:107318002C3700202837002058370020303700202D
:1073280008B504481DF0A6FB0021034B1868FFF7B9
:10733800B8FF08BD303700202C37002008B50D23D2
:107348000BE04FF0A04103F5E072032041F8220062
:1073580001229A40C1F808250133102BF1D9054ABA
:10736800012105481DF052FB00B908BD17F0A0F92E
:10737800FBE700BF1172020054760400F0B1104A16
:107388001060002309E00F4AD25C02F5E0724FF06A
:10739800A0410D4841F822000133032BF3D90B4BD0
:1073A8004FF00042C3F804230020C3F87C01084BC7
:1073B800C02283F8062340221A6070470E207047C7
:1073C80050370020587604000C000300006000408D
:1073D80000E100E010B50024144BC3F87C410EE036
:1073E80043F23333994208D9114BD3F80425114B92
:1073F8001A60114B1B68204698470134E4B2032CED
:1074080012D84FF0A043D3F810250C4B195D012377
:107418008B409343F1D0074B1B68054AD2F80425EB
:10742800991ADDD5D11ADBE710BD00BF0060004016
:1074380000100140543700205037002058760400CF
:10744800002869D02DE9F043CFB00646334B1B68BE
:1074580013F4804F03D0324B1B68032B31DC2F4BC6
:107468001B6813F4804F03D02D4B1B68032B2ADCB9
:107478004FB0BDE8F083F25C2A490D681009590045
:10748800285C0DAC04F8130002F00F020131AA5C6D
:10749800625401330F2BEED90DAA00238DF8543016
:1074A80003F1804303F58833D3F8043502921E4A6A
:1074B80001921E4A009241221D49042007F0A2F9B8
:1074C800CDE70023E6E71B4BD3F80435B288F188F3
:1074D800307A747AB57AF77A96F80CC096F80DE097
:1074E80096F80E8096F80F90CDF82C90CDF828805D
:1074F800CDF824E0CDF820C00797069505940490B0
:1075080003910292326801920B4A0092462208497E
:10751800042007F077F9ABE7704700BF8C320020F2
:107528008832002090320020CC760400E0760400F7
:10753800BB76040000100140E876040072DF704753
:1075480073DF704774DF70472DE9F047A2B0074634
:1075580088469146314C0026C4F80660E6813049D9
:107568000B78C3EB43102F4D054425602E4A024487
:10757800A2601F22A280A281013303F001030B70D5
:107588004FF03C0A5246314613A81FF086FC0623EA
:107598008DF84F30ADF8487001238DF84A30ADF8BA
:1075A8005C3012AA1892ADF83C70ADF84090CDF856
:1075B80044800DEB0A021D928DF878305246314610
:1075C80068461FF06AFC02238DF80030221D294608
:1075D80013A816F026FB90B9104B03F10C0299681A
:1075E800684616F01EFB68B9104A0C491048FFF7A8
:1075F800A5FF082809D070B922B0BDE8F08717F0B8
:1076080057F8E9E717F054F8EEE70022034908486D
:10761800FFF794FFEFE717F04BF8EDE7A0370020EE
:107628005C37002060370020B0370020BC2D0020D8
:10763800B82D0020B0F5202F0AD2074BA3FB00235A
:10764800DB0808B103B90123044A938191607047AC
:107658004FF6FF73F5E700BFCDCCCCCCBC2D002096
:1076680008B50121054B1878FFF76AFF18B9002003
:1076780005F0B4FC08BD17F01BF8F8E7B82D00209A
:1076880008B5044B1878FFF75DFF00B908BD17F07F
:107698000FF8FBE7B82D002076DF70477ADF7047D8
:1076A8007CDF704708B517F003F808BD08B504F08B
:1076B80071FD08BD00B583B0037823B1012B0BD051
:1076C80003B05DF804FB3B214088FFF7E5FF002885
:1076D800F6D016F0EDFFF3E7094B1B6813F4804F63
:1076E800EED0084B1B68032BEADD074BD3F80435B3
:1076F800064A009268220649042007F083F8DFE76B
:107708008C3200208832002000100140B07704003D
:107718009777040000B583B016F056FC70B902A93B
:10772800002341F8043D012016F086FB48B901A862
:1077380016F0D4FB40B903B05DF804FB16F0B8FFAF
:10774800EDE716F0B5FFF2E716F0B2FFF3E7000039
:1077580000B585B09DF80C30012262F3030362F393
:10776800071304A800F8043D0F220F49FFF798FFFC
:1077780098B90023ADF808307823ADF80430C82351
:10778800ADF806304FF4C873ADF80A3001A8FFF71A
:1077980085FF28B905B05DF804FB16F089FFE8E716
:1077A80016F086FFF6E700BF2877040000B58BB017
:1077B8000023ADF808307822ADF80420C822ADF8CF
:1077C80006204FF4C872ADF80A200693079301AB60
:1077D800039340F6CD4304934FF48033059303237A
:1077E8008DF81830064B0893064B099303A816F03A
:1077F800D3FD10B90BB05DF804FB16F059FFF9E79B
:10780800BD760200AD7602000620704700B587B04D
:1078180041F20103984247D020D944F2010398422B
:1078280058D044F2020398426FD1464B1B6813F4B8
:10783800804F1ED0444B1B68002B1ADD434BD3F8F6
:10784800043510880390526802920191404A0092D0
:107858006C224049012006F0D5FF0AE0012854D1E6
:10786800384B1B6813F4804F03D0374B1B68002B31
:107878000DDC4FF0A0434FF4F032C3F81825C3F8DD
:107888000C25EFF3108372B64DF6AD6C53E02F4B19
:10789800D3F80435029201912F4A009260222D49B3
:1078A800012006F0AFFFE4E7264B1B6813F4804F76
:1078B800DFD0254B1B68002BDBDD244BD3F80435C8
:1078C80002920191254A009263222249012006F082
:1078D80099FFCEE71B4B1B6813F4804FC9D01A4B96
:1078E8001B68002BC5DD194BD3F8043510680490CC
:1078F80050680390029192680192194A0092772287
:107908001449012006F07EFFB3E70E4B1B6813F401
:10791800804FAED00C4B1B68002BAADD0B4BD3F865
:10792800043501910F4A00927B220A49012006F092
:1079380069FF9EE730BF0C4B1B78002BFAD107B0CC
:107948005DF804FB8C3200208832002000100140D2
:107958008C7804003B7804004C78040068780400B4
:10796800AC780400D0780400D42D002000B583B092
:107978000023ADF80030054B01936A46014644F2F6
:107988000200FFF743FF03B05DF804FB7C720400BC
:1079980001230B60704702230B60704703230B60C1
:1079A800704704230B60704710B50C4601F042F88D
:1079B800206010BD0C4B1B6813F4804F03D00B4B99
:1079C8001B68032B00DC704700B583B0084BD3F865
:1079D80004350191074A0092EE220749042006F077
:1079E80011FF03B05DF804FB8C32002088320020C0
:1079F800001001406C7904005B7904000C4B1B6893
:107A080013F4804F03D00B4B1B68032B00DC70472B
:107A180000B583B0084BD3F804350191074A0092AA
:107A2800E8220749042006F0EDFE03B05DF804FBE8
:107A38008C32002088320020001001406C7904004C
:107A48005B7904000C4B1B6813F4804F03D00B4B7D
:107A58001B68032B00DC704700B583B0084BD3F8D4
:107A680004350191074A0092E2220749042006F0F2
:107A7800C9FE03B05DF804FB8C3200208832002078
:107A8800001001406C7904005B7904000C4B1B6802
:107A980013F4804F03D00B4B1B68032B00DC70479B
:107AA80000B583B0084BD3F804350191074A00921A
:107AB800DC220749042006F0A5FE03B05DF804FBAC
:107AC8008C32002088320020001001406C790400BC
:107AD8005B79040010B50C461020FFF7C5FB207039
:107AE80010BD10B50C460F20FFF7BEFB207010BD6F
:107AF80010B50C460E20FFF7B7FB207010BD10B56F
:107B08000C460D20FFF7B0FB207010BD10B582B0F9
:107B18000C460D4B1B6813F4804F03D00B4B1B68AE
:107B2800032B05DC21461020FFF7AAFB02B010BD8D
:107B3800074BD3F804350191064A00929222064970
:107B4800042006F05FFEEDE78C320020883200202A
:107B5800001001406C7904005B79040010B582B014
:107B68000C460D4B1B6813F4804F03D00B4B1B685E
:107B7800032B05DC21460F20FFF782FB02B010BD66
:107B8800074BD3F804350191064A00928A22064928
:107B9800042006F037FEEDE78C3200208832002002
:107BA800001001406C7904005B79040010B582B0C4
:107BB8000C460D4B1B6813F4804F03D00B4B1B680E
:107BC800032B05DC21460E20FFF75AFB02B010BD3F
:107BD800074BD3F804350191064A009282220649E0
:107BE800042006F00FFEEDE78C32002088320020DA
:107BF800001001406C7904005B79040010B582B074
:107C08000C460D4B1B6813F4804F03D00B4B1B68BD
:107C1800032B05DC21460D20FFF732FB02B010BD17
:107C2800074BD3F804350191064A00927A22064997
:107C3800042006F0E7FDEDE78C32002088320020B2
:107C4800001001406C7904005B79040008B508460F
:107C580000F0E0FE08BD0000F0B58BB000F0F2FEC9
:107C680000F0E8FE020FD7B2C0F30366C0F3035575
:107C7800C0F30344C0F30331C0F3032CC0F3031E65
:107C88009B4B1B6813F4804F05D000F00F00994BF5
:107C98001B68032B26DC0021974800F09BFD002879
:107CA80036D1934B1B6813F4804F03D0914B1B685C
:107CB800032B33DC012F40D0012E61D0012D00F0C1
:107CC8008280012C00F0A480032F00F0C680032ED0
:107CD80000F0E880032D00F03381032C00F055817B
:107CE8000BB0F0BD854BD3F804350890CDF81CE0F7
:107CF800CDF818C005910494039502960192804A24
:107D0800009240F267127F49042006F07BFDC2E72B
:107D18007D4A4FF4B57116F0D9FCC2E7774BD3F81A
:107D28000435754A12880192784A009240F26B1223
:107D38007449042006F066FDBCE701217448FFF78A
:107D4800B5F8B8B96A4B1B6813F4804FB4D0694BC7
:107D58001B68032BB0DD694BD3F804356C4A1288D5
:107D680001926C4A009240F271126649042006F0B2
:107D780049FDA1E7644A4FF4B87116F0A7FCE1E7A2
:107D880002216548FFF792F8B8B9594B1B6813F4FC
:107D9800804F93D0574B1B68032B8FDD574BD3F87D
:107DA80004355D4A128801925C4A00924FF4BC7215
:107DB8005449042006F026FD80E7534A40F2771123
:107DC80016F084FCE1E703215548FFF76FF8C8B9BE
:107DD800474B1B6813F4804F3FF473AF454B1B6848
:107DE800032B7FF76EAF454BD3F804354C4A128806
:107DF80001924C4A009240F27F124249042006F058
:107E080001FD5EE7404A4FF4BF7116F05FFCDFE703
:107E180004214548FFF74AF8C8B9354B1B6813F4E5
:107E2800804F3FF451AF334B1B68032B7FF74CAFA8
:107E3800324BD3F804353C4A128801923B4A0092EF
:107E48004FF4C3722F49042006F0DCFC3CE72E4AAD
:107E580040F2851116F03AFCDFE70121344800F0C2
:107E6800B9FCC8B9224B1B6813F4804F3FF42FAFFD
:107E7800204B1B68032B7FF72AAF204BD3F8043520
:107E88002B4A128801922B4A00924FF4CC721D495A
:107E9800042006F0B7FC1AE71B4A40F2971116F0C7
:107EA80015FCDFE70221244800F094FCC8B9104B08
:107EB8001B6813F4804F3FF40DAF0E4B1B68032B68
:107EC8007FF708AF0D4BD3F804351B4A128801928F
:107ED8001A4A009240F29F120A49042006F092FCC6
:107EE800F8E6094A4FF4CF7116F0F0FBDFE700BF60
:107EF8008C32002088320020D82D0020001001404C
:107F0800F07104005B790400EC78040084790400C3
:107F1800D0300020A479040020310020C479040066
:107F280070310020E4790400C0310020047A040094
:107F3800702E0020247A0400082F0020447A0400C0
:107F48000321244800F046FCC8B9234B1B6813F4EE
:107F5800804F3FF4C2AE214B1B68032B7FF7BDAEA9
:107F68001F4BD3F804351B4A128801921D4A009210
:107F78004FF4D3721C49042006F044FCADE61B4ABA
:107F880040F2A51116F0A2FBDFE70421184800F023
:107F980021FCC8B9104B1B6813F4804F3FF4A0AE06
:107FA8000E4B1B68032B7FF79BAE0D4BD3F80435A4
:107FB8000F4A128801920F4A009240F2AD120A4904
:107FC800042006F01FFC8BE6084A4FF4D67116F021
:107FD8007DFBDFE7A02F00208C32002088320020B4
:107FE80000100140647A04005B790400EC78040016
:107FF80038300020847A040008B5034B53F8203049
:108008000846984708BD00BFF87B040008B5034B35
:1080180053F820300846984708BD00BF087C040084
:10802800D0F88000003018BF0120704790F88430E5
:10803800012B03D9022B0FD000207047C36F013BDF
:1080480013F1030F04D8D0F888301BB9002070470B
:108058000020704701207047C36F013B13F1030FE5
:1080680004D8D0F888301BB900207047002070472A
:108078000120704710B584B0044630301CF07BF9FD
:108088000023E36794F88430022B01D0A36F636761
:10809800636F0193A36F02930023039301A9204602
:1080A8001EF04EFDA36E616F2046984704B010BDC8
:1080B8002DE9784890F88430022B24D004463030DB
:1080C8001CF02DF94D01420145EAD063121A63EB09
:1080D80001039D0045EA92759600321845EB0103AD
:1080E800DD0045EA5275D1000A46D00B40EA45400A
:1080F800E90BE26F0023994208BF904201D20020A9
:1081080002E0012000E00020BDE878882DE9F04376
:1081180083B0044690F88430022B3FD0856FD0F8A6
:108128008C60AD1B30301CF0FAF84F01420147EA71
:10813800D063121A63EB01039F0047EA92774FEA74
:10814800820C1CEB000247EB0103D90041EA527193
:10815800D000C20B42EA4142C90B4FEAE57905FB60
:1081680001F102FB0911A5FB02898944E26F002392
:10817800404649461EF057FD30446067A36E616F64
:10818800204698472D4B1B6813F4804F03D02C4B87
:108198001B68042B2ADC03B0BDE8F083D0F88C50B0
:1081A80030301CF0BCF84E01420146EAD063121A86
:1081B80063EB01039E0046EA927697003A1846EB75
:1081C8000103D90041EA5271D000C20B42EA414290
:1081D800CB0BD4F88860A2FB060106FB0311E26F03
:1081E80000231EF020FD28446067C7E7154BD3F82D
:1081F800045504F130001CF092F84C01420144EAA5
:10820800D063121A63EB01039C0044EA927496004F
:10821800321844EB0103D90041EA5271D000C20B75
:1082280042EA41420192084B00932B464FF4A17257
:108238000649052006F0E6FAADE700BF8C320020BB
:108248008832002000100140E47B0400D77B040042
:108258002DE9F04882B0044615462A4B1B6813F4F2
:10826800804F03D0284B1B68032B32DCE36E04F1EC
:10827800740120469847636F2B60A36F6B6094F876
:108288008430022B31D094F89530002B35D094F8F7
:108298009530DBB2012B32D0E66F04F130001CF0D0
:1082A8003EF84C01420144EAD063121A63EB010321
:1082B8009C0044EA927497003A1844EB0103D900F1
:1082C80041EA5271D000C20B42EA4142B21AAA6096
:1082D80010E00E4BD3F804350D4A009240F28F128D
:1082E8000C49042006F08EFAC0E7E36F0BB14FF09B
:1082F800FF33AB6002B0BDE8F088AB60FAE7E36F2C
:10830800AB60F7E78C320020883200200010014073
:1083180050750400D77B04002DE9F04882B004466C
:1083280090F88430022B5DD0D0F88850002DB8BF6B
:108338006D42002D5CD0E66F304600217201F30ECD
:10834800921B63EB01039E0046EA92769700B446BF
:10835800C61941EB0C07FB0043EA5673F2001646B8
:108368001F462A460023304639461EF0F5FB0646CE
:108378000F46002908BFB0F57A7F49D23F4B1B68EA
:1083880013F4804F03D03E4B1B68032B34DC2122AF
:108398000023C4E90E23394B1B6813F4804F03D024
:1083A800374B1B68032B5BDC2046012300F8303F6A
:1083B8001BF0B8FF98B1314B1B6813F4804F0ED0F7
:1083C8002F4B1B68002B0ADD2E4BD3F804352E4AA1
:1083D800009240F22B122D49012006F013FA02B048
:1083E800BDE8F088D0F88850002DB8BF6D42A0E7EE
:1083F8007846FFF7BBFA9EE7224BD3F80435244AA8
:1084080000924FF48D722149042006F0FBF9BEE773
:108418001A4B1B6813F4804F03D0194B1B68032BAE
:1084280012DC4FEAC73C4CEA564C4FEAC63B194AA5
:108438000023194E00271BEB06004CEB07011EF02A
:108448008BFBC4E90E01A6E70E4BD3F80435134A9B
:1084580000924FF490720D49042006F0D3F9E0E73A
:10846800084BD3F80435A26B01920D4A00924FF4E1
:1084780092720649042006F0C5F995E78C3200206F
:108488008832002000100140547B0400D77B040090
:10849800E87A040040420F0020A107000C7B04008A
:1084A800347B04002DE9104883B00446002280F88C
:1084B8003020D0F880304FEA534C4FEAC33B4FF49A
:1084C8007A7200231BF5FA704CF100011EF044FB90
:1084D800C4E90E0104F130001BF024FF90B10B4BEE
:1084E8001B6813F4804F0DD0094B1B68002B09DD66
:1084F800084BD3F80435084A0092FB2207490120AB
:1085080006F080F903B0BDE8108800BF8C32002067
:108518008832002000100140C87A0400D77B04008C
:1085280008B502460321903008F017FF08BD000087
:1085380030B585B00446089D002B2FD019465B68DE
:10854800C0F880300B68C3671368002B2FD047F63C
:10855800FF73A3671368C4F88830636FC4F88C305E
:10856800022384F884301D4B1B6813F4804F03D01A
:108578001B4B1B68032B1DDC2246022104F19000D3
:1085880008F0EBFE45B1636F2B60A36F6B60E36F80
:108598000BB14FF0FF33AB6005B030BDC0F8803091
:1085A800036F13B11B68C367CEE7C367CCE70D4BF6
:1085B800A367CFE70C4BD3F80435E16F0391D4F8E8
:1085C8008010029112680192084A009240F24922F2
:1085D8000749042006F016F9CEE700BF8C320020C8
:1085E800883200200080FFFF00100140B87C0400A2
:1085F800D77B040030B587B004460A9D43B31946BB
:108608005B68C0F880300B68C3671168A1670023F6
:1086180084F88430626FC4F88C208A1AC4F88820E1
:10862800194B1B6813F4804F03D0184B1B68032B9E
:1086380017DC2246002104F1900008F08EFE2DB1CF
:10864800636F2B60A36F6B60E36FAB6007B030BDE7
:10865800C0F88030036F13B11B68C367D5E7C367E1
:10866800D3E70B4BD3F804350492E26F0392D4F8A6
:10867800802002920191074A009240F2D1120649E5
:10868800042006F0BFF8D4E78C320020883200209E
:1086980000100140E87C0400D77B0400F0B585B0E9
:1086A800044617460A9E5BB31A465B68C0F88030DA
:1086B8001368C367012384F884303B683D4DA5FBEC
:1086C8000325ED0BC5EB05455D1B201D1BF0B6FD15
:1086D800F8B9394B1B6813F4804F1DD0374B1B6812
:1086E800032B19DD364BD3F804353A790192354A14
:1086F800009240F201223449042006F083F80BE08E
:10870800C0F88030036F13B11B68C367D2E7C36733
:10871800D0E7636FC4F88C30D4F88C302B44A3674F
:10872800C4F88850244B1B6813F4804F03D0234BA4
:108738001B68032B17DC204B1B6813F4804F03D0F6
:108748001E4B1B68032B21DC2246012104F19000FB
:1087580008F003FE2EB1636F3360A36F7360E36F9D
:10876800B36005B0F0BD164BD3F80435E26F039241
:10877800D4F8802002923A680192144A00924FF489
:1087880003721149042006F03DF8D4E70C4BD3F8E6
:108798000435A26F0392626F0292D4F88C20019282
:1087A8000B4A009240F20F220749042006F02AF8EB
:1087B800CAE700BF018000808C3200208832002088
:1087C80000100140147C0400D77B0400487C04009E
:1087D800747C0400D8B110B50446826ED2B1C26E62
:1087E800D2B10E4BC3621EF06DF9034608B11846AC
:1087F80010BD24640A4B63640A4904F1900008F030
:1088080096FD04F130001BF0C9FD0346EFE70E2387
:10881800184670470E23EAE70E23E8E7707D040048
:1088280029850200607D040008B5804708BD000066
:1088380008B5034A4221032015F048FF08BD00BFD0
:10884800B47D040008B508224FF4A061084806F07A
:1088580064FE48B10246074B03CB50609160104656
:1088680006F094FE002008BD034806F0BDFFF9E7B6
:1088780010390020343900202032002000B583B0A0
:1088880002AB082243F8042D094A4FF4A0610948B5
:1088980006F004FE034628B9B3FA83F0400903B092
:1088A8005DF804FB024A002111605160F4E700BF43
:1088B800343900201039002000B58BB008A909A868
:1088C8000AF02CFBA8B9194B0593194B0693194BC1
:1088D800079304230493099BA3F580530293012370
:1088E800039302A9144806F030FF38B90BB05DF8BD
:1088F80004FB124A592115F0E9FEE4E7104806F096
:1089080073FF104B1B6813F4804FEFD00E4B1B689E
:10891800002BEBDD0D4BD3F804350D4A009266228F
:108928000C49012005F06EFFE0E700BFA9890200AD
:10893800398802006189020010390020B47D0400E2
:10894800103200208C3200208832002000100140B4
:10895800807D0400237E04000C4B1B6813F4804FB9
:1089680003D00B4B1B68032B00DC704700B583B0AA
:10897800084BD3F80435084A00924D2207490420D1
:1089880005F040FF03B05DF804FB00BF8C32002007
:108998008832002000100140347E0400237E040049
:1089A80010B582B01446154B1B6813F4804F03D0E2
:1089B800134B1B68032B07DC012C10D0022C12D0A0
:1089C800032C14D002B010BD0E4BD3F804350E4A58
:1089D800009232220D49042005F014FFECE7784696
:1089E800FEF7C4FFEAE77846FEF7C0FFE8E7084A63
:1089F8003B21042015F06AFEE4E700BF8C3200201A
:108A080088320020001001404C7E0400237E0400C0
:108A1800B47D040008B5054B1860FFF713FF00B9D3
:108A280008BD034A9E2115F051FEF9E734390020AC
:108A3800B47D040008B5FFF721FF014B186808BD95
:108A48003439002008B5FFF737FF08BD10B40346D6
:108A5800044C006859689A68DB680FC45DF8044BD9
:108A6800704700BF3C3900200B4B0C4A92E80300CA
:108A780083E8030003F10802094903C982E80300F7
:108A8800DA79042161F30712DA711A7A022161F3A3
:108A980087121A72704700BF3C390020600000102E
:108AA800A4000010004870473C390020002308E06B
:108AB800074901EBC30000224280426001F83320DD
:108AC80001331F2BF4D9034B00221A60704700BFF3
:108AD8004C3900204C3A002030B405460F4B1B6837
:108AE80000240AE01F230E4A12F83300A0B102EB5B
:108AF800C3025288AA4207D001341F2C0BD85A1E31
:108B0800002BEFD01346EEE7054A02EBC30252688A
:108B18008A42F1D100E0002030BC70474C3A002076
:108B28004C39002030B40A4A13680A4C04EBC305D8
:108B380068806960012104F833100B441360202B0E
:108B480001D030BC7047134600221A60F9E700BF15
:108B58004C3A00204C390020006F024BC01A18BF55
:108B680001207047143B0020C0F30C038B4202D352
:108B7800C91A08447047C91A0844A0F5005070473C
:108B8800C37D002B42D0C3780A7802F0800203F03C
:108B98007F0313430B7002780B7803F07F0343EADB
:108BA800C2130B700378002B41D030B48378082BA4
:108BB80014BF002201224B7803F07F0343EAC2135B
:108BC8004B70C58803F08003C5F3861423434B70AC
:108BD8008A7802F0030242EA8502D2B28A70057AE4
:108BE80002F0FC02C5F3C10422438A70CB7803F07B
:108BF8001F0343EA4513DBB2CB70427A03F0E0036C
:108C080002F01F021343CB7030BC7047C3780A7858
:108C180002F0BF029B0103F0400313430B7002797B
:108C280003F0C00302F03F0213430B70B3E7704731
:108C38000023032B2CD810B402E00133032B23D8D4
:108C4800144C742202FB034292F84C20012AF4D1FE
:108C5800742202FB0342948AC2899442EDD10D4CDE
:108C6800742202FB0342D2888A42E6D1742202FBB4
:108C78000342B2F85C2012B1848AA242DDD10548D1
:108C8800742202FB030000E000205DF8044B7047EB
:108C980000207047943C0020002300E00133032BA0
:108CA80013D80B49742202FB031292F84C20022AB3
:108CB800F4D1742202FB0312918A828A9142EDD187
:108CC8000348742202FB030070470020704700BF6E
:108CD800943C002008B1082070470420704730B445
:108CE80003460C460978C17000214162A1680B292E
:108CF80003D8217B01B3012100E001211970002074
:108D0800987029B1A1680731C908013959721872D8
:108D18000121D97503F10C0504F1100103C985E897
:108D28000300E1899982A1691962217F9975216AF5
:108D3800D9629A6230BC70470021DFE70021164BE8
:108D48001B688B4226D90023144A02EBC1025268E1
:108D58009A421DD910B4114A52F8312002EBC304CB
:108D680012F8332082420DD001330C4A02EBC102C3
:108D780052689A42EFD80131074B1B688B4205D9DC
:108D88000023F2E760685DF8044B70470020FAE7BB
:108D98000131D4E700207047503A0020543A0020AF
:108DA80030B58DB005460C462C22002101A81EF0D6
:108DB80074F810238DF8043002958DF80C4001A842
:108DC80001F012FB0DB030BD70B58CB006460D46F3
:108DD80014462C22002101A81EF05FF80F238DF8FD
:108DE8000430ADF808604FF0000365F300038DF818
:108DF8000A308DF80B4001A801F0F6FA0CB070BDEE
:108E080000B58DB048B913F1020F06D001228DF8D4
:108E18000420029301A801F0E7FA034B186804F054
:108E280003FB0DB05DF804FB743A0020D0B504468E
:108E3800037853B1E3691F0A1E06E188A069FFF7AA
:108E480093FE301847F10001D0BD7846FEF78EFD3D
:108E5800F0E70000F8B50546002400E00134032CD3
:108E68001FD8114A742303FB042393F84C30022BB8
:108E7800F4D1742303FB04239A8AAB8A9A42EDD176
:108E88002846FFF7D3FF06460F46074B742000FB22
:108E98000430FFF7CBFF8F4208BF8642DED20120A5
:108EA80000E00020F8BD00BF943C002038B504461F
:108EB8000D46037853B10023072B0ED8A18A1A0157
:108EC8001248825A914205D00133F5E77846FEF7F9
:108ED8004DFDF0E71B010021C1520D4A1368591CD2
:108EE800116003F00703A08A1A010849885255B196
:108EF8006278064D05EB0315AA702046FFF796FF2A
:108F0800C5E9020138BD0022F3E700BF783A002026
:108F1800F83A0020F8B5064603783BB13046FFF72B
:108F280085FF04460D46B08A002304E07846FEF724
:108F38001DFDF3E70133072B0ED81A0107498A5A9A
:108F48008242F7D101EB0312D2E90267AF4208BFB0
:108F5800A642EFD1104600E00020F8BD783A002084
:108F6800F8B5069C002963D00F4616685568D2F8F4
:108F780008E0D2F80CC0E6602561C4F814E0C4F833
:108F880018C016695569E661256200226270027888
:108F9800D20922706AB30421B9424BD8E57D55B392
:108FA800027802F07F02E2700022A27022789AB161
:108FB8004278920102F4FE52817842EA9102E280FC
:108FC8008278D20002F01802C17842EA5112227265
:108FD800C27802F01F0262721D46002363622B787A
:108FE800032B21D82A78144B53F82230E36200204F
:108FF8001FE00121D0E70578C5F38015E5700578F5
:1090080005F03F05257142B190F90120002A02DBE5
:109018000422A270CAE70822FBE70422A2701144C6
:10902800B942C3D9092004E07846FEF79FFCD9E786
:109038000920F8BD0920FCE7647E040070B50C46E1
:109048001E460378ABB104252A44A26000F10C0344
:109058002360836A6360C36AE36000232374204645
:1090680004F060FD024610B963691D44356010467E
:1090780070BD0125E8E72DE9F0418EB00D46164692
:109088001C46804600282DD0002D2FD0002C31D032
:10909800636A0233059304F10C00E378002B2DD0AA
:1090A8000121A27801AF3B46082A14BF0022012201
:1090B80004F0FFFA0697CDF81C80B2B2ADF8202074
:1090C8000B9515440C95A3788DF83430237B022B2F
:1090D80016D00023ADF8283005A804F0E2FA0EB047
:1090E800BDE8F0817846FEF741FCCDE77846FEF70B
:1090F8003DFCCBE77846FEF739FCC9E70221D0E70B
:1091080023692BB1236909931023ADF82830E3E7CD
:109118007846FEF72BFCF5E72DE9F04188B00446C8
:109128000D46C37D002B3CD0082605FB06F8637A64
:10913800AB4238D0257201AB324602A92046FFF770
:109148007DFF074648BB4DB994F8573033B9A3693A
:10915800C3F30C03E380012384F85730E37D7BB924
:1091680094F8563063B91DBBB4F84E10A278234664
:109178008A1A216F0846FFF77EFF012384F85630CC
:1091880007992046FFF7FCFC216F324641440198BD
:109198001DF05AFE02A804F0EBFC384608B0BDE802
:1091A800F0810C26C1E7B4F84E60A6EB0806C1E7CB
:1091B8007846FEF7DBFBD7E770B505460E4609B1E2
:1091C80000230B6095F85440002104E0631C85F8E7
:1091D80054300134E4B26B7AA34210D32A6D0123D0
:1091E800A3401A42F5D121462846FFF795FF0146CC
:1091F80028B9002EEAD0336801333360E6E7084621
:1092080070BDF0B589B085781544C37DDBB10B23FB
:109218009D4221D816460F46044601AB2A4602A9AC
:10922800FFF70CFF0546C0B907992046FFF7A8FCD1
:10923800E37D53B13246394601981DF005FE02A878
:1092480004F096FC09E00F23E2E723463246019931
:109258003846FFF710FFF2E70925284609B0F0BDA8
:1092680010B5044690F84C30012B0FD103F0C2FA28
:10927800237B012B0ED00B4BD968012284F84820A0
:10928800014404F1300003F08BFA10BD7846FEF774
:109298006DFBEBE7A37D034AD168126902FB03115A
:1092A800EBE700BFFC3A002030B583B0002403E0B0
:1092B8002846FFF7D5FF0134032C17D80C4A74232E
:1092C80003FB042393F84C30012BF4D102A90023AB
:1092D80041F8043D742505FB04252846FFF76CFF7B
:1092E8000428E5D0019B002BE5D0E1E703B030BDB1
:1092F800943C002038B5044690F84C30022B02D03C
:109308007846FEF733FB054B1D6803F073FA4119E5
:1093180004F1300003F044FA38BD00BFFC3A0020E5
:1093280038B5044690F84C30022B02D07846FEF748
:109338001DFB084B5D7D5A689B6803FB052503F000
:1093480059FA411904F1540003F02AFA012384F868
:109358006C3038BDFC3A002010B50446FFF7FCFB22
:1093680090B904F1300003F003FA94F84C30022B62
:109378000ED07422002120461DF08FFD002084F8B5
:109388004C0002F015FA10BD206F09F0D4FCE8E794
:1093980004F1540003F0ECF9EBE7000030B585B0B8
:1093A8000D460446D0B1E18894F84C30022B19D010
:1093B80094F84C30022B1ED02946A06DFFF7F0FC24
:1093C8002046FFF7C9FF164B1B6813F0040F03D0A4
:1093D800144B1B68032B13DC05B030BD7846FEF731
:1093E800C5FAE0E7637813F0020FE1D00022A08A03
:1093F8001CF096FEDCE700212046FFF757FDDBE76F
:10940800094BD3F8043594F84C2002950192074A89
:10941800009240F22E220649042005F0F3F9DBE71A
:109428008C3200208832002000100140DC7E0400CD
:10943800CD7E040038B50546002400E00134032C35
:109448000ED8084A742303FB042393F84C30022BEC
:10945800F4D12946742000FB0420FFF79FFFEDE7B5
:1094680038BD00BF943C002008B508460021FFF72E
:1094780095FF08BD10B58CB0044690F84C30012B10
:1094880002D07846FEF772FA01238DF80430A36DF6
:10949800029301A800F0A8FF2046FFF75DFF0CB07B
:1094A80010BD08B5037B012B02D0FFF7E3FF08BD11
:1094B8000121FFF773FFFAE708B590F8553013B9A3
:1094C800FFF7EFFF08BD013B80F85530002380F817
:1094D8005430024B186803F0A7FFF3E7743A0020F2
:1094E80010B5002400E00134032C14D80A4A742370
:1094F80003FB042393F84C30012BF4D1742303FBB2
:10950800042393F84830022BEDD1742000FB04208B
:10951800FFF7D2FFE7E710BD943C002008B50378B9
:10952800192B13D01A2B08D0182B00D008BD0820EF
:10953800FFF780FFFFF7D4FFF8E70379012BF5D198
:109548000620FFF777FFFFF7CBFFEFE70379012B43
:10955800ECD10720FFF76EFFE8E70000062900D0EE
:109568007047F0B585B015460278910101F4FE51B7
:1095780047788478C3781B0443EA0463047943EA90
:10958800042344791C4356B241EA97012846FFF761
:109598004FFB0746E0B1002E2FDBC289A98A8A4219
:1095A8002BD02B4B1B6813F0040F3ED0294B1B68A4
:1095B800012B3ADD284BD3F8043502910192274A52
:1095C800009240F28C622649022005F01BF92CE03B
:1095D8001F4B1B6813F0040F27D01E4B1B68012B71
:1095E80023DD1D4BD3F804351E4A009240F28462F5
:1095F8001B49022005F006F917E0002E17DB3D6D28
:1096080025433D65BCB13B78D3B17B7A5A1C012315
:109618009340013B9D4217D0002187F854103846EB
:10962800FFF7CAFD3846FFF71BFE05B0F0BDAB8A51
:10963800A7F85C30E3E703213846FFF7AFFEF4E70D
:109648007846FEF793F9E0E73846FFF713FFECE7B3
:109658008C3200208832002000100140707F040006
:10966800CD7E0400407F040010B50446808A02F0D5
:10967800BDFB01281CD1237BE3B194F91620002AF5
:109688001ADBE27D4AB1022B18D094F90330002B83
:1096980016DBA378B3B900200BE0E2780AB9012BF6
:1096A80012D1237893B9A378042B11D1002000E0BC
:1096B800102010BD1020FCE70720FAE71020F8E77B
:1096C8000720F6E70720F4E70720F2E70020F0E795
:1096D8000720EEE738B50446C2698169808A06F03A
:1096E800ABFA054608B9284638BDE169002201F001
:1096F8000101A08AFFF768FBF5E72DE9F0438BB07D
:1097080080460F4614461E461046FFF7E3FF10BB7F
:10971800E5781DB32846FFF711FB8146D8B18DF8CF
:109728000450236A0793A38AADF8123005AB04F1FD
:109738000C0292E8030083E80300A37D8DF8203033
:10974800CDF80880039723788DF81030E36A0993E1
:10975800314601A8C8470BB0BDE8F083334622461E
:1097680039464046FFF7FAFEF5E700002DE9F041DB
:1097780007460E4690464B1EDBB2012B10D8B8F5B3
:10978800C07F11D8012E13D00024032C22D8374AC9
:10979800742303FB042393F84C305BB10134F4E7E2
:1097A8007846FEF7E3F8EAE77846FEF7DFF8E9E7F8
:1097B8000124EAE7742505FB042514B92C4B2B6713
:1097C80009E0404609F0B3FA284B742202FB04343E
:1097D800206700E000256DB32B6F002B43D03B467C
:1097E8002A4607F13001D3F800E0D3F804C09C689A
:1097F800D868C2F800E0C2F804C09460D0601033A2
:1098080010328B42EFD100232B65A5F84E80012E34
:1098180013D06FF00103AB62002385F86C30154B51
:10982800EB656D66144BAB632D64012001F0C0FF3E
:1098380085F84C602846BDE8F081104B1B7D85F803
:109848005530002385F8563085F8573085F8543060
:10985800BA6AAA65A5F85C306FF00103AB62084BE1
:10986800AB632D64E1E70025E4E700BF943C0020EA
:10987800143B0020639F020071940200FC3A002010
:10988800F7990200F0B5C7B086781644C37D2BB1AE
:109898004FF48073B34278D3002303E04FF4C073CE
:1098A800F8E70133032B18D83C4D742404FB035408
:1098B80094F84C40012CF4D1742404FB0354A58A79
:1098C800848AA542EDD1354D742404FB0354E589FF
:1098D800C489A542E5D1082458E014460D4632460D
:1098E8000121FFF743FF0646002852D022462946A9
:1098F800006F1DF0A9FA46A9002341F8043D30463F
:10990800FFF75AFC044608B104283AD1459B7BB9B5
:10991800234B1C6814F0040438D0224B1B68032B1B
:1099280039DDB6F84E70802F28BF8027002313E05A
:109938003046FFF795FCEBE7326FD25C1A490C68AA
:1099480010095900255C04A800F8135002F00F0212
:109958000131A25C42540133BB42EDD304AA002476
:1099680002F81740114BD3F804350292104A0192BD
:10997800104A009240F271520F49042004F042FF4D
:1099880004E03046FFF7E8FC00E00924204647B031
:10999800F0BD0424FAE70024F8E700BF943C002057
:1099A8008C320020883200209032002000100140C4
:1099B800B47F0400E0760400CD7E040070B5044650
:1099C8000D461646FFF750FE034638B923783BB9D3
:1099D800324629462046FFF714FC0346184670BD58
:1099E800324629462046FFF74DFF0346F6E710B5F5
:1099F8000C4691F84C30012B06D108F081FA38B9A1
:109A08002046FFF759FD10BD7846FDF7AFFFF4E794
:109A1800002008F02DFB022384F84830F3E700000B
:109A280000B585B000238DF80F3098B1034608467D
:109A380002330B600DF10F0103F037FE9DF80F3074
:109A480043B10D4B1B6813F0040F03D00B4B1B687D
:109A5800032B04DC9DF80F0005B05DF804FB084BF0
:109A6800D3F80435074A009240F2374206490420E9
:109A780004F0C8FEEEE700BF8C32002088320020D8
:109A880000100140C47F0400CD7E04002DE9F0439E
:109A98008FB004460E4615461F46D0F81890037836
:109AA80023B1C1884846FFF75FF8A06104F10C00B4
:109AB800E378002B37D00121A2780DF1280843461E
:109AC800082A14BF0022012203F0F3FDC4F81890FD
:109AD800CDF808800396A378EA1A92B2ADF8102060
:109AE8003244089207978DF824300023ADF81830D7
:109AF800E37863B3237B022B17D02546002345F870
:109B0800243F2A462179206A10F07EFB606A90B1D2
:109B180001A9FFF785FF00283BD12A462179206A51
:109B280010F072FBF2E70221C6E71023ADF81830F7
:109B380023690593E1E7237B022B2ED104F10C0165
:109B4800E08910F039FC0028D4D1052022E0237BDD
:109B5800012B24D1E389ADF80030A38AADF8023097
:109B68000025012D13D82146002341F8243F0EABD0
:109B780003EB450333F8380C10F063FB01A9606A66
:109B8800FFF74EFF08B90135EBE7002002E005209A
:109B980000E000200FB0BDE8F0830520FAE70520BB
:109BA800F8E7000070B5F0B00D4614461E4610AB3D
:109BB8000A4601462046FFF769FF50B1224B1B6851
:109BC80013F0040F03D0214B1B68052B2FDC70B05A
:109BD80070BD2046FFF77EFD0028F8D103AB0122B7
:109BE8008DF80C20A28AADF80E20002204928DF880
:109BF800142010AA0692A278AD1AADF81C5008AA33
:109C080093E8030082E803000AAB04F10C0292E82F
:109C1800030083E80300A37D8DF83830236A0C9392
:109C2800636A0D930F9605A800F0DEFBCFE7084B9B
:109C3800D3F80435074A009240F20E72064906200E
:109C480004F0E0FDC3E700BF8C320020883200201A
:109C580000100140E87F0400CD7E040010B5547860
:109C680014F0010F03D0D47D14B9FFF79BFF10BD8A
:109C7800FFF743FDFBE7F8B505460E4614461F46B9
:109C8800537813F0020F06D13B462246711E681C1A
:109C9800FFF7E4FFF8BD0123C9B21CF091F9F3E71F
:109CA80038B504460D46CB695B780371CB691B78E0
:109CB80083F00103C370CB6943628B8A0B2B07D8EF
:109CC800CB7A002B3DD10B7B012B02D0002300E087
:109CD80001232370002B39D0287B022833D0FEF7CC
:109CE800F9FFA070AB8A03440B331B4880FB0323A6
:109CF8005B10013B6372002323720023E37504F1B8
:109D08000C0395E8030083E80300AB6923622B8901
:109D1800A382AB7AA3752B6AA362DF23E36228468A
:109D280010F0C4FC20B12B78012B12D0FF23E36282
:109D380020461CF0CDF918B1E36A43F02003E36232
:109D480038BD0123C5E7054B987DC8E70423A370F8
:109D5800D3E72023EBE700BFABAAAA2AFC3A0020EE
:109D680010B54FF4E872002115481DF096F806F07A
:109D780017F80024134B1C608022214612481DF05E
:109D88008CF8124B124A1A60124A5A604CF250323E
:109D98009A601149D9601A6104221A759C750822C3
:109DA8005A750E4803F020FB0D4B18600D4B1C60D4
:109DB8000D4806F0F3F80D4802F0E4F910BD00BFB5
:109DC800943C0020F83A0020783A0020FC3A002021
:109DD80080969800F049020020A10700559F0200D4
:109DE800743A0020503A0020098E020030320020D8
:109DF80008B505F019FF08BD98B110B58CB0044638
:109E0800036983B1C36983B1836983B10146684635
:109E1800FFF746FFA28A21696846FFF7CFFD0CB01D
:109E280010BD0E2070470E20F9E70E20F7E70E2030
:109E3800F5E790B110B58CB0044642687AB18269F2
:109E48007AB10A4601466846FEF749FFA26861688A
:109E58006846FFF7B3FD0CB010BD0E2070470E200A
:109E6800F9E70E20F7E70000037B012B01D0002063
:109E7800704710B58CB000230193CDF80730C28825
:109E8800C2F3861492008DF801200A0E8DF8022084
:109E98000A0C8DF803200A0A8DF804208DF80510A5
:109EA8004278022A14BF0022012244EAC2128DF825
:109EB80000200622059201228DF81C20828AADF826
:109EC8001E2008938DF80C30CDF810D0026A099244
:109ED8008DF81830C389ADF81A30C36A0B93837DA7
:109EE80043B98DF828306FF0010103A8FFF7A1FFEF
:109EF8000CB010BD024B5B7D8DF82830F3E700BF36
:109F0800FC3A002090F84C30022B00D0704790F8B3
:109F18006C30022BFAD110B50446016DFFF7A4FF8F
:109F280010B9002384F86C3010BD000010B500246F
:109F380006E0054B742000FB0430FFF7E3FF013413
:109F4800032CF6D910BD00BF943C002008B5FFF7DC
:109F5800ABF9FFF7EBFF012008BD10B50C4691F8EF
:109F68004C30022B02D07846FDF700FD022384F81E
:109F78006C302046FFF7C6FF10BD0000F0B58FB06B
:109F88000446FEF767FFF8B107F0BAFF002800F0B3
:109F9800B6805E4B1B6813F0040F00F0B2805C4B78
:109FA8001B68012B01DC002525E05A4BD3F804354A
:109FB800E2880192584A00924FF45772574902209A
:109FC80004F020FC002516E02046FEF7A3FF074614
:109FD800A0B92046FEF760FE054658B12046FEF7B8
:109FE80025FF06460F462846FEF720FFB94208BF60
:109FF800B0422BD37DB328460FB0F0BD02AD264644
:10A008000FCE0FC50FCE0FC596E80F0085E80F00DD
:10A01800BB788DF809307BB19DF8083073B19DF895
:10A0280011104B1C01219940013902A8FFF71CFFB0
:10A03800BB7813F0010F05D10025DCE77846FDF762
:10A0480095FCECE72046FFF745FBF5E70521284698
:10A05800FFF7A4F9002507F053FFB0B9667A731C1F
:10A06800E27DB2B1082606FB03F6A2B14FF4807375
:10A07800B34221D2254B1B6813F0040F43D0244B65
:10A088001B68002B0ADC0025B5E70520FFF7D2F98D
:10A09800E4E70C26E7E74FF4C073E9E71D4BD3F874
:10A0A800043501961E4A009240F292321B49012063
:10A0B80004F0A8FB00259EE7E188A069FEF754FD9F
:10A0C800E2690146A08A05F015FE002893D13246C0
:10A0D80002212046FFF74AFB054600288BD107F0EE
:10A0E8000FFF40B900212046FFF7BEFE02210020E5
:10A0F800FEF756FE7FE77846FDF738FCF2E70025C5
:10A1080079E7002577E7002575E700BF8C32002046
:10A118008832002000100140007F0400CD7E04003A
:10A128002C7F04002DE9F04782B007460E461546FD
:10A1380098461046FFF722FF00284CD00446534BA0
:10A148001B6813F0040F03D0514B1B68032B45DC2D
:10A1580007F0D6FE00284FD0226D297A01238B40C4
:10A168001A4238D113432365A6F1040A2B7AEA7DF3
:10A17800002A4FD04FF0080C0CFB03FC617A8B428D
:10A188004BD0002A4ED0082353454DD1A269AB6964
:10A198009A420BD204F10C0E05F10C09B9E80F0034
:10A1A800AEE80F0099E803008EE80300206F5246DE
:10A1B800391D60441CF048FE6B7813F0020F38D14B
:10A1C800266D2378002B3BD0637A5A1C01239340D9
:10A1D800013B9E4238D002B0BDE8F0872D4BD3F842
:10A1E80004352A7A01922C4A00924FF471722B4955
:10A1F800042004F007FBABE72046FFF77BF8237B3E
:10A20800012BA9D194F86C30002BA5D12046FFF77B
:10A2180087F8A1E74FF00C0CAEE70CEB0A03A4F8A3
:10A228004E30B3E70C23AFE704212046FFF7B6F81A
:10A23800D1E701232A46F1B238461BF0C1FEBFE739
:10A248007846FDF793FBBFE707F05AFE90B16B78AD
:10A2580013F0020F13D143462246B4F84E10206F74
:10A26800FFF7FCFC01212046FEF720FE2046FFF701
:10A2780073F8B0E7216D2046FFF7F6FDE7E7012206
:10A28800E988A88A1BF04CFFE5E700BF8C32002064
:10A298008832002000100140D87F0400CD7E0400E1
:10A2A8002DE9F04190B000284FD08046002A4ED0CA
:10A2B8001F4614460E4604AB00933B46FEF750FE7D
:10A2C800054618B1284610B0BDE8F08104A8FFF78C
:10A2D800CBF905460028F5D1204607F02DFF226965
:10A2E800E168208905F006FD0028EBD104A81BF0E1
:10A2F800EFFE28B19DF8113043F002038DF81130BC
:10A3080000230293039302A9608810F055F838B12E
:10A318009DF8113043F001038DF81130039B089329
:10A328009DF81130002BCDD09DF8103033B93B4645
:10A3380004AA31464046FFF79EFCC3E73B4604AA01
:10A3480031464046FFF7EEFEBCE70E25BAE70E257C
:10A35800B8E7000018B3F8B50546174B1F68032F78
:10A368001FD80E460024B4420ED205EBC4035B6826
:10A37800CBB115F8340010F0800F16D1B8B1FEF744
:10A38800DDFCB0B90134EEE70C4B43F8375003EB72
:10A39800C7035E600137084A1760002002E00E20FC
:10A3A80070470420F8BD0E20FCE70B20FAE70F20C9
:10A3B800F8E70F20F6E700BF503A0020543A002093
:10A3C800084B196861B110B501E021463CB10C6831
:10A3D8000B79002BF9D0034804F07DF9F5E710BD9F
:10A3E800704700BF683E002038B5054630B1104BB5
:10A3F8001C68ACB10F4B01221A7004E07846FDF7D7
:10A40800B5FAF4E724683CB12379002BFAD154F863
:10A41800043C28469847F5E7064B1B78022B00D0EA
:10A4280038BDFFF7CDFF034B00221A70F8E700BFD5
:10A43800683E0020643E002010B5044630B1002379
:10A448002372211D034804F01BF910BD7846FDF75F
:10A458008DFAF4E7683E002010B5044650B10A4B67
:10A468001B78013BDBB2012B08D9211D074804F0FA
:10A4780032F910BD7846FDF779FAF0E7024B02226F
:10A488001A7001232372F4E7643E0020683E00201E
:10A498000A8883689B5A07339BB223F0030313444B
:10A4A8009BB20288043A934200D900230B8070477C
:10A4B80010B582B004468368CB1A02A921F8023D80
:10A4C800FFF7E6FFBDF80630A068184402B010BDDB
:10A4D8000088043880B2704743888268D018D15207
:10A4E80001238370704782680023937043808380C0
:10A4F8007047073189B221F0030189B24288838805
:10A508009A4204D29B1A99421CDC0020704710B56D
:10A518009A420FD90488A41AA14215D98B4215D39F
:10A52800032C03D98368134404229A7000234380C0
:10A53800184606E0826813449B784BB9FFF7D3FFAF
:10A54800002010BD042070470020FAE70420F8E737
:10A558000420F6E738B504460D468368828813441C
:10A568008B4202D07846FDF701FA0023AB70211D1B
:10A578002046FFF78DFFA288A36813449B78042B1D
:10A5880000D038BD0023A380FBE710B50C468368D4
:10A59800428813448B4202D07846FDF7E7F900233E
:10A5A800A37010BD70B5064615460C46002944D068
:10A5B800002E46D0B4F1005F08D94FF08053D3F88D
:10A5C8000C3103F50023B4EB832F0ED3B4F5000F41
:10A5D80008D94FF08053D3F80C3103F50053B4EB8E
:10A5E800832F02D37846FDF7C1F96B1E2344B3F1DC
:10A5F800005F08D94FF08052D2F80C2102F50022F2
:10A60800B3EB822F0ED3B3F5000F08D94FF0805269
:10A61800D2F80C2102F50052B3EB822F02D3784610
:10A62800FDF7A4F9042D10D9358000237380B38079
:10A63800B460043D2580A37070BD7846FDF796F997
:10A64800B6E77846FDF792F9B4E77846FDF78EF954
:10A65800EAE738B50446A0B16288A36813449B783A
:10A66800012B12D0EFF3108572B6A388A1681944A4
:10A678008B78032B0DD02046FFF735FF05B962B65E
:10A6880038BD7846FDF772F9E6E77846FDF76EF9CA
:10A69800E8E72046FFF70CFFA368C31A638000238E
:10A6A8008370EBE72DE9F0410E4615460446D0B11C
:10A6B800EEB16288A36813449B78012B1BD025B3A5
:10A6C8002046FFF705FFA84221D3EFF3108872B6A2
:10A6D80029462046FFF70DFF074680B1B8F1000F65
:10A6E80016D162B614E07846FDF740F9E0E77846FF
:10A6F800FDF73CF9DDE77846FDF738F9DFE729464D
:10A708002046FFF7E9FE3060E8E7092700E009275F
:10A718003846BDE8F081F8B50C4616460546E0B166
:10A72800FCB1A378012B20D12388B34221D326B3CF
:10A73800EFF3108772B626800223A370E918284623
:10A74800FFF7A6FE6B88AA88934203D0AA68134431
:10A7580000229A7007B962B6F8BD7846FDF706F987
:10A76800DEE77846FDF702F9DBE77846FDF7FEF805
:10A77800DAE77846FDF7FAF8D9E77846FDF7F6F80C
:10A78800D6E770B50D46044680B19DB1EFF310864B
:10A7980072B6A288A36813449A78042A0ED09A78CD
:10A7A800022A13D0032A18D0052013E07846FDF7B3
:10A7B800DDF8EAE77846FDF7D9F8E7E7211D2046F6
:10A7C800FFF766FEA288A3681344E8E703229A709D
:10A7D8002B60002006B962B670BD7846FDF7C6F852
:10A7E8000020F7E738B5044680B1EFF3108572B65C
:10A7F800A088A16801448B78042B0BD088780228A4
:10A8080014BF0020012005B962B638BD7846FDF7AF
:10A81800ADF8EAE72046FFF74BFE0146EEE738B50C
:10A82800044630B1EFF3108572B6A088A1680144E0
:10A8380007E07846FDF79AF8F4E72046FFF738FE78
:10A8480001468878C31EDBB2012BF6D9022814BF53
:10A858000020012005B962B638BD70B50C46064621
:10A8680078B194B1EFF3108572B6A378012B10D0AC
:10A87800032B13D121463046FFF76CFE05B962B6AB
:10A8880070BD7846FDF772F8EBE77846FDF76EF88D
:10A89800E8E721463046FFF778FEEFE77846FDF710
:10A8A80065F8EBE710B5EFF3108472B6838881681A
:10A8B80019448B78042B06D08878B0FA80F04009C8
:10A8C80004B962B610BDFFF7F3FD0146F4E70000D6
:10A8D80008B5064B986800221A605A609A60DA60D8
:10A8E8001A615A619A6104F0A7FF08BD6C3E002006
:10A8F80000B585B00A4BDB6802228DF80020019371
:10A908004FF480530293074A6946012001F084F905
:10A9180018B1002005B05DF804FB0120FAE700BF7C
:10A928006C3E0020883E002000B585B00A4B1B68AD
:10A9380002228DF8002001934FF480530293074AB6
:10A948006946012001F068F918B1002005B05DF8EA
:10A9580004FB0120FAE700BF8C3E0020883E00205F
:10A96800164BDA68137951795B1A03F57F2303F6DE
:10A97800FF7302EB03339A4205D002F580520F4B66
:10A98800DA600320704700B585B00D4B1B680120C5
:10A998008DF8000001930B4B0393042302930A4A9A
:10A9A800694601F039F918B1002005B05DF804FBDB
:10A9B800024B01221A760220F7E700BF6C3E002006
:10A9C8008C3E0020903E0020883E002000B585B0D7
:10A9D8000C4BDA680C4B1B68043301208DF800001F
:10A9E8000192039340F6FC730293084A694601F00A
:10A9F80013F928B90120034B187605B05DF804FB5C
:10AA08000020FAE76C3E00208C3E0020883E0020A3
:10AA180000B585B00A4B1B6801208DF80000019332
:10AA2800084B039304230293074A694601F0F4F89C
:10AA380018B1002005B05DF804FB0120FAE700BF5B
:10AA48008C3E0020783E0020883E002010B584B05F
:10AA5800104BDA681478104B1B68043301208DF80A
:10AA680000000193039202940C4A694601F0D4F85D
:10AA780070B9094B1B6804F0FC041C440434054BF2
:10AA88005C61D9680A780A441A61012004B010BDD3
:10AA98000020FBE76C3E00208C3E0020883E002012
:10AAA80008B50023092B09D8064A52F82320824208
:10AAB80001D00133F6E7044A536002E07846FCF718
:10AAC80055FF08BD148004006C3E002010B5214BD2
:10AAD800DB6853B11F4B1B7E5BB91E4B5B68092BB0
:10AAE80015D97846FCF742FF11E07846FCF73EFF9F
:10AAF800F0E77846FCF73AFFEFE7164B00225A607A
:10AB0800012C01D0032C23D1124B1B7E03BB114B0C
:10AB18005A68114B53F822309847044602280DD042
:10AB28000328EAD00128EBD10A4A5368013353605D
:10AB3800092BE5D97846FCF719FFE1E7054B1B7EA1
:10AB48001BB1044B02221A70DAE7FFF7C1FED7E700
:10AB580010BD00BF6C3E002014800400104B1B6821
:10AB68001B685A1E12F1030F18D8C3F30B020AB15F
:10AB78000020704710B50B4AD36000231376537634
:10AB88000124147093600848FFF78AFF074920469C
:10AB980001F030F8FFF79AFF204610BD00207047FB
:10ABA8008C3E00206C3E0020F9A80200B9AB0200E0
:10ABB80008B50B78032B06D00B4B1B78012B06D05E
:10ABC800022B0BD008BD084B00221A76F4E7064B7F
:10ABD8001B7E002BF6D1FFF779FFF3E70B78032BE9
:10ABE800F0D1FFF775FEEDE76C3E002000B585B0AB
:10ABF800174BDB6818784FF6FF7203F5805118443D
:10AC080005F082F9F0B10246114BD9680B780B4474
:10AC1800984219D00E4B5B7E93B10E4B01208DF8F4
:10AC2800000001920393042302930B4A694600F043
:10AC3800F3FF58B90120064B187605B05DF804FB00
:10AC4800064BEBE70120F8E70120F6E70020F4E7E0
:10AC58006C3E0020C0820400883E0020BC820400B4
:10AC680008B5104BDB681878002203F580511844AA
:10AC780005F04AF908B1012008BD0A4BDA681379D2
:10AC880051795B1A03F57F2303F6FF7302EB033355
:10AC98009A4205D002F58052024BDA600320EBE7B6
:10ACA8000220E9E76C3E0020F0B585B0544BDE6821
:10ACB80072793379591E8A421AD006F580510D7877
:10ACC8000D4450490968081D0F7907449B1A03F57C
:10ACD8007F2303F6FF731B0303F580531E446B8821
:10ACE800013B9BB247F6FE62934260D92C461AE0BC
:10ACF8000120434B58767EE07846FCF737FE15E096
:10AD080024F47F6424F00F0404F5805423781C4451
:10AD1800A64247D9A54247D26388013B9BB247F672
:10AD2800FE62934211D92388002BE5D0238804EBD7
:10AD3800830323F47F6222F00F029342E0D06288FB
:10AD4800B2F5FE4FDCD01C46E2E725462FE07846F8
:10AD5800FCF70CFE15E024F47F6424F00F0404F5DE
:10AD6800805423781C44A64220D9A5423BD263884C
:10AD7800013B9BB247F6FE62934211D92388002B10
:10AD8800E5D0238804EB830323F47F6222F00F02CB
:10AD98009342E0D06288B2F5FE4FDCD01C46E2E771
:10ADA800254604E0002502E0002500E00025E5B185
:10ADB800144B19686A8801F58051384605F0A4F8E3
:10ADC800074690B101200E4B18768DF800000195CA
:10ADD8000D4B0393042302930C4A694600F01CFFB1
:10ADE80058B92C46CAE70025E1E7B5FA85F56D099B
:10ADF800034B5D76012005B0F0BD0020FBE700BFE6
:10AE08006C3E00208C3E0020B8820400883E002062
:10AE18002DE9F04186B0674B1B692BB1654B5B6927
:10AE280033B14FF0000846E07846FCF79FFDF5E7A0
:10AE38007846FCF79BFDF4E77846FCF797FD15E0AC
:10AE480025F47F6525F00F0505F580552B781D4401
:10AE5800AE421CD9AC421ED26B88013B9BB247F66E
:10AE6800FE62934211D92B88002BE5D02B8805EB85
:10AE7800830323F47F6222F00F029342E0D06A88B2
:10AE8800B2F5FE4FDCD01D46E2E72C4600E0002478
:10AE98001CB100943FE00024FAE700230093019BD3
:10AEA800002B62D14FF00108002C7DD0628847F654
:10AEB800FF739A4278D0B8F1000F79D13D4B5A69A7
:10AEC80022F47F6727F00F07BF1A07F580571C6920
:10AED800DE68337972799B1A03F57F2303F6FF73D3
:10AEE8001B0303F580531E44002301936388013B31
:10AEF8009BB247F6FE629342CBD92546B3E7784624
:10AF0800FCF734FD22E024F47F6424F00F0404F5F8
:10AF1800805423781C44A642C1D92388019A02EBA5
:10AF280083029742BBD9009B634023F47F6323F0DD
:10AF38000F03002BB3D16388013B9BB247F6FE6138
:10AF48008B42ACD801922388002BD8D0238804EBFD
:10AF5800830323F47F6222F00F029342D3D06288E6
:10AF6800B2F5FE4FCFD01C46D5E7124A52690120F0
:10AF78008DF808000392009A059204930E4A02A9DC
:10AF880000F04AFE70B90B49019B23F003024B699C
:10AF980013444B6114B1074B1C6185E77846FCF7F5
:10AFA800E5FCF8E7002000E0012006B0BDE8F081EC
:10AFB8000120FAE76C3E0020883E002008B54FF0DB
:10AFC80010235B69B3F1FF3F03D04FF010235B6997
:10AFD80063B94FF080525169136903FB01F3A3F57C
:10AFE8008053054A1360FFF7B9FD08BD4FF01023E1
:10AFF8005B69A3F58053F2E78C3E002010B5044648
:10B00800B0B1104B1B78CBB10E4BD968E3685879B7
:10B01800A3EB0032914213D31A79121A02F57F2258
:10B0280002F6FF7203EB0233994205D9002006E0CD
:10B038007846FCF79BFCE4E7012000E0002010BD07
:10B048000020FCE76C3E0020024B1878003018BF47
:10B05800012070476C3E002010B504460E4B1B784B
:10B06800ABB92378032B02D07846FCF77FFC0A4B58
:10B078009C60E268DA6000225A601A760120187033
:10B088005A76064900F0B6FDFFF720FD10BD784658
:10B09800FCF76CFCE5E700BF6C3E0020B9AB020092
:10B0A800014B1868704700BF8C3E002010B504465D
:10B0B80080B163681BB123680BB1A36813B97846E4
:10B0C800FCF754FCA3685A1E134207D10023E3601F
:10B0D800236110BD7846FCF749FCEAE77846FCF79F
:10B0E80045FCF3E770B5F0B104468268EAB1EFF3C6
:10B0F800108572B60669C268964210D00846216863
:10B108006268A368013B1E4006FB021108B11BF0F0
:10B118009BFE23690133236165B962B606E03DB938
:10B1280062B6052502E00E2500E00925284670BD17
:10B138000525FBE70025F9E7C0F30B0333BB39B35B
:10B1480001F6FF71090B134B0222C3F80425114BBA
:10B15800D3F80034002BFAD000220AE00D4BC3F8D4
:10B1680008050C4BD3F80034002BFAD000F58050BA
:10B1780001328A42F2D3074B0022C3F80425054B5B
:10B18800D3F80034002BFAD0002070471020704705
:10B198000920704700E0014010F0030F2FD111F093
:10B1A800030F2FD182B312F0030F2FD110B49208DE
:10B1B800174B0124C3F80445154BD3F80034002B72
:10B1C800FAD002E0043004312246541E52B10B6812
:10B1D800B3F1FF3FF6D003600D4BD3F80034002BDA
:10B1E800FAD0EFE70A4B0021C3F80415084BD3F84F
:10B1F8000034002BFAD010465DF8044B704710223B
:10B20800104670471022FBE70922F9E70922F7E701
:10B2180000E001404388012B05D0022B01D1043006
:10B2280008600120704704304860FAE708B5082232
:10B238000221084804F071F938B1074A9168416061
:10B24800127B027204F0A2F908BD044804F0CCFA9B
:10B25800FAE700BF9C3E0020E83E00204C32002068
:10B268000E4B1B78CBB910B50D4B5C6804F5005438
:10B27800B4F1807F00D910BD04220121094804F0EF
:10B288004CF930B14460054A0121117004F07EF98F
:10B29800F1E7054804F0A8FAEDE77047FC3E002006
:10B2A800E83E00209C3E00203C32002010B50446B9
:10B2B80008B1A04710BD7846FCF758FBF9E7000035
:10B2C80008B501210C4804F089F920B902210A487F
:10B2D80004F084F928B1094804F086FAFFF7C0FFA2
:10B2E80008BD074A0023136053609360D36013615D
:10B2F800044A1370F2E700BF9C3E00206C32002025
:10B30800E83E0020C03E002000B58DB00B4B1B7BF3
:10B31800012B0ED0094A926804928DF808300390E8
:10B328000CA8022300F82C3DFFF75EF80DB05DF87D
:10B3380004FB024A9268013A0492EEE7E83E0020D4
:10B3480010B58CB00C4682B94B88012B20D1134B19
:10B358001B7833B16268124B5A60104B00221A7086
:10B3680016E07846FCF702FBF4E7032A12D12C22F8
:10B37800002101A81BF091FD11238DF804300394DE
:10B38800084BDA6805921B69069301A8FFF72CF8A9
:10B398000CB010BD7846FCF7E9FAE8E7FC3E00205F
:10B3A800E83E00209C3E002000B583B001F0A4FFD9
:10B3B8000021009101916B46144A154803F0A2FF41
:10B3C800009BBBB1019AAAB1186812498860187924
:10B3D8000873934201D91B79A3B112680D4B1A6007
:10B3E8000C4B1A685A60FFF73BFF01F0C9FF03B026
:10B3F8005DF804FB074B00221A609A601A73FFF786
:10B4080015FFEDE700220A60EAE700BF1DB202005F
:10B418009C3E0020E83E002008B504F03FFAA0F565
:10B42800805008BD00B587B00023009301930293B4
:10B43800039304930593FFF7EFFF00900123019313
:10B44800064B03936946064804F07FF910B907B024
:10B458005DF804FB034804F0C7F9F8E749B30200B4
:10B468009C3E00205C32002010B50B4B00241C6071
:10B478005C609C60DC601C6101F0BCF9074B5860A3
:10B48800074A9A60074ADA601C615C61064B1C70C7
:10B49800FFF7C8FF10BD00BFE83E0020C43E0020F3
:10B4A800E1B5020000879303FD3E002008B5084B74
:10B4B8001B7803B108BD0748074B036000F062FE24
:10B4C800064801F02FF9024B01221A70F2E700BF7B
:10B4D800983E0020DC3E002009B70200C43E002050
:10B4E80010B501F009FF164B1B7BFBB9144B9B7B76
:10B4F8000BBB134B1A8A41F282639A4204D8114B50
:10B508001B788BB1012300E00123B3B10C4B01225E
:10B518001A7300241C829A6801329A60FFF786FE2B
:10B528002046FFF7F1FE02E00023EEE7082401F0D1
:10B5380027FF204610BD0824F9E70824F7E700BFD5
:10B54800E83E0020FD3E002010B501F0D5FE204B5E
:10B558005B7B9BB11E4B9B7BF3B91D4B1A8A41F257
:10B5680082639A4204D81B4B1B782BB1012300E05D
:10B5780001239BB1012302E00023FAE700231C46C4
:10B588000BB3134B00225A731B7B4BB1012B0ED00C
:10B598007846FCF7EBF916E00023F0E70023EEE726
:10B5A800FFF79EFF78B17846FCF7E0F90BE0084B0F
:10B5B80000201860586018731882FFF7A5FEFFF77F
:10B5C80035FEFFF74DFE01F0DBFE204610BD00BF43
:10B5D800E83E0020FD3E002008B5214B1B7B7BB1D7
:10B5E800012B20D07846FCF7C1F91D4A138A013394
:10B5F80013821B4B5B8A13B1013B194A538208BD66
:10B60800174B1A8A41F282639A4204D8154B1B7869
:10B618003BB1012300E00123002BE6D0FFF794FFA4
:10B62800E7E70023F8E70E4B1B8A41F28262934258
:10B6380004D80C4A127872B1012200E00122002AD3
:10B64800D3D042F2B012934207D9054B01225A7364
:10B65800FFF77AFFCDE70022F1E7FFF775FFC4E7B0
:10B66800E83E0020FD3E002010B5244B1B7B002B3C
:10B6780035D10446214B5B8A2BBB1AB91F4B9B68FB
:10B688008B4205D3FAB11D4B9B6801338B421AD20A
:10B698001A4B9B682A338B4223D3184B9B7B03BBE3
:10B6A800164B996000221A605A601A8242F60651B7
:10B6B80059825A731A73FFF7B9FDFFF7D1FD204677
:10B6C800FFF722FE0DE062B10C4B9B6801338B4201
:10B6D80007D10A4B01225A73FFF736FF01E0012B0D
:10B6E80000D010BD002AFCD1044B9B688B42F8D1D6
:10B6F800024B01225A73FFF727FFF2E7E83E0020CA
:10B7080010B50378042B02D0162B11D010BD426857
:10B718001278002AF8D08468027E437E012A14BF7A
:10B7280000220122416904F11000FFF79DFFEDE7B7
:10B73800037A427AC1680020FFF796FFE6E7000027
:10B7480010B5184B1A685B689A4225D20446154B07
:10B758001B7B012B13D0144B9A4212D2114B1A683F
:10B768005B68403B9A4214D2EFF3108072B60D4AE0
:10B778001368591C1160236090B962B610BD0B4B59
:10B78800EAE7084B01225A73FFF7DEFE0028EBD1E7
:10B79800E4E7FFF765FDE7E7FFF762FD0F20EDE758
:10B7A8000020EBE7E83E0020FFFF7F0000E0FF00FD
:10B7B80008B568B90C4B1B6893B10B4A1368013B79
:10B7C800136063B9094B00229A73FFF7BDFE06E0C8
:10B7D800064B01229A73044A13680133136008BDAB
:10B7E8007846FCF7C3F8E8E7943E0020E83E0020DE
:10B7F80000B58DB0ADF808008DF8102003910CA8A5
:10B80800032300F82C3DFEF7EFFD0DB05DF804FBB7
:10B81800014B9868704700BFE83E0020054B1B7B32
:10B82800012B02D0034B98687047024B9868013887
:10B83800704700BFE83E0020044B9B68584010F05A
:10B84800010F00D0013B1846704700BFE83E0020BA
:10B85800014B187B704700BFE83E002038B50B4B02
:10B868001B788BB9094B01221A70094DA8602973FE
:10B87800FFF7DCFC0020FFF747FD00242C606C601C
:10B88800FFF7EEFC204638BD0820FCE7C03E00204C
:10B89800E83E00202DE9F041002724E02449BC239C
:10B8A80003FB04F3CA5A0132CA520221284602F0A5
:10B8B8002AFD01360221284602F0F5FC80B11C4A17
:10B8C800BC2303FB0423D3F80880B8F1000FE5D0AC
:10B8D800BC2303FB04F3D25A01463846C047DDE7D0
:10B8E8008EB90137FFB2022F1FD83C46BC2303FB99
:10B8F80007F308330E4D1D4404350221284602F093
:10B90800D2FC0026DAE70021284602F064FD082868
:10B91800E7D1074BBC2202FB0434A368002BE0D01C
:10B928000022044938469847DBE70120BDE8F0814A
:10B93800083F00203C80040008B5082383731023C7
:10B94800437300F11C0343610323037300F11803DD
:10B9580003610C3002F011FD08BD000008B5037842
:10B96800012B06D0022B06D07846FBF7FFFF0020FC
:10B9780000E0292008BD0148FCE700BF084C010091
:10B9880008B50278012A07D0022A13D07846FBF7B7
:10B99800EDFF4FF4FA7308E083685B1A9B0803EB2A
:10B9A800830003EBC00303F5FA730748984228BFE6
:10B9B800184608BD83685B1A180B044B03FB00F399
:10B9C80003F5FA73F1E700BF60850100084C010038
:10B9D80038B5044601210C3002F065FC054678B103
:10B9E800084BC4F89C300023C4F8A0306168FFF706
:10B9F800C7FFC4F8A800C4F8AC40012384F8B830E5
:10BA0800284638BD2DBB020010B50446FFF7E0FFFD
:10BA180020B104F19C000FF0C1FB00B910BD7846BD
:10BA2800FBF7A4FFFAE70000F8B506460C461746F0
:10BA380015680378012B18D11249A1FB0431490973
:10BA48008900B468641B8C4200D30C468CB17068C2
:10BA580025F00305F168224629442844FFF79CFB9A
:10BA680058B93B681C443C60F8BD7846FBF77EFF3C
:10BA7800E2E77846FBF77AFFE9E77846FBF776FFD7
:10BA8800EFE700BF7D0CCEC7F8B507460C46164653
:10BA980015680378022B16D1114BA3FB04231B0C4A
:10BAA8001B03BC68641B9C4200D31C467CB17868AD
:10BAB80025F0030521462844FFF73EFB58B93368B3
:10BAC8001C443460F8BD7846FBF750FFE4E778463D
