:020000022000DC
:1060000000F0032071630200596302005B63020029
:106010005D6302005F630200616302000000000034
:1060200000000000000000000000000063630200A8
:1060300065630200000000006763020069630200FC
:106040006B6302006B6302006B6302006B63020010
:106050006B6302006B630200E17402006B63020079
:106060006B6302006B63020015B503006B630200F3
:106070006B6302006B6302006B6302006B630200E0
:106080006B630200C94E040099DA02006B630200E0
:106090002D4F04006B630200B1E503006B63020047
:1060A0006B6302006B6302006B6302006B630200B0
:1060B0006B6302006B630200000000000000000040
:1060C0006B6302006B6302006B6302006B63020090
:1060D0006B6302006B6302006B6302006B63020080
:1060E0006B6302006B6302006B6302000000000040
:1060F000000000006B630200000000006B63020000
:10610000000000000000000000000000000000008F
:10611000000000000000000000000000000000007F
:10612000000000000000000000000000000000006F
:10613000000000000000000000000000000000005F
:10614000000000000000000000000000000000004F
:10615000000000000000000000000000000000003F
:10616000000000000000000000000000000000002F
:10617000000000000000000000000000000000001F
:10618000000000000000000000000000000000000F
:1061900000000000000000000000000000000000FF
:1061A00000000000000000000000000000000000EF
:1061B00000000000000000000000000000000000DF
:1061C00000000000000000000000000000000000CF
:1061D00000000000000000000000000000000000BF
:1061E00000000000000000000000000000000000AF
:1061F000000000000000000000000000000000009F
:10620000354936480A1A02D0072291438D4634494F
:1062100034480A1A06D00722914381F309880222E2
:1062200082F3148830483149314A00F043F831484C
:106230003149324A00F03EF831483249324A00F0E2
:1062400039F832483249334A00F034F83248334999
:10625000334A00F02FF833483349344A00F02AF823
:1062600033483449344A00F025F834483449002290
:1062700000F02BF833483449002200F026F8334868
:106280003349091A082903DB002202600430016047
:106290001F482049884205D00268043003B4904763
:1062A00003BCF7E700208646EC4600200021294A7F
:1062B0009047FEE7884207D0521A05D00378013094
:1062C0000B700131013AF9D17047884202D0027057
:1062D0000130FAE77047000000F0032000E80320D7
:1062E00000F0032000F0032088A50400A02D00206A
:1062F000042F0020A8630200A8630200C4750400F4
:1063000088A50400A02D0020A02D002010770400F7
:106310001077040010770400107704001077040051
:1063200010770400107704001077040088A504009B
:10633000ECA60400042F0020042F0020042F0020CE
:10634000216D0020246D0020246D0020246D00208C
:1063500024710020B16C0200FEE7FEE7FEE7FEE7D5
:10636000FEE7FEE7FEE7FEE7FEE7FEE7704700BF59
:106370000948804709484FF0070188438546084887
:1063800080470848016841F470010160BFF34F8FF6
:10639000BFF36F8FFFF734BF6D63020000F003207F
:0863A000ADE9030088ED00E007
:1063A8003FDF704741DF704700B587B03F4B1B6840
:1063B80013F4804F03D03E4B1B68032B35DC9DF84C
:1063C8001430042262F306138DF81430072001F00C
:1063D80067FE384B53F820209DF8143062F383038E
:1063E800022262F301038DF81430052001F058FEF3
:1063F800314B53F820300493062001F051FE2F4B07
:1064080053F8203006AA42F80C3D4FF47A7307CAB5
:106418000BF0E0FF07282FD0082811D048B340B36D
:10642800274AB62118F0B6FB23E0264BD3F80435EB
:10643800254A009299222549042008F047FCBEE726
:106448001A4B1B6813F4804F0DD0194B1B68002B97
:1064580009DD1C4BD3F804351D4A0092A8221B49BC
:10646800012008F033FC062232214FF4F03000F00E
:10647800A5FF07B05DF804FB0C4B1B6813F4804FB5
:106488000DD00B4B1B68002B09DD0E4BD3F80435E0
:10649800104A0092AF220D49012008F017FC06228D
:1064A80032214FF4F03000F089FFE2E7542E00204B
:1064B800502E0020687704004877040028770400ED
:1064C800E079040000100140587A04004F7A040073
:1064D8008C7A0400B07A040000B583B01D4B1B68A9
:1064E80013F4804F03D01C4B1B68032B20DC0CF0EB
:1064F80075F8D0B1082826D1164B1B6813F4804FC5
:106508000DD0154B1B68002B09DD144BD3F804354F
:10651800134A0092C4221349012008F0D7FB06222F
:1065280032214FF4F03000F049FF03B05DF804FB6E
:106538000A4BD3F804350C4A0092BC2209490420BE
:1065480008F0C4FBD3E70028EFD0084ACB2118F0A5
:1065580021FBEAE7542E0020502E002000100140B5
:10656800A47B04004F7A0400807B0400E0790400D7
:1065780000B583B00F4B1B6813F4804F03D00E4B4C
:106588001B68032B0ADC0322C8214FF4F03000F00B
:1065980015FF0CF019FF03B05DF804FB074BD3F8A7
:1065A8000435074A009255220649042008F08EFB5C
:1065B800E9E700BF542E0020502E002000100140B3
:1065C800047B04004F7A04002DE9F04F8DB00328B6
:1065D80041D8DFE800F002375CB77C4B1B6813F446
:1065E800804F03D07A4B1B68032B17DC042001F083
:1065F80057FDF0B9754B1B6813F4804F2BD0744BC3
:106608001B68032B27DD734BD3F80435724A0092BD
:10661800E1227249042008F059FB1CE06D4BD3F8C5
:1066280004356F4A0092D8226C49042008F04EFBCA
:10663800DCE70BF0C9FE10B9FFF7B6FE0BE0FFF779
:106648004BFF08E0614B1B6813F4804F03D0604B8D
:106658001B68032B10DC634A1378013313705B4B00
:106668001B6813F4804F04D0594B1B68032B00F3AD
:106678009E800DB0BDE8F08F564BD3F804355A4ACA
:106688000092EA225549042008F020FBE3E74F4B2B
:106698001B6813F4804F03D04D4B1B68032B46DC5B
:1066A8004A4B1B6813F4804FD5D0494B1B68032B0A
:1066B800D1DD484BD3F80445002001F0F1FC054634
:1066C800012001F0EDFC0646022001F0E9FC074636
:1066D800032001F0E5FC8046042001F0E1FC81463E
:1066E800052001F0DDFC414B53F820A0062001F005
:1066F800D7FC3F4B53F820B0072001F0D1FC3D4BAD
:1067080053F820300893CDF81CB0CDF818A0CDF878
:106718001490CDF81080039702960195364B00939C
:106728002346F5222D49042008F0D0FA93E7294B97
:10673800D3F80435314A0092F1222849042008F0A0
:10674800C5FAADE7214B1B6813F4804F03D0204BEB
:106758001B68032B19DC0CF0D1FD08BB1B4B1B6815
:1067680013F4804F3FF477AF194B1B68032B7FF767
:1067780072AF184BD3F80435214A00924FF4827255
:106788001649042008F0A2FA65E7124BD3F804353D
:106798001C4A0092FB221149042008F097FADAE714
:1067A8000EF06AFA0CF0A0FDFFF7E2FE53E7094B82
:1067B800D3F804359DF82C200192134A00924FF427
:1067C80088720649042008F081FA52E7542E002006
:1067D800502E002000100140787804004F7A040001
:1067E80060780400052F00208478040048770400AE
:1067F8002877040068770400B47804009C780400C3
:106808005C79040044790400947904003038042841
:1068180000D9704708B5FFF7D7FE08BD08B503785B
:106828001C2B00D008BDFFF7A3FEFBE700B58BB01B
:106838002022002101A820F05CFE01238DF80430FD
:1068480007238DF8073006238DF80C300C4B059381
:106858000C4B09930C4901A80CF05EFD30B90420DB
:1068680001F01EFC40B90BB05DF804FB074A4FF479
:10687800D67118F08FF9F2E7054805F0E7FEF2E760
:1068880025680200096B0200042F0020E07904004B
:10689800A02D002000B583B0254A05214FF4103003
:1068A80008F0F8F9234B1B6813F4804F03D0224BF0
:1068B8001B68032B1BDC1EF039FB20BB00F0C0FD5E
:1068C8001E4800F0DDFD20BB00F0A6FF00F0C2FF6F
:1068D80000F0EEFFFFF7AAFF0120FFF761FDF0B916
:1068E800042001F0DDFB00BB03B05DF804FB144B92
:1068F800D3F80435134A00924FF4DB72124904208E
:1069080008F0E4F9D7E7114A4FF4DC7118F042F9BE
:10691800D4E70E4A4FF4DE7118F03CF9D4E70B4A7D
:1069280040F2C71118F036F9DAE70BF02BFDDBE778
:1069380071EC0200542E0020502E0020D165020078
:1069480000100140B07904004F7A0400E079040097
:1069580010B584B00378153B052B72D8DFE803F037
:106968000371624D7F9B041D5A4B1B6813F4804FC3
:1069780003D0594B1B68032B0EDC20460BF08AFD15
:106988000E2833D8DFE800F05D3232323232321668
:106998001632323232321600504BD3F80435828820
:1069A80001924F4A009240F257124E49042008F0D3
:1069B8008DF9E2E7474B1B6813F4804F0FD0464B25
:1069C8001B68002B0BDD454BD3F804350190464A74
:1069D800009240F263124349012008F077F9062239
:1069E80032214FF4F03000F0E9FC2AE048B33F4A86
:1069F80040F26B1118F0CEF823E0364B1B6813F405
:106A0800804F1ED0344B1B68032B1ADD334BD3F851
:106A18000435374A009240F273123249042008F0D4
:106A280055F90EE02B4B1B6813F4804F03D02A4B0B
:106A38001B68032B07DC062232214FF4F03000F0EC
:106A4800BDFC04B010BD254BD3F80435294A00928B
:106A580040F277122349042008F038F9EBE71D4B80
:106A68001B6813F4804F03D01B4B1B68032B04DCFB
:106A780001210E2000F086FCE3E7184BD3F804351B
:106A8800028901921C4A00924FF4C27215490420EF
:106A980008F01CF9ECE70F4B1B6813F4804F03D088
:106AA8000D4B1B68032B04DC00210E2000F06AFC50
:106AB800C7E70A4BD3F804350289817A029101921B
:106AC8000E4A00924FF4C9720649042008F0FEF8F5
:106AD800EAE700BF542E0020502E0020001001408D
:106AE800887704004F7A0400AC770400E07904004A
:106AF800CC770400EC7704000878040030780400B0
:106B080000B583B00C4B1B6813F4804F03D00B4BBC
:106B18001B68032B04DC01F0EFFA03B05DF804FBFB
:106B2800074BD3F80435074A00924FF4D072064950
:106B3800042008F0CBF8EEE7542E0020502E002059
:106B480000100140E47A04004F7A040030B587B0A1
:106B58006421194800F0A4FB184B1B789BB102F084
:106B680005FA00F0EFFC0CF01FFCF8B900214FF417
:106B7800F03000F018FC0222C8214FF4F03000F089
:106B88001DFC07B030BD6C460D4D0FCD0FC495E808
:106B9800030084E80300684600F020FB0028DED0EC
:106BA800084A40F2DB1117F0F5FFD8E7054A4FF421
:106BB800F07117F0EFFFD9E715680200042F0020E5
:106BC80010770400E079040010B5044600214FF462
:106BD800F03000F0E8FB4FF4FA7202FB04F2054BC8
:106BE80083FB0232121132214FF4C03000F0E6FB71
:106BF80010BD00BF1F85EB5108B500F013FC08BDA0
:106C080000B585B0224B1B6813F4804F03D0214B8D
:106C18001B68032B21DC00F01DFE00F049FE03A8D1
:106C280012F010FB1A4B1B6813F4804F03D0194B5A
:106C38001B68032B1DDCFFF7B7FB00F0F3FB0021FB
:106C48004FF4F03000F0AFFB0422C8214FF4F030CD
:106C580000F0B4FB05B05DF804FB0F4BD3F8043526
:106C68000E4A009240F239120D49042008F02EF81D
:106C7800D1E7094BD3F80435BDF80C200192094A35
:106C8800009240F245120649042008F01FF8D2E7A6
:106C9800542E0020502E002000100140207B0400BC
:106CA8004F7A04003C7B040008B5FFF7F3FDFFF7BB
:106CB8004DFFF1EE103A23F09F03E1EE103AF1EEAA
:106CC800103A034B4022C3F88421FFF76BFBF0E72F
:106CD80000E100E030B583B0044615461C4B1B6844
:106CE80013F4804F03D01B4B1B68032B11DCA36BE1
:106CF80004F13C012046984794F83C302B7094F8F6
:106D08003D306B70236C0BB1626C6AB16B6003B081
:106D180030BD114BD3F80435104A00929622104921
:106D2800042007F0D3FFE2E71EF082F9A16C1EF001
:106D380085F94FF47A7303FB00F0C00B236C834290
:106D480003D310B1181A6860E1E700236B60DEE72F
:106D5800542E0020502E002000100140307C0400EA
:106D6800237C040010B588B00446436CE3B9036C77
:106D780013B190F83D20BAB194F83D2084F83C2036
:106D88008DF818208DF81920079306A920461DF0C4
:106D98000FFC94F84C303BB9636B94F83C102046D8
:106DA8009847012384F84C300F4B1B6813F4804F2D
:106DB80003D00E4B1B68042B01DC08B010BD0C4B34
:106DC800D3F8043594F83C2094F83D10206C0490D6
:106DD800606C039002910192064A00927222064961
:106DE800052007F073FFE8E7542E0020502E0020FE
:106DF80000100140747C0400237C0400F0B583B0CB
:106E08000446036B18681EF0FDF8636C8BBB236C9B
:106E18006BB35E0CDD034FF47A72002315F5FA703C
:106E280046F1000120F0C4F9B0F1807F35D2042882
:106E38003CD9236B2246014618681EF0C5F8054662
:106E48001EF0F6F8A06495B11C4B1B6813F4804F34
:106E58000DD01B4B1B68002B09DD1A4BD3F80435EA
:106E6800194A009255221949012007F02FFF03B053
:106E7800F0BD226B15685F0CDE034FF47A720023B5
:106E880016F5FA7047F1000120F092F92246014602
:106E980028461EF099F80546D5E7236B22466FF081
:106EA8007F4118681EF090F80546C9E7236B224613
:106EB800052118681EF088F80546C1E7542E002001
:106EC800502E002000100140547C0400237C040054
:106ED800F0B583B0044617461E46089D1A4B1B683A
:106EE80013F4804F03D0194B1B68032B1BDC0023C2
:106EF80084F84C303B7884F83D300EB37368636493
:106F0800336823642046FFF72DFF2046FFF776FFFE
:106F18003DB194F83C302B7094F83D306B70236C85
:106F28006B6003B0F0BD0A4BD3F8043512780192B8
:106F3800084A0092B8220849042007F0C7FED6E79D
:106F4800002363642364DDE7542E0020502E0020C4
:106F5800001001403C7C0400237C04002DE93048EB
:106F68000446436CABB9056CBDB14FEA554C4FEACA
:106F7800C53B4FF47A7200231BF5FA704CF10001FF
:106F880020F016F9B0F1807F0CD3A5F2FF15256427
:106F980003E000234364FFF7E5FE2046FFF72EFFDA
:106FA800BDE83088002323642046FFF7DBFEF4E7C2
:106FB800A0B110B504460D4AC262426B8AB1826B19
:106FC8008AB11DF0BFFA034608B1184610BD084A39
:106FD8000021206B1DF0E2FF0346F6E70E2318465A
:106FE80070470E23F1E70E23EFE700BF4C7C040047
:106FF800656F02002C4B1B78002B54D000B585B070
:10700800012804D0032847D005B05DF804FB04A983
:10701800002341F8083D012017F072F948BB02A887
:1070280017F0C0F940BB04A9012341F8043D0DF154
:10703800060012F07EFF10BBBDF8060012F0F4FA4D
:107048000DF1050112F096FCE0B90DF087FB9DF8F3
:10705800051000200DF052FEB8B905F093FAC0B93A
:10706800114B00221A70114B1B68002BCCD098478B
:10707800CAE717F081FDD2E717F07EFDD3E717F0D6
:107088007BFDD9E717F078FDDFE7784600F0F0FCE4
:10709800E3E717F071FDE3E717F0FAF90028B3D03A
:1070A80017F06AFDB0E77047082F00200C2F00206A
:1070B80008B5064B01221A70054805F0C7FA05F015
:1070C800A7FA00B908BD17F057FDFBE7082F002005
:1070D800AC2D002008B503781C2B00D008BD074B49
:1070E8001B78002BFAD017F017FA18B9044805F0E6
:1070F800B1FAF3E717F040FDF8E700BF082F0020CA
:10710800AC2D002008B50849084818F0D5F9034601
:1071180008B1184608BD0323002205490969054836
:1071280018F0E6F90346F4E7242F002090320020F7
:107138000C2F00205C31002008B50378023B082B97
:107148003FD8DFE803F01C05113E3E2C3E3E3600DA
:107158001E4B5B68002B34D0007A002831D01C4AC3
:107168000121117098472CE0184B9B684BB3184AC3
:10717800127832B3164A00211170984721E0154B56
:107188001B784BB9114BDB681BB1114A00211170F8
:107198009847FFF7B7FF14E0FFF78AFF11E01022C6
:1071A8000A4B59690C4818F02DFA50B117F0E4FC55
:1071B80007E08168C0680CF037F818B9054B012260
:1071C8001A7008BD17F0D8FCF8E700BF0C2F002094
:1071D800062F0020072F00205C31002070B586B0F4
:1071E80004461F4A03AB07CA03C323F8022B120C39
:1071F8001A701C4E35460FCC0FC594E8030085E87D
:107208000300736953B3184B009303AB174A18492B
:10721800184818F00DF9034610B1184606B070BDAD
:10722800154819F0C5FD0146124818F02DF9034616
:107238000028F2D1114819F07DFF03460028ECD14F
:107248000E4819F0ADFF01460A4818F01DF903462B
:107258000028E2D1FFF756FF0346DEE70723DCE705
:10726800B87C04000C2F002041710200242F00205C
:10727800903200205C310020442F00200C31002087
:1072880008B5064B1B683BB115F0D2FA002803DBA2
:10729800024B1B689847F7E708BD00BFD0320020B3
:1072A80010B50C46144B1860144A012114481DF0FF
:1072B80075FEA0B9610CE00341F26F7200238B42A6
:1072C80008BF824210D24FF47A7200231FF070FF79
:1072D800014600220B481DF077FE38B910BD0A4A56
:1072E8004A2117F057FCE5E70521F2E7064A4B214A
:1072F80017F050FCF2E700BFD0320020897202007C
:10730800C47C0400D4320020C87C040008B5134BA8
:107318001B6873B14FF0A042D2F8043510490968D0
:107328004B40C2F804350D4A1368013B136023B182
:1073380008BD002017F020FCECE70A481DF062FEAB
:107348004FF0A042D2F804350549096823EA010341
:10735800054909680B43C2F80435E9E7F43200200F
:10736800F8320020FC320020243300204FF0A043E4
:10737800D3F80425012303FA00F002420CBF184693
:107388000020704739B9012303FA00F04FF0A043F9
:10739800C3F808057047012303FA00F04FF0A04333
:1073A800C3F80C05704721B94FF0A043C3F808058E
:1073B80070474FF0A043C3F80C05704712B113464D
:1073C800132900D8704770B5124A10605B00013B62
:1073D800114A13604FF0A043D3F8043518400F4BFF
:1073E800186000264D0CCC034FF47A72002314F574
:1073F800FA7045F100011FF0DBFE324601460848ED
:107408001DF0E2FD28B9034B1A684FF0A043C3F8FA
:107418000C2570BDF8320020F432002024330020FF
:10742800FC32002008B504481DF0ECFD0021034B98
:107438001868FFF7B8FF08BDFC320020F8320020BA
:1074480008B50D230BE04FF0A04103F5E0720320CF
:1074580041F8220001229A40C1F808250133102B77
:10746800F1D9054A012105481DF098FD00B908BD6C
:1074780017F082FBFBE700BF15730200347D0400A0
:10748800F0B1104A1060002309E00F4AD25C02F5FF
:10749800E0724FF0A0410D4841F822000133032B60
:1074A800F3D90B4B4FF00042C3F804230020C3F874
:1074B8007C01084BC02283F8062340221A607047DB
:1074C8000E2070471C330020387D04000C00030098
:1074D8000060004000E100E010B50024144BC3F840
:1074E8007C410EE043F23333994208D9114BD3F86B
:1074F8000425114B1A60114B1B682046984701342C
:10750800E4B2032C12D84FF0A043D3F810250C4B4B
:10751800195D01238B409343F1D0074B1B68054A43
:10752800D2F80425991ADDD5D11ADBE710BD00BFC2
:107538000060004000100140203300201C33002070
:10754800387D0400002869D02DE9F043CFB0064605
:10755800334B1B6813F4804F03D0324B1B68032B4B
:1075680031DC2F4B1B6813F4804F03D02D4B1B6865
:10757800032B2ADC4FB0BDE8F083F25C2A490D6882
:1075880010095900285C0DAC04F8130002F00F0232
:107598000131AA5C625401330F2BEED90DAA0023E6
:1075A8008DF8543003F1804303F58833D3F804355C
:1075B80002921E4A01921E4A009241221D4904204D
:1075C80007F084FBCDE70023E6E71B4BD3F804352F
:1075D800B288F188307A747AB57AF77A96F80CC05E
:1075E80096F80DE096F80E8096F80F90CDF82C904E
:1075F800CDF82880CDF824E0CDF820C0079706956F
:107608000594049003910292326801920B4A009209
:1076180046220849042007F059FBABE7704700BF32
:10762800542E0020502E0020582E0020AC7D04003F
:10763800C07D04009B7D040000100140C87D04004B
:1076480072DF704773DF704774DF70472DE9F047CA
:10765800A2B0074688469146314C0026C4F8066019
:10766800E68130490B78C3EB43102F4D0544256064
:107678002E4A0244A2601F22A280A281013303F095
:1076880001030B704FF03C0A5246314613A81FF015
:1076980030FF06238DF84F30ADF8487001238DF880
:1076A8004A30ADF85C3012AA1892ADF83C70ADF8CB
:1076B8004090CDF844800DEB0A021D928DF8783089
:1076C8005246314668461FF014FF02238DF80030F9
:1076D800221D294613A816F008FD90B9104B03F196
:1076E8000C029968684616F000FD68B9104A0C4902
:1076F8001048FFF7A5FF082809D070B922B0BDE8E7
:10770800F08717F039FAE9E717F036FAEEE70022C2
:1077180003490848FFF794FFEFE717F02DFAEDE764
:107728006C330020283300202C3300207C330020C9
:10773800BC2D0020B82D0020B0F5202F0AD2074B11
:10774800A3FB0023DB0808B103B90123044A938192
:10775800916070474FF6FF73F5E700BFCDCCCCCCF6
:10776800BC2D002008B50121054B1878FFF76AFFEA
:1077780018B9002005F096FE08BD17F0FDF9F8E7E6
:10778800B82D002008B5044B1878FFF75DFF00B945
:1077980008BD17F0F1F9FBE7B82D002076DF704738
:1077A8007ADF70477CDF704708B517F0E5F908BD48
:1077B80008B504F053FF08BD00B583B0037823B1C2
:1077C800012B0BD003B05DF804FB3B214088FFF789
:1077D800E5FF0028F6D017F0CFF9F3E7094B1B684F
:1077E80013F4804FEED0084B1B68032BEADD074BE0
:1077F800D3F80435064A009268220649042007F0A7
:1078080065FADFE7542E0020502E002000100140BA
:10781800907E0400777E040000B583B016F038FE31
:1078280070B902A9002341F8043D012016F068FD53
:1078380048B901A816F0B6FD40B903B05DF804FBDD
:1078480017F09AF9EDE717F097F9F2E717F094F9BE
:10785800F3E7000000B585B09DF80C30012262F313
:10786800030362F3071304A800F8043D0F220F492D
:10787800FFF798FF98B90023ADF808307823ADF8E2
:107888000430C823ADF806304FF4C873ADF80A3099
:1078980001A8FFF785FF28B905B05DF804FB17F0CC
:1078A8006BF9E8E717F068F9F6E700BF087E04000F
:1078B80000B58BB00023ADF808307822ADF804206D
:1078C800C822ADF806204FF4C872ADF80A20069316
:1078D800079301AB039340F6CD4304934FF48033F1
:1078E800059303238DF81830064B0893064B09932C
:1078F80003A816F0B5FF10B90BB05DF804FB17F03C
:107908003BF9F9E7C1770200B1770200062070471A
:1079180000B587B041F20103984247D020D944F21C
:107928000103984258D044F2020398426FD1464B63
:107938001B6813F4804F1ED0444B1B68002B1ADDC4
:10794800434BD3F804351088039052680292019192
:10795800404A00926C224049012007F0B7F90AE03A
:10796800012854D1384B1B6813F4804F03D0374B90
:107978001B68002B0DDC4FF0A0434FF4F032C3F826
:107988001825C3F80C25EFF3108372B64DF6AD6CCD
:1079980053E02F4BD3F80435029201912F4A0092FD
:1079A80060222D49012007F091F9E4E7264B1B6876
:1079B80013F4804FDFD0254B1B68002BDBDD244BF5
:1079C800D3F8043502920191254A00926322224994
:1079D800012007F07BF9CEE71B4B1B6813F4804F9F
:1079E800C9D01A4B1B68002BC5DD194BD3F80435D9
:1079F8001068049050680390029192680192194AA5
:107A0800009277221449012007F060F9B3E70E4B82
:107A18001B6813F4804FAED00C4B1B68002BAADDFB
:107A28000B4BD3F8043501910F4A00927B220A4987
:107A3800012007F04BF99EE730BF0C4B1B78002B59
:107A4800FAD107B05DF804FB542E0020502E002018
:107A5800001001406C7F04001B7F04002C7F040091
:107A6800487F04008C7F0400B07F0400D42D0020E0
:107A780000B583B00023ADF80030054B01936A468A
:107A8800014644F20200FFF743FF03B05DF804FB30
:107A98008078040001230B60704702230B60704755
:107AA80003230B60704704230B60704710B50C4626
:107AB80001F024FA206010BD0C4B1B6813F4804FB2
:107AC80012D00B4B1B68012B0EDD00B583B0094BA0
:107AD800D3F80435084A0092EE220849022007F03C
:107AE800F5F803B05DF804FB704700BF542E002082
:107AF800502E002000100140AC8004009B80040040
:107B080010B586B05068E8B11B4B1B6813F4804F62
:107B180003D01A4B1B68032B01DC06B010BD184BB1
:107B2800D3F8043549881478527804900392029463
:107B38000191144A00924FF489721349042007F006
:107B4800C5F8EAE70C4B1B6813F4804FE5D00B4BE4
:107B58001B68032BE1DD0A4BD3F8043549881278FA
:107B680002920191094A009240F215120649042036
:107B780007F0ACF8D1E700BF542E0020502E0020AB
:107B880000100140B08104009B80040004820400BE
:107B98000C4B1B6813F4804F13D00B4B1B68012B45
:107BA8000FDD00B583B0094BD3F80435084A0092BD
:107BB80040F22B120749022007F088F803B05DF85D
:107BC80004FB7047542E0020502E00200010014066
:107BD800AC8004009B80040000B587B09068F0B1C9
:107BE8001B4B1B6813F4804F03D01A4B1B68032BE5
:107BF80002DC07B05DF804FB174BD3F8043549885D
:107C0800049050680390126802920191134A0092FE
:107C180040F24F121249042007F058F8E9E70C4BDC
:107C28001B6813F4804FE4D00A4B1B68032BE0DD7C
:107C3800094BD3F804354988126802920191094A20
:107C480000924FF4A9720649042007F03FF8D0E7E4
:107C5800542E0020502E00200010014030810400D6
:107C68009B800400848104000C4B1B6813F4804F34
:107C780003D00B4B1B68032B00DC704700B583B0A7
:107C8800084BD3F804350191074A0092C5220749E9
:107C9800042007F01BF803B05DF804FB542E002005
:107CA800502E002000100140308204009B80040008
:107CB8000C4B1B6813F4804F03D00B4B1B68032B32
:107CC80000DC704700B583B0084BD3F80435019148
:107CD800074A0092C0220749042006F0F7FF03B0C4
:107CE8005DF804FB542E0020502E002000100140A7
:107CF800308204009B8004000C4B1B6813F4804FF7
:107D080003D00B4B1B68032B00DC704700B583B016
:107D1800084BD3F804350191074A0092BB22074962
:107D2800042006F0D3FF03B05DF804FB542E0020B6
:107D3800502E002000100140308204009B80040077
:107D48000C4B1B6813F4804F03D00B4B1B68032BA1
:107D580000DC704700B583B0084BD3F804350191B7
:107D6800074A0092B6220749042006F0AFFF03B085
:107D78005DF804FB542E0020502E00200010014016
:107D8800308204009B80040000B583B0012A1FD014
:107D980052B1022A36D0264A40F20711032016F0C3
:107DA800F9FE03B05DF804FB224B1B6813F4804F07
:107DB800F7D0214B1B68032BF3DD204BD3F8043598
:107DC8001F4A0092FA221F49042006F07FFFE8E7C5
:107DD800062232214FF4F030FFF7F0FA154B1B68FA
:107DE80013F4804FDDD0144B1B68032BD9DD134BE4
:107DF800D3F80435144A0092FF221249042006F0F1
:107E080065FFCEE70B4B1B6813F4804FC9D00A4BB4
:107E18001B68032BC5DD094BD3F804350B4A0092C8
:107E280040F203120749042006F050FFB9E700BFEB
:107E38002C800400542E0020502E002000100140F9
:107E4800CC8004009B800400EC8004000C810400BA
:107E580000B583B0012A20D052B1022A38D0274A6F
:107E68004FF4A271032016F095FE03B05DF804FBF1
:107E7800234B1B6813F4804FF7D0224B1B68032B4E
:107E8800F3DD214BD3F80435204A009240F2371233
:107E98001F49042006F01AFFE7E7062232214FF4B3
:107EA800F030FFF78BFA164B1B6813F4804FDCD0C9
:107EB800144B1B68032BD8DD134BD3F80435154A34
:107EC80000924FF49E721249042006F0FFFECCE7A0
:107ED8000B4B1B6813F4804FC7D00A4B1B68032B4E
:107EE800C3DD094BD3F804350B4A00924FF4A07256
:107EF8000749042006F0EAFEB7E700BF2C8004001B
:107F0800542E0020502E002000100140CC80040088
:107F18009B800400EC8004000C81040008B508462E
:107F280000F0DCFF08BD000010B582B00C460D4B18
:107F38001B6813F4804F03D00B4B1B68032B05DC25
:107F480021461020FFF71EFA02B010BD074BD3F8E8
:107F580004350191064A00929A220649042006F047
:107F6800B5FEEDE7542E0020502E002000100140F1
:107F7800308204009B80040010B582B00C460D4B83
:107F88001B6813F4804F03D00B4B1B68032B05DCD5
:107F980021460F20FFF7F6F902B010BD074BD3F8C2
:107FA80004350191064A009293220649042006F0FE
:107FB8008DFEEDE7542E0020502E002000100140C9
:107FC800308204009B80040010B582B00C460D4B33
:107FD8001B6813F4804F03D00B4B1B68032B05DC85
:107FE80021460E20FFF7CEF902B010BD074BD3F89B
:107FF80004350191064A00928C220649042006F0B5
:1080080065FEEDE7542E0020502E002000100140A0
:10801800308204009B80040010B582B00C460D4BE2
:108028001B6813F4804F03D00B4B1B68032B05DC34
:1080380021460D20FFF7A6F902B010BD074BD3F873
:1080480004350191064A009285220649042006F06B
:108058003DFEEDE7542E0020502E00200010014078
:10806800308204009B80040010B50C461020FFF7F6
:108078007DF9207010BD10B50C460F20FFF776F97A
:10808800207010BD10B50C460E20FFF76FF9207058
:1080980010BD10B50C460D20FFF768F9207010BD13
:1080A800F8B5044600F02AFFC0F30362C0F3035C8E
:1080B800C0F30347C0F30336C0F30325C0F303112D
:1080C80000F00F03072C14D8DFE804F004050709B3
:1080D8000B0D0F1101221046F8BD6246FBE73A4628
:1080E800F9E73246F7E72A46F5E70A46F3E71A467C
:1080F800F1E70022EFE700002DE9F04F8BB000F028
:1081080005FFA14B1B6813F4804F03D09F4B1B68DE
:10811800032B34DC9E48002180F8281080F82910B1
:108128009C4B036501679C4B83669C4BC36600F0C0
:10813800B5FD002862D1944B1B6813F4804F03D01F
:10814800924B1B68032B5FDC954B964A1A63964A41
:10815800C3F88020954AC3F8D020954AC3F8202157
:108168008B4B944AC3F8E820934AC3F88021934A7A
:10817800C3F81822924AC3F8B022002445E1914B73
:10818800D3F804450020FFF78BFF05460120FFF7D1
:1081980087FF06460220FFF783FF07460320FFF705
:1081A8007FFF80460420FFF77BFF81460520FFF70D
:1081B80077FF854B53F820A00620FFF771FF834B0C
:1081C80053F820B00720FFF76BFF814B53F820309E
:1081D8000893CDF81CB0CDF818A0CDF81490CDF8C0
:1081E80010800397029601957A4B009323464FF42B
:1081F800B1727949042006F069FD8BE7774A4FF49C
:10820800B67116F0C7FC96E76E4BD3F80435604A92
:1082180012880192724A009240F26D126E4904204F
:1082280006F054FD90E7A30023441A015C4810446B
:10823800002380F8283080F829306A4B53F824301E
:108248004363694B53F824308363611CC9B2FEF75A
:10825800AFFEF0B94C4B1B6813F4804F00F0DD8083
:108268004A4B1B68032B40F3D880564BD3F8043590
:1082780004EB84010A014A498A5A0292621C01925B
:108288005A4A009240F29B125349042006F01EFD00
:10829800C3E0524A4FF4CD7116F07CFCDAE7544B38
:1082A800342000FB0430534B03630023836280F8BF
:1082B8002C3080F82D30611CC9B21CF00FFBF0B9CE
:1082C800314B1B6813F4804F00F0AD802F4B1B68B7
:1082D800032B40F3A8803B4BD3F80435342202FB30
:1082E80004F243498A5A0292621C0192424A00925D
:1082F8004FF4D2723849042006F0E8FC93E0374A7C
:1083080040F2A31116F046FCDAE7651C204B9820D2
:1083180000FB0530002380F8283080F829300367F7
:10832800364B53F824308366354B53F82430C366F4
:10833800E9B200F0B3FCD8B9134B1B6813F4804FB3
:1083480077D0124B1B68032B73DD1E4BD3F8043513
:10835800982202FB05F20E498A5A02920195294A8F
:1083680000924FF4D7721C49042006F0AFFC60E07D
:108378001A4A40F2AD1116F00DFCDDE7174A4FF42A
:10838800DB7116F007FC6CE0542E0020502E002004
:108398004035002058830400257F0200B57A02008A
:1083A80008390020788304007C830400808304005B
:1083B800848304005C8304006083040064830400F5
:1083C8006883040000100140EC7F0400CC7F0400A7
:1083D8000C800400B47804009B8004002C80040006
:1083E800688204003C8304002C8304008C8204000F
:1083F800383800206C830400B482040058820400DA
:1084080048820400DC8204000134032C46DC204648
:10841800FFF746FE01283FF406AF2046FFF740FE6F
:1084280002283FF43CAF2046FFF73AFE03283FF40A
:108438006CAF2046FFF734FE0428E5D1E3001B1B90
:10844800DA0018481044184B43630023C36280F8CD
:10845800303080F83130611CC9B21EF06FFE002840
:108468008CD1124B1B6813F4804FCDD0104B1B6876
:10847800032BC9DD0F4BD3F80435C4EBC401CA0084
:1084880008498A5A0292621C01920B4A009240F2F1
:10849800B7120A49042006F019FCB5E70BB0BDE88D
:1084A800F08F00BF5C3400204C830400542E002061
:1084B800502E002000100140048304009B8004001B
:1084C80008B5034B53F820300846984708BD00BF4D
:1084D800B884040008B5034B53F820300846984781
:1084E80008BD00BFC8840400D0F88000003018BF61
:1084F8000120704790F88430012B03D9022B0FD04C
:1085080000207047C36F013B13F1030F04D8D0F864
:1085180088301BB900207047002070470120704741
:10852800C36F013B13F1030F04D8D0F888301BB98F
:1085380000207047002070470120704710B584B0B4
:10854800044630301CF07BF90023E36794F884304C
:10855800022B01D0A36F6367636F0193A36F02932C
:108568000023039301A920461EF0B2FDA36E616F9C
:108578002046984704B010BD2DE9784890F884301B
:10858800022B24D0044630301CF02DF94D01420155
:1085980045EAD063121A63EB01039D0045EA927520
:1085A8009600321845EB0103DD0045EA5275D1000B
:1085B8000A46D00B40EA4540E90BE26F0023994296
:1085C80008BF904201D2002002E0012000E0002014
:1085D800BDE878882DE9F04383B0044690F88430EC
:1085E800022B3FD0856FD0F88C60AD1B30301CF06B
:1085F800FAF84F01420147EAD063121A63EB01030C
:108608009F0047EA92774FEA820C1CEB000247EB87
:108618000103D90041EA5271D000C20B42EA41423B
:10862800C90B4FEAE57905FB01F102FB0911A5FB2E
:1086380002898944E26F0023404649461EF01FFE26
:1086480030446067A36E616F204698472D4B1B68C6
:1086580013F4804F03D02C4B1B68042B2ADC03B087
:10866800BDE8F083D0F88C5030301CF0BCF84E01D7
:10867800420146EAD063121A63EB01039E0046EA00
:10868800927697003A1846EB0103D90041EA5271F5
:10869800D000C20B42EA4142CB0BD4F88860A2FB5F
:1086A800060106FB0311E26F00231EF0E8FD2844D3
:1086B8006067C7E7154BD3F8045504F130001CF088
:1086C80092F84C01420144EAD063121A63EB0103A9
:1086D8009C0044EA92749600321844EB0103D900D6
:1086E80041EA5271D000C20B42EA41420192084B62
:1086F80000932B464FF4A1720649052006F0E6FACE
:10870800ADE700BF542E0020502E0020001001407D
:10871800A4840400978404002DE9F04882B004463C
:1087280015462A4B1B6813F4804F03D0284B1B684F
:10873800032B32DCE36E04F1740120469847636F23
:108748002B60A36F6B6094F88430022B31D094F8BF
:108758009530002B35D094F89530DBB2012B32D010
:10876800E66F04F130001CF03EF84C01420144EA87
:10877800D063121A63EB01039C0044EA92749700D9
:108788003A1844EB0103D90041EA5271D000C20BF8
:1087980042EA4142B21AAA6010E00E4BD3F80435FF
:1087A8000D4A009240F28F120C49042006F08EFA0E
:1087B800C0E7E36F0BB14FF0FF33AB6002B0BDE829
:1087C800F088AB60FAE7E36FAB60F7E7542E002060
:1087D800502E002000100140307C040097840400D3
:1087E8002DE9F04882B0044690F88430022B5DD021
:1087F800D0F88850002DB8BF6D42002D5CD0E66FD0
:10880800304600217201F30E921B63EB01039E00B8
:1088180046EA92769700B446C61941EB0C07FB006E
:1088280043EA5673F20016461F462A46002330468E
:1088380039461EF0BDFC06460F46002908BFB0F5B4
:108848007A7F49D23F4B1B6813F4804F03D03E4BCD
:108858001B68032B34DC21220023C4E90E23394B87
:108868001B6813F4804F03D0374B1B68032B5BDC6A
:108878002046012300F8303F1BF0B8FF98B1314B78
:108888001B6813F4804F0ED02F4B1B68002B0ADD9A
:108898002E4BD3F804352E4A009240F22B122D4964
:1088A800012006F013FA02B0BDE8F088D0F888502D
:1088B800002DB8BF6D42A0E77846FFF7D9F89EE7CC
:1088C800224BD3F80435244A00924FF48D72214983
:1088D800042006F0FBF9BEE71A4B1B6813F4804F1F
:1088E80003D0194B1B68032B12DC4FEAC73C4CEA38
:1088F800564C4FEAC63B194A0023194E00271BEB7A
:1089080006004CEB07011EF053FCC4E90E01A6E774
:108918000E4BD3F80435134A00924FF490720D4968
:10892800042006F0D3F9E0E7084BD3F80435A26B2E
:1089380001920D4A00924FF492720649042006F003
:10894800C5F995E7542E0020502E00200010014054
:108958001484040097840400A883040040420F0094
:1089680020A10700CC830400F48304002DE91048FB
:1089780083B00446002280F83020D0F880304FEAD7
:10898800534C4FEAC33B4FF47A7200231BF5FA703D
:108998004CF100011EF00CFCC4E90E0104F130009A
:1089A8001BF024FF90B10B4B1B6813F4804F0DD0C4
:1089B800094B1B68002B09DD084BD3F80435084A1E
:1089C8000092FB220749012006F080F903B0BDE8B8
:1089D800108800BF542E0020502E002000100140A7
:1089E800888304009784040008B502460321903068
:1089F80008F017FF08BD000030B585B00446089D93
:108A0800002B2FD019465B68C0F880300B68C3670D
:108A18001368002B2FD047F6FF73A3671368C4F8B9
:108A28008830636FC4F88C30022384F884301D4B7F
:108A38001B6813F4804F03D01B4B1B68032B1DDCF2
:108A48002246022104F1900008F0EBFE45B1636F65
:108A58002B60A36F6B60E36F0BB14FF0FF33AB601C
:108A680005B030BDC0F88030036F13B11B68C36711
:108A7800CEE7C367CCE70D4BA367CFE70C4BD3F822
:108A88000435E16F0391D4F88010029112680192C5
:108A9800084A009240F249220749042006F016F9D4
:108AA800CEE700BF542E0020502E00200080FFFF8C
:108AB80000100140788504009784040030B587B021
:108AC80004460A9D43B319465B68C0F880300B68BA
:108AD800C3671168A167002384F88430626FC4F803
:108AE8008C208A1AC4F88820194B1B6813F4804F0D
:108AF80003D0184B1B68032B17DC2246002104F116
:108B0800900008F08EFE2DB1636F2B60A36F6B6031
:108B1800E36FAB6007B030BDC0F88030036F13B1AE
:108B28001B68C367D5E7C367D3E70B4BD3F8043596
:108B38000492E26F0392D4F8802002920191074ACE
:108B4800009240F2D1120649042006F0BFF8D4E79B
:108B5800542E0020502E002000100140A88504004B
:108B680097840400F0B585B0044617460A9E5BB3A7
:108B78001A465B68C0F880301368C367012384F81D
:108B880084303B683D4DA5FB0325ED0BC5EB054542
:108B98005D1B201D1BF0B6FDF8B9394B1B6813F49B
:108BA800804F1DD0374B1B68032B19DD364BD3F88C
:108BB80004353A790192354A009240F2012234494B
:108BC800042006F083F80BE0C0F88030036F13B17F
:108BD8001B68C367D2E7C367D0E7636FC4F88C30FC
:108BE800D4F88C302B44A367C4F88850244B1B68F6
:108BF80013F4804F03D0234B1B68032B17DC204B47
:108C08001B6813F4804F03D01E4B1B68032B21DC19
:108C18002246012104F1900008F003FE2EB1636F93
:108C28003360A36F7360E36FB36005B0F0BD164B9C
:108C3800D3F80435E26F0392D4F8802002923A68A0
:108C48000192144A00924FF403721149042006F06D
:108C58003DF8D4E70C4BD3F80435A26F0392626F4A
:108C68000292D4F88C2001920B4A009240F20F2213
:108C78000749042006F02AF8CAE700BF01800080EF
:108C8800542E0020502E002000100140D4840400EF
:108C9800978404000885040034850400D8B110B511
:108CA8000446826ED2B1C26ED2B10E4BC3621EF0C0
:108CB800D1F9034608B1184610BD24640A4B636411
:108CC8000A4904F1900008F096FD04F130001BF009
:108CD800C9FD0346EFE70E23184670470E23EAE75F
:108CE8000E23E8E730860400F1890200208604009C
:108CF80008B5804708BD000008B5034A462103208F
:108D080015F048FF08BD00BF7486040008B50822A6
:108D18004FF4A061084806F064FE48B10246074BCC
:108D280003CB50609160104606F094FE002008BD09
:108D3800034806F0BDFFF9E7C83A0020EC3A0020E6
:108D4800E82D002000B583B002AB082243F8042DBB
:108D5800094A4FF4A061094806F004FE034628B901
:108D6800B3FA83F0400903B05DF804FB024A00211E
:108D780011605160F4E700BFEC3A0020C83A0020C7
:108D880000B58BB008A909A80AF02CFBA8B9194BA3
:108D98000593194B0693194B079304230493099BD6
:108DA800A3F5805302930123039302A9144806F004
:108DB80030FF38B90BB05DF804FB124A5D2115F09D
:108DC800E9FEE4E7104806F073FF104B1B6813F444
:108DD800804FEFD00E4B1B68002BEBDD0D4BD3F80B
:108DE80004350D4A00926A220C49012005F06EFFF5
:108DF800E0E700BF718E0200018D0200298E02009B
:108E0800C83A002074860400D82D0020542E002073
:108E1800502E00200010014040860400E386040024
:108E28000C4B1B6813F4804F03D00B4B1B68032BB0
:108E380000DC704700B583B0084BD3F80435084A06
:108E4800009251220749042005F040FF03B05DF865
:108E580004FB00BF542E0020502E002000100140BB
:108E6800F4860400E386040010B582B01446154B5E
:108E78001B6813F4804F03D0134B1B68032B07DCCC
:108E8800012C10D0022C12D0032C14D002B010BD2B
:108E98000E4BD3F804350E4A009236220D490420B1
:108EA80005F014FFECE77846FEF7E2FDEAE77846BE
:108EB800FEF7DEFDE8E7084A3F21042015F06AFEC8
:108EC800E4E700BF542E0020502E0020001001407F
:108ED8000C870400E38604007486040008B5054B7B
:108EE8001860FFF713FF00B908BD034AA22115F067
:108EF80051FEF9E7EC3A00207486040008B5FFF744
:108F080021FF014B186808BDEC3A002008B5FFF7AF
:108F180037FF08BD10B40346044C006859689A68C6
:108F2800DB680FC45DF8044B704700BFF43A0020BB
:108F38000B4B0C4A92E8030083E8030003F1080294
:108F4800094903C982E80300DA79042161F30712A9
:108F5800DA711A7A022161F387121A72704700BF18
:108F6800F43A002060000010A40000100048704788
:108F7800F43A0020002308E0074901EBC30000226F
:108F88004280426001F8332001331F2BF4D9034B90
:108F980000221A60704700BF043B0020043C0020F8
:108FA80030B405460F4B1B6800240AE01F230E4A05
:108FB80012F83300A0B102EBC3025288AA4207D0CC
:108FC80001341F2C0BD85A1E002BEFD01346EEE7A6
:108FD800054A02EBC30252688A42F1D100E0002040
:108FE80030BC7047043C0020043B002030B40A4ADF
:108FF80013680A4C04EBC30568806960012104F812
:1090080033100B441360202B01D030BC704713463B
:1090180000221A60F9E700BF043C0020043B00204E
:10902800006F024BC01A18BF01207047CC3C0020CB
:10903800C0F30C038B4202D3C91A08447047C91AFB
:109048000844A0F500507047C37D002B42D0C37878
:109058000A7802F0800203F07F0313430B70027852
:109068000B7803F07F0343EAC2130B700378002BDD
:1090780041D030B48378082B14BF002201224B78EA
:1090880003F07F0343EAC2134B70C58803F08003E3
:10909800C5F3861423434B708A7802F0030242EA30
:1090A8008502D2B28A70057A02F0FC02C5F3C104C7
:1090B80022438A70CB7803F01F0343EA4513DBB2DF
:1090C800CB70427A03F0E00302F01F021343CB7027
:1090D80030BC7047C3780A7802F0BF029B0103F0E6
:1090E800400313430B70027903F0C00302F03F0200
:1090F80013430B70B3E770470023032B2CD810B42D
:1091080002E00133032B23D8144C742202FB0342E0
:1091180092F84C20012AF4D1742202FB0342948A6B
:10912800C2899442EDD10D4C742202FB0342D288CD
:109138008A42E6D1742202FB0342B2F85C2012B1E3
:10914800848AA242DDD10548742202FB030000E0B4
:1091580000205DF8044B7047002070474C3E00200B
:10916800002300E00133032B13D80B49742202FBC0
:10917800031292F84C20022AF4D1742202FB031243
:10918800918A828A9142EDD10348742202FB03003E
:1091980070470020704700BF4C3E002008B10820EF
:1091A80070470420704730B403460C460978C170F4
:1091B80000214162A1680B2903D8217B01B3012159
:1091C80000E0012119700020987029B1A1680731C9
:1091D800C9080139597218720121D97503F10C05B2
:1091E80004F1100103C985E80300E1899982A169A6
:1091F8001962217F9975216AD9629A6230BC7047D9
:109208000021DFE70021164B1B688B4226D900237B
:10921800144A02EBC10252689A421DD910B4114A8D
:1092280052F8312002EBC30412F8332082420DD0E9
:1092380001330C4A02EBC10252689A42EFD801315D
:10924800074B1B688B4205D90023F2E760685DF87D
:10925800044B70470020FAE70131D4E7002070473B
:10926800083C00200C3C002030B58DB005460C466B
:109278002C22002101A81EF03CF910238DF804309F
:1092880002958DF80C4001A801F012FB0DB030BD1D
:1092980070B58CB006460D4614462C22002101A854
:1092A8001EF027F90F238DF80430ADF808604FF051
:1092B800000365F300038DF80A308DF80B4001A810
:1092C80001F0F6FA0CB070BD00B58DB048B913F1D5
:1092D800020F06D001228DF80420029301A801F0A4
:1092E800E7FA034B186804F003FB0DB05DF804FBC4
:1092F8002C3C0020D0B50446037853B1E3691F0A1B
:109308001E06E188A069FFF793FE301847F10001B7
:10931800D0BD7846FEF7ACFBF0E70000F8B505468F
:10932800002400E00134032C1FD8114A742303FBE6
:10933800042393F84C30022BF4D1742303FB042349
:109348009A8AAB8A9A42EDD12846FFF7D3FF0646A0
:109358000F46074B742000FB0430FFF7CBFF8F420A
:1093680008BF8642DED2012000E00020F8BD00BF21
:109378004C3E002038B504460D46037853B100230F
:10938800072B0ED8A18A1A011248825A914205D099
:109398000133F5E77846FEF76BFBF0E71B01002188
:1093A800C1520D4A1368591C116003F00703A08AC3
:1093B8001A010849885255B16278064D05EB031524
:1093C800AA702046FFF796FFC5E9020138BD0022C2
:1093D800F3E700BF303C0020B03C0020F8B506465B
:1093E80003783BB13046FFF785FF04460D46B08A47
:1093F800002304E07846FEF73BFBF3E70133072B35
:109408000ED81A0107498A5A8242F7D101EB031292
:10941800D2E90267AF4208BFA642EFD1104600E08A
:109428000020F8BD303C0020F8B5069C002963D028
:109438000F4616685568D2F808E0D2F80CC0E66006
:109448002561C4F814E0C4F818C016695569E661C6
:109458002562002262700278D20922706AB3042160
:10946800B9424BD8E57D55B3027802F07F02E2702D
:109478000022A27022789AB14278920102F4FE5238
:10948800817842EA9102E2808278D20002F01802E2
:10949800C17842EA51122272C27802F01F02627247
:1094A8001D46002363622B78032B21D82A78144B9E
:1094B80053F82230E36200201FE00121D0E705784D
:1094C800C5F38015E570057805F03F05257142B1B3
:1094D80090F90120002A02DB0422A270CAE70822C0
:1094E800FBE70422A2701144B942C3D9092004E061
:1094F8007846FEF7BDFAD9E70920F8BD0920FCE750
:109508002487040070B50C461E460378ABB10425C9
:109518002A44A26000F10C032360836A6360C36A73
:10952800E36000232374204604F060FD024610B96E
:1095380063691D443560104670BD0125E8E72DE9D3
:10954800F0418EB00D4616461C46804600282DD0A8
:10955800002D2FD0002C31D0636A0233059304F11B
:109568000C00E378002B2DD00121A27801AF3B46F7
:10957800082A14BF0022012204F0FFFA0697CDF84A
:109588001C80B2B2ADF820200B9515440C95A37839
:109598008DF83430237B022B16D00023ADF8283009
:1095A80005A804F0E2FA0EB0BDE8F0817846FEF7AF
:1095B8005FFACDE77846FEF75BFACBE77846FEF729
:1095C80057FAC9E70221D0E723692BB12369099328
:1095D8001023ADF82830E3E77846FEF749FAF5E7B7
:1095E8002DE9F04188B004460D46C37D002B3CD0E0
:1095F800082605FB06F8637AAB4238D0257201AB22
:10960800324602A92046FFF77DFF074648BB4DB901
:1096180094F8573033B9A369C3F30C03E3800123EB
:1096280084F85730E37D7BB994F8563063B91DBB95
:10963800B4F84E10A27823468A1A216F0846FFF71D
:109648007EFF012384F8563007992046FFF7FCFC7B
:10965800216F3246414401981DF022FF02A804F010
:10966800EBFC384608B0BDE8F0810C26C1E7B4F839
:109678004E60A6EB0806C1E77846FEF7F9F9D7E78A
:1096880070B505460E4609B100230B6095F85440A5
:10969800002104E0631C85F854300134E4B26B7A8D
:1096A800A34210D32A6D0123A3401A42F5D12146C3
:1096B8002846FFF795FF014628B9002EEAD03368FF
:1096C80001333360E6E7084670BDF0B589B08578A8
:1096D8001544C37DDBB10B239D4221D816460F46A6
:1096E800044601AB2A4602A9FFF70CFF0546C0B99C
:1096F80007992046FFF7A8FCE37D53B13246394667
:1097080001981DF0CDFE02A804F096FC09E00F2395
:10971800E2E72346324601993846FFF710FFF2E7A1
:109728000925284609B0F0BD10B5044690F84C301C
:10973800012B0FD103F0C2FA237B012B0ED00B4B68
:10974800D968012284F84820014404F1300003F06C
:109758008BFA10BD7846FEF78BF9EBE7A37D034A39
:10976800D168126902FB0311EBE700BFB43C00208B
:1097780030B583B0002403E02846FFF7D5FF013455
:10978800032C17D80C4A742303FB042393F84C309A
:10979800012BF4D102A9002341F8043D742505FBEF
:1097A80004252846FFF76CFF0428E5D0019B002B11
:1097B800E5D0E1E703B030BD4C3E002038B50446A3
:1097C80090F84C30022B02D07846FEF751F9054B41
:1097D8001D6803F073FA411904F1300003F044FAEC
:1097E80038BD00BFB43C002038B5044690F84C3072
:1097F800022B02D07846FEF73BF9084B5D7D5A688C
:109808009B6803FB052503F059FA411904F154003C
:1098180003F02AFA012384F86C3038BDB43C0020E8
:1098280010B50446FFF7FCFB90B904F1300003F0D3
:1098380003FA94F84C30022B0ED0742200212046F3
:109848001DF057FE002084F84C0002F015FA10BDF8
:10985800206F09F0D4FCE8E704F1540003F0ECF9B8
:10986800EBE7000030B585B00D460446D0B1E1887D
:1098780094F84C30022B19D094F84C30022B1ED09F
:109888002946A06DFFF7F0FC2046FFF7C9FF164BED
:109898001B6813F0040F03D0144B1B68032B13DC55
:1098A80005B030BD7846FEF7E3F8E0E7637813F0DB
:1098B800020FE1D00022A08A1CF0FAFEDCE70021AA
:1098C8002046FFF757FDDBE7094BD3F8043594F83A
:1098D8004C2002950192074A009240F22E22064936
:1098E800042005F0F3F9DBE7542E0020502E002069
:1098F800001001409C8704008D87040038B5054698
:10990800002400E00134032C0ED8084A742303FB1A
:10991800042393F84C30022BF4D12946742000FB21
:109928000420FFF79FFFEDE738BD00BF4C3E002045
:1099380008B508460021FFF795FF08BD10B58CB0A3
:10994800044690F84C30012B02D07846FEF790F888
:1099580001238DF80430A36D029301A800F0A8FF3D
:109968002046FFF75DFF0CB010BD08B5037B012B47
:1099780002D0FFF7E3FF08BD0121FFF773FFFAE705
:1099880008B590F8553013B9FFF7EFFF08BD013B54
:1099980080F85530002380F85430024B186803F0E3
:1099A800A7FFF3E72C3C002010B5002400E00134A9
:1099B800032C14D80A4A742303FB042393F84C306D
:1099C800012BF4D1742303FB042393F84830022BB2
:1099D800EDD1742000FB0420FFF7D2FFE7E710BDAC
:1099E8004C3E002008B50378192B13D01A2B08D049
:1099F800182B00D008BD0820FFF780FFFFF7D4FF21
:109A0800F8E70379012BF5D10620FFF777FFFFF779
:109A1800CBFFEFE70379012BECD10720FFF76EFFAF
:109A2800E8E70000062900D07047F0B585B0154674
:109A38000278910101F4FE5147788478C3781B04B9
:109A480043EA0463047943EA042344791C4356B285
:109A580041EA97012846FFF74FFB0746E0B1002E81
:109A68002FDBC289A98A8A422BD02B4B1B6813F0A3
:109A7800040F3ED0294B1B68012B3ADD284BD3F845
:109A8800043502910192274A009240F28C622649DD
:109A9800022005F01BF92CE01F4B1B6813F0040F84
:109AA80027D01E4B1B68012B23DD1D4BD3F8043533
:109AB8001E4A009240F284621B49022005F006F912
:109AC80017E0002E17DB3D6D25433D65BCB13B78A3
:109AD800D3B17B7A5A1C01239340013B9D4217D096
:109AE800002187F854103846FFF7CAFD3846FFF7BB
:109AF8001BFE05B0F0BDAB8AA7F85C30E3E7032195
:109B08003846FFF7AFFEF4E77846FDF7B1FFE0E728
:109B18003846FFF713FFECE7542E0020502E0020A4
:109B280000100140308804008D870400008804007C
:109B380010B50446808A02F0BDFB01281CD1237BA6
:109B4800E3B194F91620002A1ADBE27D4AB1022B10
:109B580018D094F90330002B16DBA378B3B9002092
:109B68000BE0E2780AB9012B12D1237893B9A378D4
:109B7800042B11D1002000E0102010BD1020FCE7BC
:109B88000720FAE71020F8E70720F6E70720F4E7B0
:109B98000720F2E70020F0E70720EEE738B5044693
:109BA800C2698169808A06F0ABFA054608B9284679
:109BB80038BDE169002201F00101A08AFFF768FBC6
:109BC800F5E72DE9F0438BB080460F4614461E4654
:109BD8001046FFF7E3FF10BBE5781DB32846FFF7F3
:109BE80011FB8146D8B18DF80450236A0793A38AE4
:109BF800ADF8123005AB04F10C0292E8030083E8DB
:109C08000300A37D8DF82030CDF8088003972378D2
:109C18008DF81030E36A0993314601A8C8470BB0A4
:109C2800BDE8F0833346224639464046FFF7FAFE40
:109C3800F5E700002DE9F04107460E4690464B1E19
:109C4800DBB2012B10D8B8F5C07F11D8012E13D084
:109C58000024032C22D8374A742303FB042393F8E7
:109C68004C305BB10134F4E77846FDF701FFEAE7D1
:109C78007846FDF7FDFEE9E70124EAE7742505FBD0
:109C8800042514B92C4B2B6709E0404609F0B3FAB8
:109C9800284B742202FB0434206700E000256DB3D2
:109CA8002B6F002B43D03B462A4607F13001D3F8EF
:109CB80000E0D3F804C09C68D868C2F800E0C2F895
:109CC80004C09460D060103310328B42EFD100236F
:109CD8002B65A5F84E80012E13D06FF00103AB62FF
:109CE800002385F86C30154BEB656D66144BAB6340
:109CF8002D64012001F0C0FF85F84C602846BDE8BE
:109D0800F081104B1B7D85F85530002385F85630BF
:109D180085F8573085F85430BA6AAA65A5F85C30DA
:109D28006FF00103AB62084BAB632D64E1E70025DC
:109D3800E4E700BF4C3E0020CC3C00202BA40200EE
:109D480039990200B43C0020BF9E0200F0B5C7B0AC
:109D580086781644C37D2BB14FF48073B34278D311
:109D6800002303E04FF4C073F8E70133032B18D83E
:109D78003C4D742404FB035494F84C40012CF4D15A
:109D8800742404FB0354A58A848AA542EDD1354D79
:109D9800742404FB0354E589C489A542E5D1082449
:109DA80058E014460D4632460121FFF743FF0646A8
:109DB800002852D022462946006F1DF071FB46A9A3
:109DC800002341F8043D3046FFF75AFC044608B129
:109DD80004283AD1459B7BB9234B1C6814F0040432
:109DE80038D0224B1B68032B39DDB6F84E70802F14
:109DF80028BF8027002313E03046FFF795FCEBE7E8
:109E0800326FD25C1A490C6810095900255C04A805
:109E180000F8135002F00F020131A25C42540133E2
:109E2800BB42EDD304AA002402F81740114BD3F823
:109E380004350292104A0192104A009240F271527F
:109E48000F49042004F042FF04E03046FFF7E8FC25
:109E580000E00924204647B0F0BD0424FAE70024B6
:109E6800F8E700BF4C3E0020542E0020502E002062
:109E7800582E00200010014074880400C07D0400A2
:109E88008D87040070B504460D461646FFF750FE50
:109E9800034638B923783BB9324629462046FFF7AE
:109EA80014FC0346184670BD324629462046FFF783
:109EB8004DFF0346F6E710B50C4691F84C30012BE0
:109EC80006D108F081FA38B92046FFF759FD10BDD0
:109ED8007846FDF7CDFDF4E7002008F02DFB0223BE
:109EE80084F84830F3E7000000B585B000238DF80A
:109EF8000F3098B10346084602330B600DF10F018D
:109F080003F037FE9DF80F3043B10D4B1B6813F07B
:109F1800040F03D00B4B1B68032B04DC9DF80F00C8
:109F280005B05DF804FB084BD3F80435074A0092E6
:109F380040F237420649042004F0C8FEEEE700BFAD
:109F4800542E0020502E0020001001408488040068
:109F58008D8704002DE9F0438FB004460E46154660
:109F68001F46D0F81890037823B1C1884846FFF7F8
:109F78005FF8A06104F10C00E378002B37D00121D1
:109F8800A2780DF128084346082A14BF00220122AE
:109F980003F0F3FDC4F81890CDF808800396A37871
:109FA800EA1A92B2ADF810203244089207978DF859
:109FB80024300023ADF81830E37863B3237B022BF9
:109FC80017D02546002345F8243F2A462179206AE0
:109FD80010F07EFB606A90B101A9FFF785FF0028A9
:109FE8003BD12A462179206A10F072FBF2E7022160
:109FF800C6E71023ADF8183023690593E1E7237B02
:10A00800022B2ED104F10C01E08910F039FC002854
:10A01800D4D1052022E0237B012B24D1E389ADF89C
:10A028000030A38AADF802300025012D13D821464F
:10A03800002341F8243F0EAB03EB450333F8380CFB
:10A0480010F063FB01A9606AFFF74EFF08B90135FC
:10A05800EBE7002002E0052000E000200FB0BDE89B
:10A06800F0830520FAE70520F8E7000070B5F0B0A6
:10A078000D4614461E4610AB0A4601462046FFF719
:10A0880069FF50B1224B1B6813F0040F03D0214B1A
:10A098001B68052B2FDC70B070BD2046FFF77EFDD6
:10A0A8000028F8D103AB01228DF80C20A28AADF864
:10A0B8000E20002204928DF8142010AA0692A2788D
:10A0C800AD1AADF81C5008AA93E8030082E8030013
:10A0D8000AAB04F10C0292E8030083E80300A37DB5
:10A0E8008DF83830236A0C93636A0D930F9605A890
:10A0F80000F0DEFBCFE7084BD3F80435074A00929F
:10A1080040F20E720649062004F0E0FDC3E700BFE6
:10A11800542E0020502E002000100140A888040072
:10A128008D87040010B5547814F0010F03D0D47D46
:10A1380014B9FFF79BFF10BDFFF743FDFBE7F8B528
:10A1480005460E4614461F46537813F0020F06D1F3
:10A158003B462246711E681CFFF7E4FFF8BD012349
:10A16800C9B21CF0F5F9F3E738B504460D46CB69DA
:10A178005B780371CB691B7883F00103C370CB69EB
:10A1880043628B8A0B2B07D8CB7A002B3DD10B7BF4
:10A19800012B02D0002300E001232370002B39D0CB
:10A1A800287B022833D0FEF7F9FFA070AB8A03445E
:10A1B8000B331B4880FB03235B10013B63720023B6
:10A1C80023720023E37504F10C0395E8030083E888
:10A1D8000300AB6923622B89A382AB7AA3752B6A30
:10A1E800A362DF23E362284610F0C4FC20B12B7879
:10A1F800012B12D0FF23E36220461CF031FA18B17C
:10A20800E36A43F02003E36238BD0123C5E7054B49
:10A21800987DC8E70423A370D3E72023EBE700BFAA
:10A22800ABAAAA2AB43C002010B54FF4E87200216A
:10A2380015481DF05EF906F017F80024134B1C6052
:10A248008022214612481DF054F9124B124A1A6016
:10A25800124A5A604CF250329A601149D9601A6118
:10A2680004221A759C7508225A750E4803F020FBC3
:10A278000D4B18600D4B1C600D4806F0F3F80D48A7
:10A2880002F0E4F910BD00BF4C3E0020B03C0020B5
:10A29800303C0020B43C002080969800F049020031
:10A2A80020A107001DA402002C3C0020083C00202F
:10A2B800D1920200F82D002008B505F019FF08BD5D
:10A2C80098B110B58CB00446036983B1C36983B1F2
:10A2D800836983B101466846FFF746FFA28A216970
:10A2E8006846FFF7CFFD0CB010BD0E2070470E205A
:10A2F800F9E70E20F7E70E20F5E790B110B58CB01E
:10A30800044642687AB182697AB10A4601466846CB
:10A31800FEF749FFA26861686846FFF7B3FD0CB015
:10A3280010BD0E2070470E20F9E70E20F7E7000059
:10A33800037B012B01D00020704710B58CB000239F
:10A348000193CDF80730C288C2F3861492008DF8C5
:10A3580001200A0E8DF802200A0C8DF803200A0A43
:10A368008DF804208DF805104278022A14BF0022C7
:10A37800012244EAC2128DF8002006220592012229
:10A388008DF81C20828AADF81E2008938DF80C30B9
:10A39800CDF810D0026A09928DF81830C389ADF84B
:10A3A8001A30C36A0B93837D43B98DF828306FF058
:10A3B800010103A8FFF7A1FF0CB010BD024B5B7DA4
:10A3C8008DF82830F3E700BFB43C002090F84C30FB
:10A3D800022B00D0704790F86C30022BFAD110B5E0
:10A3E8000446016DFFF7A4FF10B9002384F86C3010
:10A3F80010BD000010B5002406E0054B742000FBDA
:10A408000430FFF7E3FF0134032CF6D910BD00BF79
:10A418004C3E002008B5FFF7ABF9FFF7EBFF012032
:10A4280008BD10B50C4691F84C30022B02D0784686
:10A43800FDF71EFB022384F86C302046FFF7C6FFA9
:10A4480010BD0000F0B58FB00446FEF767FFF8B105
:10A4580007F0BAFF002800F0B6805E4B1B6813F0C7
:10A46800040F00F0B2805C4B1B68012B01DC002557
:10A4780025E05A4BD3F80435E2880192584A0092F5
:10A488004FF457725749022004F020FC002516E0CB
:10A498002046FEF7A3FF0746A0B92046FEF760FE58
:10A4A800054658B12046FEF725FF06460F462846C2
:10A4B800FEF720FFB94208BFB0422BD37DB3284630
:10A4C8000FB0F0BD02AD26460FCE0FC50FCE0FC59B
:10A4D80096E80F0085E80F00BB788DF809307BB14E
:10A4E8009DF8083073B19DF811104B1C012199405B
:10A4F800013902A8FFF71CFFBB7813F0010F05D143
:10A508000025DCE77846FDF7B3FAECE72046FFF7CD
:10A5180045FBF5E705212846FFF7A4F9002507F0D4
:10A5280053FFB0B9667A731CE27DB2B1082606FB08
:10A5380003F6A2B14FF48073B34221D2254B1B68B6
:10A5480013F0040F43D0244B1B68002B0ADC0025B2
:10A55800B5E70520FFF7D2F9E4E70C26E7E74FF463
:10A56800C073E9E71D4BD3F8043501961E4A0092E3
:10A5780040F292321B49012004F0A8FB00259EE717
:10A58800E188A069FEF754FDE2690146A08A05F05A
:10A5980015FE002893D1324602212046FFF74AFBD8
:10A5A800054600288BD107F00FFF40B9002120464F
:10A5B800FFF7BEFE02210020FEF756FE7FE7784631
:10A5C800FDF756FAF2E7002579E7002577E7002539
:10A5D80075E700BF542E0020502E002000100140C7
:10A5E800C08704008D870400EC8704002DE9F0473C
:10A5F80082B007460E46154698461046FFF722FFDA
:10A6080000284CD00446534B1B6813F0040F03D0AA
:10A61800514B1B68032B45DC07F0D6FE00284FD0B2
:10A62800226D297A01238B401A4238D113432365BE
:10A63800A6F1040A2B7AEA7D002A4FD04FF0080CC5
:10A648000CFB03FC617A8B424BD0002A4ED00823C6
:10A6580053454DD1A269AB699A420BD204F10C0E55
:10A6680005F10C09B9E80F00AEE80F0099E80300FE
:10A678008EE80300206F5246391D60441CF010FF1D
:10A688006B7813F0020F38D1266D2378002B3BD05E
:10A69800637A5A1C01239340013B9E4238D002B092
:10A6A800BDE8F0872D4BD3F804352A7A01922C4A5D
:10A6B80000924FF471722B49042004F007FBABE7BA
:10A6C8002046FFF77BF8237B012BA9D194F86C3047
:10A6D800002BA5D12046FFF787F8A1E74FF00C0C17
:10A6E800AEE70CEB0A03A4F84E30B3E70C23AFE750
:10A6F80004212046FFF7B6F8D1E701232A46F1B234
:10A7080038461BF025FFBFE77846FDF7B1F9BFE7EC
:10A7180007F05AFE90B16B7813F0020F13D143463D
:10A728002246B4F84E10206FFFF7FCFC01212046AA
:10A73800FEF720FE2046FFF773F8B0E7216D2046AC
:10A74800FFF7F6FDE7E70122E988A88A1BF0B0FFCA
:10A75800E5E700BF542E0020502E002000100140D5
:10A76800988804008D8704002DE9F04190B00028F6
:10A778004FD08046002A4ED01F4614460E4604ABE2
:10A7880000933B46FEF750FE054618B1284610B028
:10A79800BDE8F08104A8FFF7CBF905460028F5D1FC
:10A7A800204607F02DFF2269E168208905F006FDA3
:10A7B8000028EBD104A81BF053FF28B19DF81130F5
:10A7C80043F002038DF8113000230293039302A98A
:10A7D800608810F055F838B19DF8113043F0010346
:10A7E8008DF81130039B08939DF81130002BCDD0C4
:10A7F8009DF8103033B93B4604AA31464046FFF76E
:10A808009EFCC3E73B4604AA31464046FFF7EEFEEE
:10A81800BCE70E25BAE70E25B8E7000018B3F8B56F
:10A828000546174B1F68032F1FD80E460024B44255
:10A838000ED205EBC4035B68CBB115F8340010F0F9
:10A84800800F16D1B8B1FEF7DDFCB0B90134EEE7E0
:10A858000C4B43F8375003EBC7035E600137084AD7
:10A868001760002002E00E2070470420F8BD0E207B
:10A87800FCE70B20FAE70F20F8E70F20F6E700BF08
:10A88800083C00200C3C0020084B196861B110B549
:10A8980001E021463CB10C680B79002BF9D0034844
:10A8A80004F07DF9F5E710BD704700BF2040002097
:10A8B80038B5054630B1104B1C68ACB10F4B0122BE
:10A8C8001A7004E07846FDF7D3F8F4E724683CB141
:10A8D8002379002BFAD154F8043C28469847F5E729
:10A8E800064B1B78022B00D038BDFFF7CDFF034B7A
:10A8F80000221A70F8E700BF204000201C4000200A
:10A9080010B5044630B100232372211D034804F01A
:10A918001BF910BD7846FDF7ABF8F4E7204000209E
:10A9280010B5044650B10A4B1B78013BDBB2012B32
:10A9380008D9211D074804F032F910BD7846FDF703
:10A9480097F8F0E7024B02221A7001232372F4E70A
:10A958001C400020204000200A8883689B5A073347
:10A968009BB223F0030313449BB20288043A934238
:10A9780000D900230B80704710B582B00446836865
:10A98800CB1A02A921F8023DFFF7E6FFBDF8063011
:10A99800A068184402B010BD0088043880B270471F
:10A9A80043888268D018D152012383707047826827
:10A9B80000239370438083807047073189B221F068
:10A9C800030189B2428883889A4204D29B1A994229
:10A9D8001CDC0020704710B59A420FD90488A41ACD
:10A9E800A14215D98B4215D3032C03D9836813448C
:10A9F80004229A7000234380184606E082681344B4
:10AA08009B784BB9FFF7D3FF002010BD0420704797
:10AA18000020FAE70420F8E70420F6E738B50446F2
:10AA28000D468368828813448B4202D07846FDF72E
:10AA38001FF80023AB70211D2046FFF78DFFA28869
:10AA4800A36813449B78042B00D038BD0023A3804F
:10AA5800FBE710B50C468368428813448B4202D04A
:10AA68007846FDF705F80023A37010BD70B50646BB
:10AA780015460C46002944D0002E46D0B4F1005F9C
:10AA880008D94FF08053D3F80C3103F50023B4EB09
:10AA9800832F0ED3B4F5000F08D94FF08053D3F8A5
:10AAA8000C3103F50053B4EB832F02D37846FCF73F
:10AAB800DFFF6B1E2344B3F1005F08D94FF08052CB
:10AAC800D2F80C2102F50022B3EB822F0ED3B3F596
:10AAD800000F08D94FF08052D2F80C2102F500522D
:10AAE800B3EB822F02D37846FCF7C2FF042D10D9AE
:10AAF800358000237380B380B460043D2580A37043
:10AB080070BD7846FCF7B4FFB6E77846FCF7B0FFAF
:10AB1800B4E77846FCF7ACFFEAE738B50446A0B1DD
:10AB28006288A36813449B78012B12D0EFF3108539
:10AB380072B6A388A16819448B78032B0DD02046E0
:10AB4800FFF735FF05B962B638BD7846FCF790FFC8
:10AB5800E6E77846FCF78CFFE8E72046FFF70CFFAE
:10AB6800A368C31A638000238370EBE72DE9F041E3
:10AB78000E4615460446D0B1EEB16288A368134468
:10AB88009B78012B1BD025B32046FFF705FFA84271
:10AB980021D3EFF3108872B629462046FFF70DFF40
:10ABA800074680B1B8F1000F16D162B614E07846B6
:10ABB800FCF75EFFE0E77846FCF75AFFDDE77846EA
:10ABC800FCF756FFDFE729462046FFF7E9FE30602D
:10ABD800E8E7092700E009273846BDE8F081F8B51D
:10ABE8000C4616460546E0B1FCB1A378012B20D1EE
:10ABF8002388B34221D326B3EFF3108772B6268099
:10AC08000223A370E9182846FFF7A6FE6B88AA88D6
:10AC1800934203D0AA68134400229A7007B962B617
:10AC2800F8BD7846FCF724FFDEE77846FCF720FFFE
:10AC3800DBE77846FCF71CFFDAE77846FCF718FFF5
:10AC4800D9E77846FCF714FFD6E770B50D460446F9
:10AC580080B19DB1EFF3108672B6A288A368134441
:10AC68009A78042A0ED09A78022A13D0032A18D088
:10AC7800052013E07846FCF7FBFEEAE77846FCF788
:10AC8800F7FEE7E7211D2046FFF766FEA288A368C6
:10AC98001344E8E703229A702B60002006B962B6D5
:10ACA80070BD7846FCF7E4FE0020F7E738B50446A7
:10ACB80080B1EFF3108572B6A088A16801448B7843
:10ACC800042B0BD08878022814BF0020012005B976
:10ACD80062B638BD7846FCF7CBFEEAE72046FFF7B8
:10ACE8004BFE0146EEE738B5044630B1EFF3108568
:10ACF80072B6A088A168014407E07846FCF7B8FE60
:10AD0800F4E72046FFF738FE01468878C31EDBB219
:10AD1800012BF6D9022814BF0020012005B962B61C
:10AD280038BD70B50C46064678B194B1EFF310857E
:10AD380072B6A378012B10D0032B13D121463046CD
:10AD4800FFF76CFE05B962B670BD7846FCF790FE59
:10AD5800EBE77846FCF78CFEE8E721463046FFF73C
:10AD680078FEEFE77846FCF783FEEBE710B5EFF3E4
:10AD7800108472B68388816819448B78042B06D0B6
:10AD88008878B0FA80F0400904B962B610BDFFF7C0
:10AD9800F3FD0146F4E7000008B5064B9868002269
:10ADA8001A605A609A60DA601A615A619A6104F00E
:10ADB800A7FF08BD2440002000B585B00A4BDB681A
:10ADC80002228DF8002001934FF480530293074A22
:10ADD8006946012001F084F918B1002005B05DF83A
:10ADE80004FB0120FAE700BF244000204040002077
:10ADF80000B585B00A4B1B6802228DF8002001932C
:10AE08004FF480530293074A6946012001F068F91C
:10AE180018B1002005B05DF804FB0120FAE700BF77
:10AE28004440002040400020164BDA6813795179DD
:10AE38005B1A03F57F2303F6FF7302EB03339A4291
:10AE480005D002F580520F4BDA600320704700B539
:10AE580085B00D4B1B6801208DF8000001930B4B4A
:10AE68000393042302930A4A694601F039F918B199
:10AE7800002005B05DF804FB024B01221A7602207F
:10AE8800F7E700BF2440002044400020484000204D
:10AE98004040002000B585B00C4BDA680C4B1B68AD
:10AEA800043301208DF800000192039340F6FC73EF
:10AEB8000293084A694601F013F928B90120034BA7
:10AEC800187605B05DF804FB0020FAE7244000205E
:10AED800444000204040002000B585B00A4B1B6864
:10AEE80001208DF800000193084B0393042302937B
:10AEF800074A694601F0F4F818B1002005B05DF87A
:10AF080004FB0120FAE700BF444000203040002045
:10AF18004040002010B584B0104BDA681478104B0C
:10AF28001B68043301208DF80000019303920294FA
:10AF38000C4A694601F0D4F870B9094B1B6804F053
:10AF4800FC041C440434054B5C61D9680A780A4443
:10AF58001A61012004B010BD0020FBE72440002046
:10AF6800444000204040002008B50023092B09D8A0
:10AF7800064A52F82320824201D00133F6E7044AF8
:10AF8800536002E07846FCF773FD08BDD4880400DE
:10AF98002440002010B5214BDB6853B11F4B1B7EAA
:10AFA8005BB91E4B5B68092B15D97846FCF760FD29
:10AFB80011E07846FCF75CFDF0E77846FCF758FDB1
:10AFC800EFE7164B00225A60012C01D0032C23D145
:10AFD800124B1B7E03BB114B5A68114B53F822309E
:10AFE8009847044602280DD00328EAD00128EBD15F
:10AFF8000A4A536801335360092BE5D97846FCF7B0
:10B0080037FDE1E7054B1B7E1BB1044B02221A708A
:10B01800DAE7FFF7C1FED7E710BD00BF24400020E4
:10B02800D4880400104B1B681B685A1E12F1030FCA
:10B0380018D8C3F30B020AB10020704710B50B4AA9
:10B04800D360002313765376012414709360084864
:10B05800FFF78AFF0749204601F030F8FFF79AFF0B
:10B06800204610BD002070474440002024400020A6
:10B07800C1AD020081B0020008B50B78032B06D0E1
:10B088000B4B1B78012B06D0022B0BD008BD084BAD
:10B0980000221A76F4E7064B1B7E002BF6D1FFF749
:10B0A80079FFF3E70B78032BF0D1FFF775FEEDE797
:10B0B8002440002000B585B0174BDB6818784FF6A0
:10B0C800FF7203F58051184405F082F9F0B1024689
:10B0D800114BD9680B780B44984219D00E4B5B7E04
:10B0E80093B10E4B01208DF80000019203930423C5
:10B0F80002930B4A694600F0F3FF58B90120064B4A
:10B10800187605B05DF804FB064BEBE70120F8E77D
:10B118000120F6E70020F4E724400020808B04009B
:10B12800404000207C8B040008B5104BDB68187881
:10B13800002203F58051184405F04AF908B10120AE
:10B1480008BD0A4BDA68137951795B1A03F57F2336
:10B1580003F6FF7302EB03339A4205D002F58052DF
:10B16800024BDA600320EBE70220E9E724400020E5
:10B17800F0B585B0544BDE6872793379591E8A422E
:10B188001AD006F580510D780D4450490968081DFC
:10B198000F7907449B1A03F57F2303F6FF731B03FC
:10B1A80003F580531E446B88013B9BB247F6FE6251
:10B1B800934260D92C461AE00120434B58767EE032
:10B1C8007846FCF755FC15E024F47F6424F00F045E
:10B1D80004F5805423781C44A64247D9A54247D297
:10B1E8006388013B9BB247F6FE62934211D92388DC
:10B1F800002BE5D0238804EB830323F47F6222F03D
:10B208000F029342E0D06288B2F5FE4FDCD01C46B4
:10B21800E2E725462FE07846FCF72AFC15E024F4FF
:10B228007F6424F00F0404F5805423781C44A6425C
:10B2380020D9A5423BD26388013B9BB247F6FE6208
:10B24800934211D92388002BE5D0238804EB83038C
:10B2580023F47F6222F00F029342E0D06288B2F5B5
:10B26800FE4FDCD01C46E2E7254604E0002502E05C
:10B27800002500E00025E5B1144B19686A8801F53E
:10B288008051384605F0A4F8074690B101200E4BCE
:10B2980018768DF8000001950D4B03930423029353
:10B2A8000C4A694600F01CFF58B92C46CAE700252D
:10B2B800E1E7B5FA85F56D09034B5D76012005B028
:10B2C800F0BD0020FBE700BF2440002044400020E0
:10B2D800788B0400404000202DE9F04186B0674B90
:10B2E8001B692BB1654B5B6933B14FF0000846E031
:10B2F8007846FCF7BDFBF5E77846FCF7B9FBF4E7C1
:10B308007846FCF7B5FB15E025F47F6525F00F05B9
:10B3180005F580552B781D44AE421CD9AC421ED28F
:10B328006B88013B9BB247F6FE62934211D92B888A
:10B33800002BE5D02B8805EB830323F47F6222F0F2
:10B348000F029342E0D06A88B2F5FE4FDCD01D466A
:10B35800E2E72C4600E000241CB100943FE0002402
:10B36800FAE700230093019B002B62D14FF00108FC
:10B37800002C7DD0628847F6FF739A4278D0B8F1E6
:10B38800000F79D13D4B5A6922F47F6727F00F07E8
:10B39800BF1A07F580571C69DE68337972799B1AE2
:10B3A80003F57F2303F6FF731B0303F580531E4445
:10B3B800002301936388013B9BB247F6FE629342E8
:10B3C800CBD92546B3E77846FCF752FB22E024F4B4
:10B3D8007F6424F00F0404F5805423781C44A642AB
:10B3E800C1D92388019A02EB83029742BBD9009BFB
:10B3F800634023F47F6323F00F03002BB3D16388EA
:10B40800013B9BB247F6FE618B42ACD80192238880
:10B41800002BD8D0238804EB830323F47F6222F027
:10B428000F029342D3D06288B2F5FE4FCFD01C46AC
:10B43800D5E7124A526901208DF808000392009A54
:10B44800059204930E4A02A900F04AFE70B90B490E
:10B45800019B23F003024B6913444B6114B1074B62
:10B468001C6185E77846FCF703FBF8E7002000E05D
:10B47800012006B0BDE8F0810120FAE72440002051
:10B488004040002008B54FF010235B69B3F1FF3F3F
:10B4980003D04FF010235B6963B94FF080525169B4
:10B4A800136903FB01F3A3F58053054A1360FFF703
:10B4B800B9FD08BD4FF010235B69A3F58053F2E78F
:10B4C8004440002010B50446B0B1104B1B78CBB1F6
:10B4D8000E4BD968E3685879A3EB0032914213D335
:10B4E8001A79121A02F57F2202F6FF7203EB023371
:10B4F800994205D9002006E07846FCF7B9FAE4E756
:10B50800012000E0002010BD0020FCE724400020BE
:10B51800024B1878003018BF0120704724400020E3
:10B5280010B504460E4B1B78ABB92378032B02D019
:10B538007846FCF79DFA0A4B9C60E268DA600022C4
:10B548005A601A76012018705A76064900F0B6FD3E
:10B55800FFF720FD10BD7846FCF78AFAE5E700BF43
:10B568002440002081B00200014B1868704700BFDA
:10B578004440002010B5044680B163681BB12368BD
:10B588000BB1A36813B97846FCF772FAA3685A1E80
:10B59800134207D10023E360236110BD7846FCF70E
:10B5A80067FAEAE77846FCF763FAF3E770B5F0B1B3
:10B5B80004468268EAB1EFF3108572B60669C2687C
:10B5C800964210D0084621686268A368013B1E4075
:10B5D80006FB021108B11BF063FF236901332361E5
:10B5E80065B962B606E03DB962B6052502E00E25EA
:10B5F80000E00925284670BD0525FBE70025F9E789
:10B60800C0F30B0333BB39B301F6FF71090B134BBE
:10B618000222C3F80425114BD3F80034002BFAD0CA
:10B6280000220AE00D4BC3F808050C4BD3F8003490
:10B63800002BFAD000F5805001328A42F2D3074B32
:10B648000022C3F80425054BD3F80034002BFAD0A8
:10B6580000207047102070470920704700E0014023
:10B6680010F0030F2FD111F0030F2FD182B312F076
:10B67800030F2FD110B49208174B0124C3F80445C7
:10B68800154BD3F80034002BFAD002E00430043113
:10B698002246541E52B10B68B3F1FF3FF6D0036047
:10B6A8000D4BD3F80034002BFAD0EFE70A4B0021FA
:10B6B800C3F80415084BD3F80034002BFAD0104611
:10B6C8005DF8044B70471022104670471022FBE7C4
:10B6D8000922F9E70922F7E700E001404388012B36
:10B6E80005D0022B01D104300860012070470430D6
:10B6F8004860FAE708B508220221084804F071F901
:10B7080038B1074A91684160127B027204F0A2F9CD
:10B7180008BD044804F0CCFAFAE700BF5440002002
:10B72800A0400020142E00200E4B1B78CBB910B57A
:10B738000D4B5C6804F50054B4F1807F00D910BD4E
:10B7480004220121094804F04CF930B14460054A4B
:10B758000121117004F07EF9F1E7054804F0A8FA18
:10B76800EDE77047B4400020A0400020544000207E
:10B77800042E002010B5044608B1A04710BD784635
:10B78800FCF776F9F9E7000008B501210C4804F048
:10B7980089F920B902210A4804F084F928B1094836
:10B7A80004F086FAFFF7C0FF08BD074A00231360BC
:10B7B80053609360D3601361044A1370F2E700BFCB
:10B7C80054400020342E0020A04000207840002063
:10B7D80000B58DB00B4B1B7B012B0ED0094A92682C
:10B7E80004928DF8083003900CA8022300F82C3D31
:10B7F800FFF75EF80DB05DF804FB024A9268013A63
:10B808000492EEE7A040002010B58CB00C4682B937
:10B818004B88012B20D1134B1B7833B16268124B34
:10B828005A60104B00221A7016E07846FCF720F98F
:10B83800F4E7032A12D12C22002101A81BF059FE9B
:10B8480011238DF804300394084BDA6805921B69BC
:10B85800069301A8FFF72CF80CB010BD7846FCF74A
:10B8680007F9E8E7B4400020A04000205440002039
:10B8780000B583B001F0A4FF0021009101916B464F
:10B88800144A154803F0A2FF009BBBB1019AAAB164
:10B8980018681249886018790873934201D91B798E
:10B8A800A3B112680D4B1A600C4B1A685A60FFF767
:10B8B8003BFF01F0C9FF03B05DF804FB074B002212
:10B8C8001A609A601A73FFF715FFEDE700220A6005
:10B8D800EAE700BFE5B6020054400020A04000207F
:10B8E80008B504F03FFAA0F5805008BD00B587B050
:10B8F8000023009301930293039304930593FFF7A6
:10B90800EFFF009001230193064B03936946064815
:10B9180004F07FF910B907B05DF804FB034804F0A0
:10B92800C7F9F8E711B8020054400020242E00207F
:10B9380010B50B4B00241C605C609C60DC601C61D3
:10B9480001F0BCF9074B5860074A9A60074ADA6069
:10B958001C615C61064B1C70FFF7C8FF10BD00BF7F
:10B96800A04000207C400020A9BA02000087930371
:10B97800B540002008B5084B1B7803B108BD07483F
:10B98800074B036000F062FE064801F02FF9024BF6
:10B9980001221A70F2E700BF5040002094400020B6
:10B9A800D1BB02007C40002010B501F009FF164B06
:10B9B8001B7BFBB9144B9B7B0BBB134B1A8A41F2C5
:10B9C80082639A4204D8114B1B788BB1012300E0A3
:10B9D8000123B3B10C4B01221A7300241C829A680C
:10B9E80001329A60FFF786FE2046FFF7F1FE02E07B
:10B9F8000023EEE7082401F027FF204610BD0824A5
:10BA0800F9E70824F7E700BFA0400020B540002070
:10BA180010B501F0D5FE204B5B7B9BB11E4B9B7B89
:10BA2800F3B91D4B1A8A41F282639A4204D81B4B20
:10BA38001B782BB1012300E001239BB1012302E015
:10BA48000023FAE700231C460BB3134B00225A735A
:10BA58001B7B4BB1012B0ED07846FCF709F816E09A
:10BA68000023F0E70023EEE7FFF79EFF78B1784662
:10BA7800FBF7FEFF0BE0084B0020186058601873B6
:10BA88001882FFF7A5FEFFF735FEFFF74DFE01F020
:10BA9800DBFE204610BD00BFA0400020B5400020BE
:10BAA80008B5214B1B7B7BB1012B20D07846FBF7D7
:10BAB800DFFF1D4A138A013313821B4B5B8A13B1C4
:10BAC800013B194A538208BD174B1A8A41F2826317
