:020000022000DC
:1060000000F003206D630200556302005763020035
:10601000596302005B6302005D6302000000000040
:106020000000000000000000000000005F630200AC
:106030006163020000000000636302006563020008
:106040006763020067630200676302006763020020
:106050006763020067630200FD720200676302006B
:1060600067630200676302002DB4030067630200E8
:1060700067630200676302006763020067630200F0
:1060800067630200E14E040091D8020067630200DA
:10609000454F040067630200D5E403006763020014
:1060A00067630200676302006763020067630200C0
:1060B0006763020067630200000000000000000048
:1060C00067630200676302006763020067630200A0
:1060D0006763020067630200676302006763020090
:1060E000676302006763020067630200000000004C
:1060F0000000000067630200000000006763020008
:10610000000000000000000000000000000000008F
:10611000000000000000000000000000000000007F
:10612000000000000000000000000000000000006F
:10613000000000000000000000000000000000005F
:10614000000000000000000000000000000000004F
:10615000000000000000000000000000000000003F
:10616000000000000000000000000000000000002F
:10617000000000000000000000000000000000001F
:10618000000000000000000000000000000000000F
:1061900000000000000000000000000000000000FF
:1061A00000000000000000000000000000000000EF
:1061B00000000000000000000000000000000000DF
:1061C00000000000000000000000000000000000CF
:1061D00000000000000000000000000000000000BF
:1061E00000000000000000000000000000000000AF
:1061F000000000000000000000000000000000009F
:10620000344935480A1A02D0072291438D46334952
:1062100033480A1A06D00722914381F309880222E3
:1062200082F314882F483049304A00F042F8304851
:106230003049314A00F03DF830483149314A00F0E8
:1062400038F831483149324A00F033F831483249A0
:10625000324A00F02EF832483249334A00F029F829
:1062600032483349334A00F024F833483349002296
:1062700000F02AF832483349002200F025F832486D
:106280003249091A082902DB0022026041601F48D6
:106290001F49884205D00268043003B4904703BC0C
:1062A000F7E700208646EC4600200021284A904768
:1062B000FEE7884207D0521A05D0037801300B70F0
:1062C0000131013AF9D17047884202D002700130A1
:1062D000FAE7704700F0032000E8032000F00320F5
:1062E00000F0032090A10400A02D0020042F002026
:1062F000A4630200A46302006E75040090A1040070
:10630000A02D0020A02D0020BC760400BC76040047
:10631000BC760400BC760400BC760400BC760400A5
:10632000BC760400BC76040090A10400F4A2040032
:10633000042F0020042F0020042F0020116E0020C5
:10634000146E0020146E0020146E002014720020C1
:10635000C96A0200FEE7FEE7FEE7FEE7FEE7FEE7AA
:10636000FEE7FEE7FEE7FEE7704700BF094880470B
:1063700009484FF007018843854608488047084888
:10638000016841F470010160BFF34F8FBFF36F8F5D
:10639000FFF736BF6963020000F00320D1E8030075
:0463A00088ED00E0A4
:1063A4003FDF704741DF70477047000000B583B09E
:1063B4000F4B1B6813F4804F03D00E4B1B68032B49
:1063C4000ADC0322C8214FF4F03000F005FF0CF082
:1063D4004FFE03B05DF804FB074BD3F80435074ABE
:1063E400009254220649042008F068FBE9E700BF44
:1063F400542E0020502E002000100140E8790400A3
:10640400DE7904002DE9F04F91B0044603280FD83B
:10641400DFE800F0021F3793694B1B6813F4804FC9
:1064240003D0684B1B68032B08DC01238DF83C3038
:10643400012C40F2B68011B0BDE8F08F624BD3F866
:106444000435624A0092A7226149042008F036FB11
:10645400EBE75B4B1B6813F4804F03D0594B1B686D
:10646400032B03DC00238DF83C30E1E7564BD3F8D3
:106474000435584A0092B6225549042008F01EFB00
:10648400F0E74F4B1B6813F4804F03D04D4B1B6850
:10649400032B47DC4A4B1B6813F4804FC8D0494B8D
:1064A4001B68032BC4DD484BD3F804350B93002041
:1064B40001F004FD0546012001F000FD064602201E
:1064C40001F0FCFC0746032001F0F8FC80460420A0
:1064D40001F0F4FC8146052001F0F0FC3E4B53F83A
:1064E40020A0062001F0EAFC3C4B53F820B0072022
:1064F40001F0E4FC3A4B53F820300893CDF81CB07B
:10650400CDF818A0CDF81490CDF81080039702961A
:106514000195344B00930B9BC0222D49042008F0B5
:10652400CDFA85E7284BD3F804352F4A0092BC22D4
:106534002749042008F0C2FAACE7214B1B6813F486
:10654400804F03D01F4B1B68032B18DC0CF02AFD73
:1065540000BB1B4B1B6813F4804F3FF469AF194B0E
:106564001B68032B7FF764AF174BD3F804351F4A1E
:106574000092CF221649042008F0A0FA58E7124BE3
:10658400D3F804351A4A0092C6221149042008F0AF
:1065940095FADBE70EF0BCF90CF0FAFCFFF706FF06
:1065A40046E7144C208811F07BF90DAA0FA9204668
:1065B4001EF09EF99DF83C100D2000F0F3FD3AE723
:1065C400542E0020502E0020001001400C780400AE
:1065D400DE79040024780400F4760400D476040000
:1065E40014770400547804003C780400FC78040018
:1065F400E4780400282F00203038042800D970479C
:1066040008B5FFF7FFFE08BD08B503781C2B00D0C2
:1066140008BDFFF7CBFEFBE700B58BB020220021BD
:1066240001A820F03DFF01238DF8043007238DF8E5
:10663400073006238DF80C300C4B05930C4B099353
:106644000C4901A80CF0BCFC30B9042001F036FC64
:1066540040B90BB05DF804FB074A4FF4B87118F069
:106664002DFAF2E7054805F0FBFEF2E70D6602009D
:1066740009690200042F002088790400A02D00205D
:1066840000B583B0254A05214FF4103008F0FAF91B
:10669400234B1B6813F4804F03D0224B1B68032B3E
:1066A4001BDC1EF051FC20BB00F0DAFD1E4800F09C
:1066B400F7FD20BB00F0C0FF00F0DAFF01F006F8A0
:1066C400FFF7AAFF0120FFF76BFEF0B9042001F0E9
:1066D400F5FB00BB03B05DF804FB144BD3F80435A1
:1066E400134A00924FF4BD721249042008F0E6F9EF
:1066F400D7E7114A4FF4BE7118F0E0F9D4E70E4A17
:106704004FF4C07118F0DAF9D4E70B4A40F28B1158
:1067140018F0D4F9DAE70BF0EBFCDBE75DEA0200F2
:10672400542E0020502E0020096402000010014065
:1067340034790400DE7904008879040010B584B04B
:106744000378153B052B73D8DFE803F00372634E1F
:10675400809C041D5F4B1B6813F4804F03D05E4B79
:106764001B68032B0EDC20460BF0EAFC0E2834D801
:10677400DFE800F05E333333333333161633333309
:1067840033331600554BD3F8043582880192544AAA
:10679400009240F219125349042008F08FF9E2E7FD
:1067A4004C4B1B6813F4804F03D04B4B1B68002BDE
:1067B40006DC062232214FF4F03000F00DFD37E004
:1067C400464BD3F804350190474A009240F2251213
:1067D4004449012008F072F9EBE748B3434A40F218
:1067E4002D1118F06BF923E03A4B1B6813F4804F1A
:1067F4001ED0394B1B68032B1ADD384BD3F80435F4
:106804003B4A009240F235123649042008F056F90A
:106814000EE0304B1B6813F4804F03D02E4B1B68E3
:10682400032B07DC062232214FF4F03000F0D4FCB5
:1068340004B010BD294BD3F804352E4A009240F21F
:1068440039122849042008F039F9EBE7214B1B6879
:1068540013F4804F03D0204B1B68032B04DC01216D
:106864000E2000F09FFCE3E71C4BD3F804350289AB
:106874000192214A00924FF4A3721A49042008F0AD
:106884001DF9ECE7134B1B6813F4804F03D0124B34
:106894001B68032B0EDC00210E2000F083FC17483C
:1068A4001EF0BEFB0028C3D0104A4FF4AD7118F09F
:1068B40005F9BDE7094BD3F804350289817A0291C1
:1068C40001920F4A00924FF4AA720649042008F07C
:1068D400F5F8E0E7542E0020502E0020001001406F
:1068E40034770400DE7904005877040088790400C2
:1068F4007877040098770400B4770400082F002008
:10690400DC77040000B583B00C4B1B6813F4804F94
:1069140003D00B4B1B68032B04DC01F0FDFA03B01E
:106924005DF804FB074BD3F80435074A00924FF493
:10693400B2720649042008F0C1F8EEE7542E002094
:10694400502E00200010014068790400DE79040014
:1069540030B587B06421224800F0B2FB042001F076
:10696400ADFAB0B91F4B1B7803B302F001FA00F083
:10697400F9FC0CF06DFB60BB00214FF4F03000F02B
:1069840020FC0222C8214FF4F03000F025FC07B0AF
:1069940030BD154A002115481EF00EFB0028E1D039
:1069A400134A40F2971118F089F8DBE76C46114D51
:1069B4000FCD0FC495E8030084E80300684600F097
:1069C4001DFB0028D1D00A4A4FF4D27118F076F892
:1069D400CBE7074A40F2A91118F070F8CCE700BFE2
:1069E400FD650200042F0020AD63020064790400F9
:1069F40088790400BC76040010B5044600214FF4E5
:106A0400F03000F0DEFB04EB8404620032214FF42A
:106A1400C03000F0E1FB10BD08B500F013FC08BD68
:106A240000B585B0214B1B6813F4804F03D0204B75
:106A34001B68032B1FDC00F01BFE00F047FE03A8BD
:106A440012F088FB194B1B6813F4804F03D0184BCA
:106A54001B68032B1ADC00F0F5FB00214FF4F03027
:106A640000F0AFFB0422C8214FF4F03000F0B4FB77
:106A740005B05DF804FB0F4BD3F804350E4A0092C1
:106A8400FF220E49042008F019F8D4E7094BD3F883
:106A94000435BDF80C200192094A00924FF4857226
:106AA4000649042008F00AF8D5E700BF542E002058
:106AB400502E002000100140047A0400DE79040006
:106AC400207A040008B5FFF7DBFDFFF741FF01E082
:106AD400FFF768FC042001F0F1F90028F8D0F1EE8A
:106AE400103A23F09F03E1EE103AF1EE103A024B14
:106AF4004022C3F88421EBE700E100E030B583B025
:106B0400044615461D4B1B6813F4804F03D01C4BE1
:106B14001B68032B11DCA36B04F13C01204698474E
:106B240094F83C302B7094F83D306B70236C0BB1AF
:106B3400626C6AB16B6003B030BD124BD3F804359C
:106B4400114A009296221149042007F0B7FFE2E7A8
:106B54001EF07CFAA16C1EF07FFA4FF47A7303FBEB
:106B640000F0C20B236C934205D3B0F5004F02D35F
:106B74009B1A6B60DFE700236B60DCE7542E002078
:106B8400502E002000100140B87A0400AA7A0400B4
:106B940010B588B00446436CE3B9036C13B190F8A4
:106BA4003D20BAB194F83D2084F83C208DF818209B
:106BB4008DF81920079306A920461DF08BFC94F844
:106BC4004C303BB9636B94F83C1020469847012342
:106BD40084F84C300F4B1B6813F4804F03D00E4BDA
:106BE4001B68042B01DC08B010BD0C4BD3F8043532
:106BF40094F83C2094F83D10206C0490606C039051
:106C040002910192064A009272220649052007F079
:106C140055FFE8E7542E0020502E002000100140BC
:106C2400FC7A0400AA7A040030B583B00446036BEE
:106C340018681EF0F5F9636C3BBB236C1BB3590C4D
:106C4400D8034FF47A72002310F5FA7041F1000171
:106C540020F08CFAB0F1807F2AD2042831D9236B3A
:106C64002246014618681EF0BDF905461EF0EEF9ED
:106C7400A06445B11C4B1B6813F4804F03D01B4B1D
:106C84001B68002B25DC03B030BD256B590CD803E1
:106C94004FF47A72002310F5FA7041F1000120F0EC
:106CA40065FA2246014628681EF09CF90546E0E78D
:106CB400236B22466FF07F4118681EF093F9054656
:106CC400D4E7236B2246052118681EF08BF905468C
:106CD400CCE7074BD3F80435064A009255220649FF
:106CE400012007F0EBFECEE7542E0020502E0020AA
:106CF40000100140DC7A0400AA7A0400F0B583B0E5
:106D0400044617461E46089D1A4B1B6813F4804F11
:106D140003D0194B1B68032B1BDC002384F84C3075
:106D24003B7884F83D300EB373686364336823643E
:106D34002046FFF72DFF2046FFF776FF3DB194F87C
:106D44003C302B7094F83D306B70236C6B6003B057
:106D5400F0BD0A4BD3F8043512780192084A009228
:106D6400B8220849042007F0A9FED6E7002363648B
:106D74002364DDE7542E0020502E00200010014033
:106D8400C47A0400AA7A040038B50446436C9BB95B
:106D9400056CADB1690CE8034FF47A72002310F569
:106DA400FA7041F1000120F0E1F9B0F1807F0BD3DA
:106DB400A5F2FF15256403E000234364FFF7E8FE12
:106DC4002046FFF731FF38BD002323642046FFF738
:106DD400DFFEF5E7A0B110B504460D4AC262426B6E
:106DE4008AB1826B8AB11DF03FFB034608B1184695
:106DF40010BD084A0021206B1EF0DEF80346F6E7BA
:106E04000E23184670470E23F1E70E23EFE700BF69
:106E1400D47A04008D6D02002B4B1B78002B52D0CA
:106E240000B585B0012804D0032845D005B05DF82D
:106E340004FB0023029302A9012017F0F5F940BBDB
:106E440002A817F045FA38BB0123039303A90DF1F7
:106E5400060012F0FEFF10BBBDF8060012F06EFB38
:106E64000DF1050112F018FDE0B90DF0C7FA9DF817
:106E7400051000200DF08CFDB8B905F089FAC0B9F1
:106E8400114B00221A70114B1B68002BCED098476F
:106E9400CCE717F005FED3E717F002FED4E717F0AE
:106EA400FFFDD9E717F0FCFDDFE7784600F0EEFCC4
:106EB400E3E717F0F5FDE3E717F080FA0028B5D013
:106EC40017F0EEFDB2E77047FA2F0020FC2F0020E8
:106ED40008B5064B01221A70054805F0C1FA05F001
:106EE400A1FA00B908BD17F0DBFDFBE7FA2F00207B
:106EF400AC2D002008B503781C2B00D008BD074B2F
:106F04001B78002BFAD017F09DFA18B9044805F045
:106F1400ABFAF3E717F0C4FDF8E700BFFA2F00203F
:106F2400AC2D002008B50849084818F05FFA03465C
:106F340008B1184608BD032300220549096905481C
:106F440018F070FA0346F4E7143000208033002070
:106F5400FC2F00204C32002008B50378023B082B9C
:106F64003FD8DFE803F01C05113E3E2C3E3E3600C0
:106F74001E4B5B68002B34D0007A002831D01C4AA9
:106F84000121117098472CE0184B9B684BB3184AA9
:106F9400127832B3164A00211170984721E0154B3C
:106FA4001B784BB9114BDB681BB1114A00211170DE
:106FB4009847FFF7B7FF14E0FFF78AFF11E01022AC
:106FC4000A4B59690C4818F0BDFA50B117F068FD26
:106FD40007E08168C0680BF07BFF18B9054B0122FC
:106FE4001A7008BD17F05CFDF8E700BFFC2F002005
:106FF400F82F0020F92F00204C32002070B586B005
:1070040004461F4A03AB07CA03C323F8022B120C1E
:107014001A701C4E35460FCC0FC594E8030085E862
:107024000300736953B3184B009303AB174A184911
:10703400184818F097F9034610B1184606B070BD09
:10704400154819F059FE0146124818F0B7F90346DD
:107054000028F2D111481AF011F803460028ECD1A7
:107064000E481AF041F801460A4818F0A7F90346F9
:107074000028E2D1FFF756FF0346DEE70723DCE7EB
:10708400407B0400FC2F00205D6F020014300020C0
:10709400803300204C32002034300020FC310020AA
:1070A40008B5064B1B683BB115F05EFB002803DBFB
:1070B400024B1B689847F7E708BD00BFC0330020A8
:1070C40010B50C46144B1860144A012114481DF0E5
:1070D40073FF78B9610CE00341F26F7200238B42B5
:1070E40008BF82420BD24FF47A72002320F03EF89C
:1070F400014605E00B4A4A2117F0E0FCEAE70521C6
:10710400002209481DF06EFF00B910BD054A4B214D
:1071140017F0D4FCF9E700BFC0330020A5700200CB
:107124004C7B0400507B0400C433002008B5134B8F
:107134001B6873B14FF0A042D2F8043510490968B6
:107144004B40C2F804350D4A1368013B136023B168
:1071540008BD002017F0A4FCECE70A481DF060FF0E
:107164004FF0A042D2F804350549096823EA010327
:10717400054909680B43C2F80435E9E7E433002004
:10718400E8330020EC330020143400204FF0A043F7
:10719400D3F80425012303FA00F002420CBF184679
:1071A4000020704731B1012383404FF0A042C2F860
:1071B4000C357047012383404FF0A042C2F80835D4
:1071C400704721B14FF0A043C3F80C0570474FF04E
:1071D400A043C3F8080570475AB338B513461329BA
:1071E40000D838BD134A10605B00013B124A13609B
:1071F4004FF0A043D3F804351840104B1860002515
:107204004C0CC8034FF47A72002310F5FA7044EB67
:1072140005011FF0ABFF2A46014609481DF0E2FEB6
:107224000028DED1034B1A684FF0A043C3F80C25A5
:10723400D7E77047E8330020E433002014340020FB
:10724400EC33002008B504481DF0EAFE0021034B8E
:107254001868FFF7B6FF08BDEC330020E8330020C0
:1072640008B50D230BE04FF0A04103F5E0720320B5
:1072740041F8220001229A40C1F808250133102B5D
:10728400F1D9054A012105481DF096FE00B908BD53
:1072940017F006FCFBE700BF31710200A47B040079
:1072A400F0B1104A1060002309E00F4AD25C02F5E5
:1072B400E0724FF0A0410D4841F822000133032B46
:1072C400F3D90B4B4FF00042C3F804230020C3F85A
:1072D4007C01084BC02283F8062340221A607047C1
:1072E4000E2070470C340020A87B04000C0003001F
:1072F4000060004000E100E010B50024144BC3F826
:107304007C4103E0D11A14E00134E4B2032C1ED80A
:107314004FF0A043D3F810250E4B195D01238B4089
:107324009343F1D00C4B1B680C4AD2F80425991AEC
:10733400E8D443F233339942E6D9084BD3F8042511
:10734400054B1A60064B1B6820469847DCE710BDC6
:1073540000600040A87B04001034002000100140AD
:107364000C340020002869D02DE9F043CFB0064644
:10737400334B1B6813F4804F03D0324B1B68032B31
:107384000BDC2F4B1B6813F4804F03D02D4B1B6871
:10739400032B2ADC4FB0BDE8F08300230F2B0FD85A
:1073A400F25C29490D6810095900285C0DAC04F8F9
:1073B400130002F00F020131AA5C62540133EDE7BD
:1073C4000DAA00238DF8543003F1804303F588336C
:1073D400D3F8043502921D4A01921D4A00924122BB
:1073E4001C49042007F06AFBCBE71B4BD3F8043598
:1073F400B288F188307A747AB57AF77A96F80CC044
:1074040096F80DE096F80E8096F80F90CDF82C9033
:10741400CDF82880CDF824E0CDF820C00797069554
:107424000594049003910292326801920B4A0092EF
:1074340046220849042007F041FBABE7704700BF30
:10744400542E0020502E0020582E0020047C0400CE
:10745400187C0400F27B040000100140207C04002E
:1074640072DF704773DF704774DF70472DE9F047B0
:10747400A2B0074688469146314C0026C4F80660FF
:10748400E68130490B78C3EB43102F4D054425604A
:107494002E4A0244A2601F22A280A281013303F07B
:1074A40001030B704FF03C0A5246314613A81FF0FB
:1074B400F7FF06238DF84F30ADF8487001238DF89F
:1074C4004A30ADF85C3012AA1892ADF83C70ADF8B1
:1074D4004090CDF844800DEB0A021D928DF878306F
:1074E4005246314668461FF0DBFF02238DF8003018
:1074F400221D294613A816F08CFD90B9104B03F1F8
:107504000C029968684616F084FD68B9104A0C4963
:107514001048FFF7A5FF082809D070B922B0BDE8CC
:10752400F08717F0BDFAE9E717F0BAFAEEE70022A0
:1075340003490848FFF794FFEFE717F0B1FAEDE7C6
:107544005C340020183400201C3400206C340020EB
:10755400BC2D0020B82D0020B0F5202F04D2074BFD
:10756400A3FB0023DB0801E04FF6FF7308B103B966
:107574000123034A93819160704700BFCDCCCCCCEA
:10758400BC2D002008B50121054B1878FFF76AFFD0
:1075940018B9002005F082FE08BD17F081FAF8E75B
:1075A400B82D002008B5044B1878FFF75DFF00B92B
:1075B40008BD17F075FAFBE7B82D002076DF704799
:1075C4007ADF70477CDF704708B517F069FA08BDA9
:1075D40008B504F04DFF08BD00B583B0037823B1AE
:1075E400012B0BD003B05DF804FB3B214088FFF76F
:1075F400E5FF0028F6D017F053FAF3E7094B1B68B0
:1076040013F4804FEED0084B1B68032BEADD074BC5
:10761400D3F80435064A009268220649042007F08C
:107624004DFADFE7542E0020502E002000100140B8
:10763400D07C0400B67C040000B583B016F0BEFE16
:1076440068B90023019301A9012016F0EDFD48B9A2
:1076540001A816F03DFE40B903B05DF804FB17F035
:107664001FFAEEE717F01CFAF2E717F019FAF3E73E
:1076740000B585B09DF80C30012262F3030362F378
:1076840007138DF80C300F220F4903A8FFF79AFF58
:1076940098B90023ADF808307823ADF80430C82336
:1076A400ADF806304FF4C873ADF80A3001A8FFF7FF
:1076B40087FF28B905B05DF804FB17F0F1F9E8E796
:1076C40017F0EEF9F6E700BF607C040000B58BB05C
:1076D4000023ADF808307822ADF80420C822ADF8B4
:1076E40006204FF4C872ADF80A200693079301AB45
:1076F400039340F6CD4304934FF48033059303235F
:107704008DF81830064B0893064B099303A817F01D
:107714003BF810B90BB05DF804FB17F0C1F9F9E7B9
:10772400DD750200CD7502000620704700B587B0F4
:1077340041F2010398424CD020D944F2010398420B
:107744005DD044F20203984274D1464B1B6813F493
:10775400804F1ED0444B1B68002B1ADD434BD3F8DB
:10776400043510880390526802920191404A0092B5
:107774006C224049012007F0A1F90AE0012859D1FF
:10778400384B1B6813F4804F03D0374B1B68002B16
:1077940012DC4FF0A0434FF4F032C3F81825C3F8BD
:1077A4000C25EFF3108372B64DF6AD6C324B1B789B
:1077B400002B54D030BFF9E72C4BD3F80435029298
:1077C40001912E4A009260222A49012007F076F99D
:1077D400DFE7244B1B6813F4804FDAD0224B1B687D
:1077E400002BD6DD214BD3F8043502920191244AB3
:1077F400009263221F49012007F060F9C9E7194B81
:107804001B6813F4804FC4D0174B1B68002BC0DDDA
:10781400164BD3F804351068049050680390029115
:1078240092680192174A009277221249012007F0C8
:1078340045F9AEE70B4B1B6813F4804FA9D00A4BF4
:107844001B68002BA5DD094BD3F8043501910E4AC2
:1078540000927B220749012007F030F999E707B02D
:107864005DF804FB542E0020502E0020001001402F
:10787400947D0400427D0400D42D0020547D040036
:10788400707D0400B47D0400D87D040000B583B08D
:107894000023ADF80030054B01936A46014644F2DB
:1078A4000200FFF743FF03B05DF804FBE078040037
:1078B40001230B60704702230B60704703230B60A6
:1078C400704704230B60704710B50C4601F018FA9A
:1078D400206010BD0C4B1B6813F4804F03D00B4B7E
:1078E4001B68012B00DC704700B583B0084BD3F84C
:1078F4000435084A0092EE220749022007F0DEF818
:1079040003B05DF804FB00BF542E0020502E00206D
:1079140000100140B87E0400AA7E040010B586B0B1
:107924005068E8B11B4B1B6813F4804F03D01A4B0B
:107934001B68032B01DC06B010BD184BD3F80435CB
:107944004988147852780490039202940191144A5D
:1079540000924FF489721349042007F0AFF8EAE764
:107964000C4B1B6813F4804FE5D00B4B1B68032BA7
:10797400E1DD0A4BD3F8043549881278029201916B
:10798400094A009240F215120649042007F096F8BD
:10799400D1E700BF542E0020502E002000100140DB
:1079A400BC7F0400AA7E0400108004000C4B1B68FA
:1079B40013F4804F03D00B4B1B68012B00DC704782
:1079C40000B583B0084BD3F80435084A009240F25E
:1079D4002B120749022007F071F803B05DF804FB8D
:1079E400542E0020502E002000100140B87E0400C8
:1079F400AA7E040000B587B09068F0B11B4B1B68E9
:107A040013F4804F03D01A4B1B68032B02DC07B01E
:107A14005DF804FB174BD3F804354988049050688B
:107A24000390126802920191134A009240F24F129D
:107A34001249042007F042F8E9E70C4B1B6813F4E1
:107A4400804FE4D00A4B1B68032BE0DD094BD3F8CD
:107A540004354988126802920191094A00924FF450
:107A6400A9720649042007F029F8D0E7542E002013
:107A7400502E0020001001403C7F0400AA7E040028
:107A8400907F04000C4B1B6813F4804F03D00B4B06
:107A94001B68032B00DC704700B583B0084BD3F898
:107AA40004350191074A0092C5220749042007F0D2
:107AB40005F803B05DF804FB542E0020502E00207E
:107AC400001001403C800400AA7E04000C4B1B689B
:107AD40013F4804F03D00B4B1B68032B00DC70475F
:107AE40000B583B0084BD3F804350191074A0092DE
:107AF400C0220749042006F0E1FF03B05DF804FB4F
:107B0400542E0020502E0020001001403C80040020
:107B1400AA7E04000C4B1B6813F4804F03D00B4B5C
:107B24001B68032B00DC704700B583B0084BD3F807
:107B340004350191074A0092BB220749042006F04C
:107B4400BDFF03B05DF804FB542E0020502E00202E
:107B5400001001403C800400AA7E04000C4B1B680A
:107B640013F4804F03D00B4B1B68032B00DC7047CE
:107B740000B583B0084BD3F804350191074A00924D
:107B8400B6220749042006F099FF03B05DF804FB10
:107B9400542E0020502E0020001001403C80040090
:107BA400AA7E040000B583B0012A20D053B253B199
:107BB400022A36D0254A40F20711032016F07EFF30
:107BC40003B05DF804FB224B1B6813F4804FF7D01D
:107BD400204B1B68032BF3DD1F4BD3F804351F4ADE
:107BE4000092FA221E49042006F068FFE8E7062204
:107BF40032214FF4F030FFF7EFFA154B1B6813F402
:107C0400804FDDD0134B1B68032BD9DD124BD3F807
:107C14000435144A0092FF221149042006F04EFF55
:107C2400CEE70B4B1B6813F4804FC9D0094B1B687C
:107C3400032BC5DD084BD3F804350B4A009240F200
:107C440003120749042006F039FFB9E7547E040003
:107C5400542E0020502E002000100140D87E040035
:107C6400AA7E0400F87E0400187F040000B583B0E7
:107C7400012A21D053B253B1022A38D0264A4FF4F4
:107C8400A271032016F01AFF03B05DF804FB234B26
:107C94001B6813F4804FF7D0214B1B68032BF3DDD3
:107CA400204BD3F80435204A009240F237121F4982
:107CB400042006F003FFE7E7062232214FF4F030F8
:107CC400FFF78AFA154B1B6813F4804FDCD0144B72
:107CD4001B68032BD8DD134BD3F80435144A0092E8
:107CE4004FF49E721149042006F0E8FECCE70B4BDA
:107CF4001B6813F4804FC7D0094B1B68032BC3DDEB
:107D0400084BD3F804350B4A00924FF4A07207498C
:107D1400042006F0D3FEB7E7547E0400542E00205E
:107D2400502E002000100140D87E0400AA7E0400DA
:107D3400F87E0400187F040008B5084600F0D0FF60
:107D440008BD000010B582B00C460D4B1B6813F43F
:107D5400804F03D00B4B1B68032B05DC21461020FE
:107D6400FFF720FA02B010BD074BD3F80435019198
:107D7400064A00929A220649042006F09FFEEDE787
:107D8400542E0020502E0020001001403C8004009E
:107D9400AA7E040010B582B00C460D4B1B6813F488
:107DA400804F03D00B4B1B68032B05DC21460F20AF
:107DB400FFF7F8F902B010BD074BD3F80435019171
:107DC400064A009293220649042006F077FEEDE766
:107DD400542E0020502E0020001001403C8004004E
:107DE400AA7E040010B582B00C460D4B1B6813F438
:107DF400804F03D00B4B1B68032B05DC21460E2060
:107E0400FFF7D0F902B010BD074BD3F80435019148
:107E1400064A00928C220649042006F04FFEEDE744
:107E2400542E0020502E0020001001403C800400FD
:107E3400AA7E040010B582B00C460D4B1B6813F4E7
:107E4400804F03D00B4B1B68032B05DC21460D2010
:107E5400FFF7A8F902B010BD074BD3F80435019120
:107E6400064A009285220649042006F027FEEDE723
:107E7400542E0020502E0020001001403C800400AD
:107E8400AA7E040010B50C461020FFF77FF920707D
:107E940010BD10B50C460F20FFF778F9207010BD07
:107EA40010B50C460E20FFF771F9207010BD10B507
:107EB4000C460D20FFF76AF9207010BDF8B5044692
:107EC40000F01EFF4FEA107EC0F30362C0F3035CB0
:107ED400C0F30347C0F30336C0F30325C0F3031113
:107EE40000F00F03072C14D8DFE804F00405070999
:107EF4000B0D0F1172461046F8BD6246FBE73A4679
:107F0400F9E73246F7E72A46F5E70A46F3E71A4661
:107F1400F1E70022EFE700002DE9F04F8BB000F00D
:107F2400F7FEA24B1B6813F4804F03D0A04B1B68D1
:107F3400032B34DC9F48002180F8281080F8291096
:107F44009D4B036501679D4B83669D4BC36600F0A3
:107F5400A9FD002862D1954B1B6813F4804F03D010
:107F6400934B1B68032B5FDC964B974A1A63974A23
:107F7400C3F88020964AC3F8D020964AC3F820213B
:107F84008C4B954AC3F8E820944AC3F88021944A5C
:107F9400C3F81822934AC3F8B02200245AE1924B42
:107FA400D3F804450020FFF789FF05460120FFF7B9
:107FB40085FF06460220FFF781FF07460320FFF7EF
:107FC4007DFF80460420FFF779FF81460520FFF7F7
:107FD40075FF864B53F820A00620FFF76FFF844BF4
:107FE40053F820B00720FFF769FF824B53F8203085
:107FF4000893CDF81CB0CDF818A0CDF81490CDF8A6
:1080040010800397029601957B4B009323464FF40F
:10801400B1727A49042006F051FD8BE7784A4FF497
:10802400B67116F04BFD96E76F4BD3F80435614AF1
:1080340012880192734A009240F26D126F49042033
:1080440006F03CFD90E7A30023441A015D48104468
:10805400002380F8283080F829306B4B53F8243003
:1080640043636A4B53F824308363611CC9B2FEF73F
:10807400B1FEF0B94D4B1B6813F4804F00F0F28051
:108084004B4B1B68032B40F3ED80574BD3F804355F
:1080940004EB84010A014B498A5A0292621C019240
:1080A4005B4A009240F29B125449042006F006FDFC
:1080B400D8E0534A4FF4CD7116F000FDDAE7554B82
:1080C400342000FB0430544B03630023836280F8A4
:1080D4002C3080F82D30611CC9B21CF0CFFBF0B9F4
:1080E400324B1B6813F4804F00F0C280304B1B6886
:1080F400032B40F3BD803C4BD3F80435342202FB00
:1081040004F244498A5A0292621C0192434A009240
:108114004FF4D2723949042006F0D0FCA8E0384A62
:1081240040F2A31116F0CAFCDAE7651C214B982033
:1081340000FB0530002380F8283080F829300367DD
:10814400374B53F824308366364B53F82430C366D8
:10815400E9B200F0A7FCE8B9144B1B6813F4804F94
:1081640000F08C80124B1B68032B40F387801E4B5E
:10817400D3F80435982202FB05F20E498A5A02927A
:108184000195294A00924FF4D7721C49042006F045
:1081940095FC73E01A4A40F2AD1116F08FFCDBE750
:1081A400174A4FF4DB7116F089FC80E0542E00204E
:1081B400502E002030360020648104003D7D0200F2
:1081C400CD780200F83900208481040088810400FD
:1081D4008C81040090810400688104006C81040097
:1081E400708104007481040000100140147E0400B6
:1081F400F47D0400347E040054780400AA7E040054
:10820400547E040074800400488104003881040012
:10821400988004002839002078810400C08004007C
:108224006480040054800400E8800400264BD3F8E2
:108234000435C4EBC401CA0024498A5A0292621C60
:108244000192234A009240F2B7122249042006F018
:1082540035FC0134032C34DC2046FFF72FFE0128C3
:108264003FF4F1AE2046FFF729FE02283FF427AF82
:108274002046FFF723FE03283FF457AF2046FFF7BD
:108284001DFE0428E5D1E3001B1BDA000F4810444F
:10829400114B43630023C36280F8303080F83130DF
:1082A400611CC9B21EF028FF00287FF479AF0B4B84
:1082B4001B6813F4804FCCD0094B1B68032BC8DD1B
:1082C400B4E70BB0BDE8F08F001001404C3500203E
:1082D40010810400AA7E040058810400542E00205A
:1082E400502E002008B5034B53F820300846984719
:1082F40008BD00BFAC82040008B5034B53F820301E
:108304000846984708BD00BFBC820400D0F880002E
:10831400003018BF0120704790F88430012B03D936
:10832400022B0FD000207047C36F013B13F1030FE2
:1083340004D8D0F888301BB900207047002070475B
:1083440001207047C36F013B13F1030F04D8D0F829
:1083540088301BB900207047002070470120704707
:1083640010B584B0044630301CF008FA0023E367EB
:1083740094F88430022B01D0A36F6367636F019379
:10838400A36F02930023039301A920461EF07EFEEF
:10839400A36E616F2046984704B010BD90F88430F6
:1083A400022B01D10020704770B5044630301CF018
:1083B400B9F94D01430145EAD0621B1A62EB01028F
:1083C400950045EA93759E002A46331841EB020254
:1083D400D50045EA5375D9000B46D80B40EA454011
:1083E400E90BE26F0023994208BF904201D30120B8
:1083F40070BD0020FCE70000F0B583B0044690F89F
:108404008430022B3BD0856FD0F88C60AD1B3030AC
:108414001CF088F94F01430147EAD0621B1A62EB52
:108424000102970047EA93774FEA830C1CEB0003A1
:1084340047EB0101CA0042EA5372D800C30B43EA76
:108444004243D20BE91705FB02F203FB0122A5FB11
:1084540003011144E26F00231EF0EFFE3044606715
:10846400A36E616F204698472D4B1B6813F4804F11
:1084740003D02C4B1B68042B2ADC03B0F0BDD0F8CE
:108484008C5030301CF04EF94E01430146EAD06264
:108494001B1A62EB0102960046EA93769F0032466D
:1084A4003B1841EB0202D10041EA5371D800C30BDF
:1084B40043EA4143CA0BD4F88860A3FB060106FBD8
:1084C4000211E26F00231EF0B8FE28446067C7E77C
:1084D400154BD3F8045504F130001CF023F94C017A
:1084E400430144EAD0621B1A62EB0102940044EA9D
:1084F40093749E002246331841EB0202D10041EAF4
:108504005371D800C30B43EA41430193074B0093D3
:108514002B464FF4A1720649052006F0CFFAACE7CA
:10852400542E0020502E0020001001409882040098
:108534008A820400F0B583B004461546294B1B68B3
:1085440013F4804F03D0284B1B68032B11DCE36E1C
:1085540004F1740120469847636F2B60A36F6B602E
:1085640094F88430022B10D094F89530A3B9AB6002
:1085740010E01E4BD3F804351D4A009240F28F12CE
:108584001C49042006F09AFAE1E7E36F0BB14FF0BF
:10859400FF33AB6003B0F0BD94F89530DBB2012B30
:1085A40002D1E36FAB60F5E7E66F04F130001CF035
:1085B400B9F84C01430144EAD0621B1A62EB010290
:1085C400940044EA93749F0022463B1841EB020254
:1085D400D10041EA5371D800C30B43EA4143F31A73
:1085E400AB60D7E7542E0020502E0020001001402D
:1085F400B87A04008A820400F0B583B0044690F887
:108604008430022B4FD0D0F88850002DB8BF6D4273
:10861400002D4ED0E26F104600265301D10E9B1A56
:1086240061EB06018A0042EA93729F0011463818F2
:1086340046EB0101CB0043EA5073C20010461946D1
:108644002A4633461EF092FD06460F46002908BF0F
:10865400B0F57A7F3DD23F4B1B6813F4804F03D0B3
:108664003D4B1B68032B28DC21220023C4E90E2385
:10867400384B1B6813F4804F03D0374B1B68032B14
:108684004DDC2046012300F8303F1CF04EF840B189
:10869400304B1B6813F4804F03D02F4B1B68002B07
:1086A4004BDC03B0F0BDD0F88850002DB8BF6D424C
:1086B400AEE77846FFF7EAF8ACE7284BD3F8043581
:1086C400274A00924FF48D722649042006F0F6F9E9
:1086D400CAE7204B1B6813F4804F03D01E4B1B6862
:1086E400032B10DCF90341EA5641F0031E4D1F4AE7
:1086F400002340194FF0000545EB01011EF036FD43
:10870400C4E90E01B4E7154BD3F80435184A0092B6
:108714004FF490721349042006F0D0F9E2E70F4BAE
:10872400D3F80435A26B0192124A00924FF492726C
:108734000C49042006F0C2F9A3E7084BD3F804352A
:108744000D4A009240F22B120649012006F0B6F9B8
:10875400A7E700BF542E0020502E00200010014037
:10876400B48104008A82040020A1070040420F0063
:10877400D8810400008204002082040010B582B075
:108784000446002280F83020D0F88030590CD803F9
:108794004FF47A72002310F5FA7041F100011EF0D3
:1087A400E5FCC4E90E0104F130001BF0BEFF40B14A
:1087B4000A4B1B6813F4804F03D0094B1B68002B32
:1087C40001DC02B010BD074BD3F80435064A009211
:1087D400FB220649012006F071F9F2E7542E00202D
:1087E400502E002000100140948104008A8204006D
:1087F40008B502460321903008F0D5FE08BD0000FC
:1088040030B585B00446089D002B2FD019465B680F
:10881400C0F880300B68C3671368002B2FD047F66D
:10882400FF73A3671368C4F88830636FC4F88C308F
:10883400022384F884301D4B1B6813F4804F03D04B
:108844001B4B1B68032B1DDC2246022104F1900004
:1088540008F0A9FE45B1636F2B60A36F6B60E36FF3
:108864000BB14FF0FF33AB6005B030BDC0F88030C2
:10887400036F13B11B68C367CEE7C367CCE70D4B27
:10888400A367CFE70C4BD3F80435E16F0391D4F819
:108894008010029112680192084A009240F2492223
:1088A4000749042006F00AF9CEE700BF542E002041
:1088B400502E00200080FFFF001001406C83040054
:1088C4008A82040030B587B004460A9D43B3194632
:1088D4005B68C0F880300B68C3671168A167002328
:1088E40084F88430626FC4F88C208A1AC4F8882013
:1088F400194B1B6813F4804F03D0184B1B68032BD0
:1089040017DC2246002104F1900008F04CFE2DB142
:10891400636F2B60A36F6B60E36FAB6007B030BD18
:10892400C0F88030036F13B11B68C367D5E7C36712
:10893400D3E70B4BD3F804350492E26F0392D4F8D7
:10894400802002920191074A009240F2D112064916
:10895400042006F0B3F8D4E7542E0020502E002053
:10896400001001409C8304008A820400F0B585B0A5
:10897400044617460A9E5BB31A465B68C0F880300B
:108984001368C367012384F884303B683D4DA5FB1D
:108994000325ED0BC5EB05455D1B201D1BF042FEB9
:1089A400F8B9394B1B6813F4804F1DD0374B1B6843
:1089B400032B19DD364BD3F804353A790192354A45
:1089C400009240F201223449042006F077F80BE0CB
:1089D400C0F88030036F13B11B68C367D2E7C36765
:1089E400D0E7636FC4F88C30D4F88C302B44A36781
:1089F400C4F88850244B1B6813F4804F03D0234BD6
:108A04001B68032B17DC204B1B6813F4804F03D027
:108A14001E4B1B68032B21DC2246012104F190002C
:108A240008F0C1FD2EB1636F3360A36F7360E36F11
:108A3400B36005B0F0BD164BD3F80435E26F039272
:108A4400D4F8802002923A680192144A00924FF4BA
:108A540003721149042006F031F8D4E70C4BD3F823
:108A64000435A26F0392626F0292D4F88C200192B3
:108A74000B4A009240F20F220749042006F01EF828
:108A8400CAE700BF01800080542E0020502E002031
:108A940000100140C88204008A820400FC820400A1
:108AA40028830400D8B110B50446826ED2B1C26ED8
:108AB400D2B10E4BC3621EF0ABFA034608B118469E
:108AC40010BD24640A4B63640A4904F1900008F061
:108AD40054FD04F130001BF063FE0346EFE70E2360
:108AE400184670470E23EAE70E23E8E724840400BF
:108AF400F58702001484040008B5804708BD00000F
:108B040008B5034A4621032015F0D8FF08BD00BF6D
:108B14006884040008B508224FF4A061084806F0F0
:108B240028FE48B10246074B03CB506091601046C3
:108B340006F058FE002008BD034806F081FFF9E75F
:108B4400B83B0020DC3B0020E82D002000B583B0BA
:108B54000823019301AB094A4FF4A061084806F0C9
:108B6400C9FD034628B9B3FA83F0400903B05DF8A0
:108B740004FB024A002111605160F4E7DC3B002051
:108B8400B83B002000B58BB008A909A80AF07EFA0A
:108B9400A8B9194B0593194B0693194B0793042352
:108BA4000493099BA3F5805302930123039302A921
:108BB400144806F0F6FE38B90BB05DF804FB124A0F
:108BC4005D2115F07BFFE4E7104806F039FF104BF8
:108BD4001B6813F4804FEFD00E4B1B68002BEBDDAA
:108BE4000D4BD3F804350D4A00926A220C4901203A
:108BF40005F064FFE0E700BF718C0200058B020002
:108C0400298C0200B83B002068840400D82D002081
:108C1400542E0020502E0020001001403484040003
:108C2400BE8404000C4B1B6813F4804F03D00B4B21
:108C34001B68032B00DC704700B583B0084BD3F8E6
:108C44000435084A009251220749042005F036FFF2
:108C540003B05DF804FB00BF542E0020502E00200A
:108C640000100140CC840400BE84040010B582B01E
:108C74001446154B1B6813F4804F03D0134B1B6829
:108C8400032B07DC012C10D0022C12D0032C14D09F
:108C940002B010BD0E4BD3F804350E4A00923622B2
:108CA4000D49042005F00AFFECE77846FEF7EEFDD7
:108CB400EAE77846FEF7EAFDE8E7084A3F210420A0
:108CC40015F0FCFEE4E700BF542E0020502E0020D7
:108CD40000100140E4840400BE840400688404009D
:108CE40008B5054B1860FFF715FF00B908BD034A26
:108CF400A22115F0E3FEF9E7DC3B002068840400C0
:108D040008B5FFF723FF014B186808BDDC3B0020C2
:108D140008B5FFF737FF08BD10B40346044C0068DC
:108D240059689A68DB680FC45DF8044B704700BF4C
:108D3400E43B00200B4B0C4A92E8030083E8030059
:108D440003F10802094903C982E80300DA7904211E
:108D540061F30712DA711A7A022161F387121A7227
:108D6400704700BFE43B002060000010A400001026
:108D740000487047E43B002000231F2B09D8074913
:108D840001EBC30000224280426001F8332001332A
:108D9400F3E7034B00221A60704700BFF43B002046
:108DA400F43C002030B405460F4B1B6800240AE055
:108DB4001F230E4A12F83300A0B102EBC3025288FB
:108DC400AA4207D001341F2C0BD85A1E002BEFD017
:108DD4001346EEE7054A02EBC30252688A42F1D118
:108DE40000E0002030BC7047F43C0020F43B00203D
:108DF40030B40A4A13680A4C04EBC30568806960FE
:108E0400012104F833100B441360202B01D030BC33
:108E14007047134600221A60F9E700BFF43C0020B3
:108E2400F43B0020006F024BC01A18BF01207047AA
:108E3400BC3D0020C0F30C038B4204D2C91A014488
:108E4400A1F500507047C91A08447047C37D002B30
:108E540042D0C3780A7802F0800203F07F03134300
:108E64000B7002780B7803F07F0343EAC2130B7094
:108E74000378002B41D030B48378082B14BF002230
:108E840001224B7803F07F0343EAC2134B70C58879
:108E940003F08003C5F3861423434B708A7802F0F1
:108EA400030242EA8502D2B28A70057A02F0FC0219
:108EB400C5F3C10422438A70CB7803F01F0343EA4D
:108EC4004513DBB2CB70427A03F0E00302F01F02D9
:108ED4001343CB7030BC7047C3780A7802F0BF02EA
:108EE4009B0103F0400313430B70027903F0C003AA
:108EF40002F03F0213430B70B3E770470023032BC8
:108F04002CD810B402E00133032B23D8144C742260
:108F140002FB034292F84C20012AF4D1742202FB92
:108F24000342948AC2899442EDD10D4C742202FB0F
:108F34000342D2888A42E6D1742202FB0342B2F889
:108F44005C2012B1848AA242DDD10548742202FB5E
:108F5400030000E000205DF8044B704700207047D8
:108F64003C3F0020002300E00133032B13D80B49BE
:108F7400742202FB031292F84C20022AF4D17422C8
:108F840002FB0312918A828A9142EDD10348742232
:108F940002FB030070470020704700BF3C3F0020E5
:108FA40008B9042070470820704730B403460C46C3
:108FB4000978C17000214162A1680B2903D8217B83
:108FC40001B3012100E0012119700020987029B13A
:108FD400A1680731C9080139597218720121D9757C
:108FE40003F10C0504F1100103C985E80300E189CC
:108FF4009982A1691962217F9975216AD9629A625D
:1090040030BC70470021DFE70021174B1B688B42FF
:1090140027D90023154A02EBC10252689A421ED98D
:1090240010B40FE060685DF8044B704701310E4BDB
:109034001B688B4211D900230C4A02EBC10252680F
:109044009A42F3D9094A52F8312002EBC30412F8C8
:1090540033208242E6D00133EEE70020E3E701311A
:10906400D3E70020704700BFF83C0020FC3C002000
:1090740030B58DB005460C462C22002101A81EF007
:109084000FFA10238DF8043002958DF80C4001A8D6
:1090940001F020FB0DB030BD70B58CB006460D4616
:1090A40014462C22002101A81EF0FAF90F238DF892
:1090B4000430ADF808604FF0000365F300038DF849
:1090C4000A308DF80B4001A801F004FB0CB070BD10
:1090D40000B58DB010B913F1020F06D1074B186813
:1090E40004F004FB0DB05DF804FB01228DF80420AC
:1090F400029301A801F0EEFAF0E700BF1C3D002046
:10910400D0B50446037853B1E3691F0A1E06E1880B
:10911400A069FFF78FFE301847F10001D0BD7846F3
:10912400FEF7B4FBF0E70000F8B50546002400E0C4
:109134000134032C1FD8114A742303FB042393F82E
:109144004C30022BF4D1742303FB04239A8AAB8A98
:109154009A42EDD12846FFF7D3FF06460F46074B48
:10916400742000FB0430FFF7CBFF8F4208BF864218
:10917400DED2012000E00020F8BD00BF3C3F00200B
:1091840038B504460D46037853B10023072B0ED897
:10919400A18A1A011248825A914205D00133F5E797
:1091A4007846FEF773FBF0E71B010021C1520D4A1C
:1091B4001368591C116003F00703A08A1A010849B7
:1091C400885255B16278064D05EB0315AA70204606
:1091D400FFF796FFC5E9020138BD0022F3E700BF9F
:1091E400203D0020A03D0020F8B5064603783BB1A1
:1091F4003046FFF785FF04460D46B08A002304E09D
:109204007846FEF743FBF3E70133072B0ED81A0128
:1092140007498A5A8242F7D101EB0312D2E9026765
:10922400AF4208BFA642EFD1104600E00020F8BDCF
:10923400203D0020F8B5069C002962D00F46166830
:109244005568D2F808E0D2F80CC0E6602561C4F88D
:1092540014E0C4F818C016695569E6612562002255
:1092640062700278D209227062B30421B9424AD8EA
:10927400E57D4DB3017801F07F01E1700021A1701B
:109284009AB14278920102F4FE52817842EA910244
:10929400E2808278D20002F01802C17842EA5112C8
:1092A4002272C27802F01F0262721D4600236362BA
:1092B4002B78032B21D82A78144B53F82230E362FD
:1092C4000020F8BD0121D1E70578C5F38015E570CC
:1092D400057805F03F05257142B190F90110002988
:1092E40002DB0421A170CBE70821FBE70425A5706C
:1092F4002944B942C4D90920E3E77846FEF7C6FAFF
:10930400D9E70920DDE70920DBE700BFFC8404007E
:1093140070B50C461E460378ABB104252A44A260FE
:1093240000F10C032360836A6360C36AE360002373
:109334002374204604F056FD034610B962691544AF
:109344003560184670BD0125E8E72DE9F0418EB07F
:109354000D4616461C46804600282DD0002D2FD0E1
:10936400002C31D0636A0233059304F10C00E378D6
:10937400002B2DD00121A27801AF3B46082A14BF4F
:109384000022012204F0F7FA0697CDF81C80B2B24D
:10939400ADF820200B9515440C95A3788DF8343046
:1093A400237B022B16D00023ADF8283005A804F047
:1093B400DAFA0EB0BDE8F0817846FEF767FACDE739
:1093C4007846FEF763FACBE77846FEF75FFAC9E71B
:1093D4000221D0E723692BB1236909931023ADF847
:1093E4002830E3E77846FEF751FAF5E72DE9F04136
:1093F40088B004460D46C37D002B3CD0082605FBEF
:1094040006F8637AAB4238D0257201AB324602A922
:109414002046FFF77DFF074648BB4DB994F8573007
:1094240033B9A369C3F30C03E380012384F85730F1
:10943400E37D7BB994F8563063B91DBBB4F84E1084
:10944400A27823468A1A216F0846FFF77EFF01237C
:1094540084F8563007992046FFF7F8FC216F32460E
:10946400414401981DF0F3FF02A804F0E1FC3846E2
:1094740008B0BDE8F0810C26C1E7B4F84E60A6EB55
:109484000806C1E77846FEF701FAD7E770B5054646
:109494000E4609B100230B6095F85440002104E006
:1094A400631C85F854300134E4B26B7AA34210D3C0
:1094B4002A6D0123A3401A42F5D121462846FFF71D
:1094C40095FF014628B9002EEAD033680133336092
:1094D400E6E7084670BDF0B589B085781544C37DCC
:1094E4007BB10B239D4224D816460F46044601AB9C
:1094F4002A4602A9FFF70CFF054620B1284609B009
:10950400F0BD0F23EEE707992046FFF79FFCE37DAC
:1095140043B13246394601981DF099FF02A804F080
:1095240087FCEBE72346324601993846FFF70DFFE7
:10953400F4E70925E2E7000010B5044690F84C3042
:10954400012B0FD103F0C0FA237B012B0ED00B4B60
:10955400D968012284F84820014404F1300003F062
:1095640089FA10BD7846FEF791F9EBE7A37D034A2B
:10957400D168126902FB0311EBE700BFA43D002090
:1095840030B583B0002403E02846FFF7D5FF01344B
:10959400032C16D80C4A742303FB042393F84C3091
:1095A400012BF4D100230193742505FB042501A9A3
:1095B4002846FFF76BFF0428E6D0019B002BE6D07A
:1095C400E2E703B030BD00BF3C3F002038B504469D
:1095D40090F84C30022B09D1064B1D6803F074FA45
:1095E400411904F1300003F045FA38BD7846FEF71E
:1095F4004DF9F1E7A43D002038B5044690F84C300D
:10960400022B10D10A4B5D7D5A689B6803FB05252C
:1096140003F05AFA411904F1540003F02BFA012320
:1096240084F86C3038BD7846FEF730F9EAE700BFBD
:10963400A43D002010B50446FFF7F4FB90B904F1F3
:10964400300003F0FFF994F84C30022B0ED0742252
:10965400002120461DF024FF002084F84C0002F075
:1096640011FA10BD206F09F01EFCE8E704F1540064
:1096740003F0E8F9EBE7000030B585B00D46044689
:10968400D0B1E18894F84C30022B19D094F84C30C6
:10969400022B1ED02946A06DFFF7EAFC2046FFF7F7
:1096A400C9FF164B1B6813F0040F03D0144B1B683F
:1096B400032B13DC05B030BD7846FEF7E7F8E0E78E
:1096C400637813F0020FE1D00022A08A1CF0CEFFD1
:1096D400DCE700212046FFF753FDDBE7094BD3F815
:1096E400043594F84C2002950192074A009240F206
:1096F4002E220649042005F0E1F9DBE7542E002070
:10970400502E002000100140588504004C850400B0
:1097140038B50546002406E02946742000FB0420E1
:10972400FFF7AAFF0134032C08D8054A742303FB6E
:10973400042393F84C30022BF4D1EDE738BD00BF7D
:109744003C3F002008B508460021FFF795FF08BDFF
:1097540010B58CB0044690F84C30012B0CD1012389
:109764008DF80430A36D029301A800F0B3FF2046E6
:10977400FFF760FF0CB010BD7846FEF787F8EEE700
:1097840008B5037B012B02D0FFF7E2FF08BD0121DE
:10979400FFF772FFFAE7000008B590F8553053B1AF
:1097A400013B80F85530002380F85430034B18688F
:1097B40003F09CFF08BDFFF7E3FFFBE71C3D00201F
:1097C40010B5002400E00134032C14D80A4A742391
:1097D40003FB042393F84C30012BF4D1742303FBD3
:1097E400042393F84830022BEDD1742000FB0420AD
:1097F400FFF7D2FFE7E710BD3C3F002008B5037830
:10980400192B13D01A2B08D0182B00D008BD082010
:10981400FFF77EFFFFF7D4FFF8E70379012BF5D1BB
:109824000620FFF775FFFFF7CBFFEFE70379012B66
:10983400ECD10720FFF76CFFE8E70000062976D19A
:10984400F0B585B015460278910101F4FE514778D0
:109854008478C3781B0443EA0463047943EA042349
:1098640044791C4356B241EA97012846FFF746FB68
:109874000746E0B1002E2FDBC289A98A8A422BD089
:109884002B4B1B6813F0040F3ED02A4B1B68012B93
:109894003ADD294BD3F8043502910192274A00920C
:1098A40040F28C622649022005F008F92CE0204B96
:1098B4001B6813F0040F27D01E4B1B68012B23DDFC
:1098C4001D4BD3F804351F4A009240F284621C49B0
:1098D400022005F0F3F817E0002E17DB3D6D254359
:1098E4003D65BCB13B78D3B17B7A5A1C01239340CC
:1098F400013B9D4217D0002187F854103846FFF7EA
:10990400C5FD3846FFF718FE05B0F0BDAB8AA7F8D1
:109914005C30E3E703213846FFF7AEFEF4E7784610
:10992400FDF7B4FFE0E73846FFF712FFECE77047B6
:10993400542E0020502E002000100140EC8504001D
:109944004C850400BC85040010B50446808A02F0EE
:10995400B9FB01281CD1237BE3B194F91620002A1A
:109964001ADBE27D4AB1022B18D094F90330002BA4
:1099740016DBA378B3B900200BE0E2780AB9012B17
:1099840012D1237893B9A378042B11D1002000E0DD
:10999400102010BD1020FCE70720FAE71020F8E79C
:1099A4000720F6E70720F4E70720F2E70020F0E7B6
:1099B4000720EEE738B50446C2698169808A06F05B
:1099C4005FFA054608B9284638BDE169002201F06E
:1099D4000101A08AFFF760FBF5E72DE9F0438BB0A6
:1099E40007460E4614461D461046FFF7E3FF50B9DE
:1099F40094F80380B8F1000F08D12B462246314673
:109A04003846FFF71BFF0BB0BDE8F0834046FFF775
:109A1400FBFA81460028F6D08DF80480236A079368
:109A2400A38AADF8123005AB04F10C0292E80300EE
:109A340083E80300A37D8DF82030029703962378F2
:109A44008DF81030E36A0993294601A8C847DAE77C
:109A54002DE9F04107460D4616464B1EDBB2012B9D
:109A640010D8B6F5C07F11D8012D13D00024032CD3
:109A740024D83E4A742303FB042393F84C305BB18F
:109A84000134F4E77846FDF701FFEAE77846FDF78D
:109A9400FDFEE9E70124EAE74FF0740808FB042817
:109AA4001CB9334BC8F870300AE0304609F0F7F9B6
:109AB4002E4B742202FB0434206701E04FF00008AF
:109AC400B8F1000F32D0D8F87030002B4BD03B46A1
:109AD400424607F1300ED3F800C05C689868D96834
:109AE400C2F800C054609060D160103310327345E6
:109AF400F1D10023C8F85030A8F84E60012D18D0D9
:109B04006FF00103C8F82830002388F86C30194B33
:109B1400C8F85C30C8F86480174BC8F83830C8F807
:109B24004080012001F0AEFF88F84C504046BDE86B
:109B3400F081124B1B7D88F85530002388F856308D
:109B440088F8573088F85430BA6AC8F85820A8F80A
:109B54005C306FF00103C8F82830094BC8F838307E
:109B6400C8F84080DDE79846E0E700BF3C3F0020AE
:109B7400BC3D00205BA2020049970200A43D0020E6
:109B8400EF9C0200F0B5C7B086781644C37D2BB1B4
:109B94004FF48073B3427DD3002303E04FF4C073CA
:109BA400F8E70133032B18D83C4D742404FB035409
:109BB40094F84C40012CF4D1742404FB0354A58A7A
:109BC400848AA542EDD1354D742404FB0354E58900
:109BD400C489A542E5D1082455E014460F4632460F
:109BE4000121FFF735FF0546002855D022463946A6
:109BF400006F1DF02CFC0023459345A92846FFF770
:109C040045FC044608B1042840D1459B7BB9244B4C
:109C14001B6813F0040F35D0224B1B68032B31DD76
:109C2400B5F84E70802F28BF8027002313E0284604
:109C3400FFF782FCEBE72A6FD25C1B490C68100922
:109C44005900265C04A800F8136002F00F020131E9
:109C5400A25C42540133BB42EDD304AA002302F8B0
:109C6400173003F1804303F58833D3F804350292A7
:109C74000E4A01920E4A009240F271520D4904209C
:109C840004F01CFF0024204647B0F0BD2846FFF72F
:109C9400D1FCF8E70924F6E70424F4E73C3F00206C
:109CA400542E0020502E0020582E00203086040010
:109CB400187C04004C85040070B504460D46164615
:109CC400FFF742FE034638B923783BB132462946B2
:109CD4002046FFF757FF0346184670BD3246294613
:109CE4002046FFF7F8FB0346F6E710B50C4691F85B
:109CF4004C30012B09D108F01DFA50B1002008F0B6
:109D040071FA022384F8483010BD7846FDF7BEFD91
:109D1400F1E72046FFF740FDF6E7000000B585B007
:109D240000238DF80F3098B10346084602330B60C8
:109D34000DF10F0103F01BFE9DF80F3043B10D4BE5
:109D44001B6813F0040F03D00B4B1B68032B04DCBC
:109D54009DF80F0005B05DF804FB084BD3F80435FB
:109D6400074A009240F237420649042004F0A6FE56
:109D7400EEE700BF542E0020502E002000100140BA
:109D8400408604004C8504002DE9F0438FB004465E
:109D94000E4615461F46D0F81890037823B1C188A3
:109DA4004846FFF747F8A06104F10C00E378002B64
:109DB40037D00121A2780DF128084346082A14BFA0
:109DC4000022012203F0D7FDC4F81890CDF80880D2
:109DD4000396A378EA1A92B2ADF81020324408929E
:109DE40007978DF824300023ADF81830E37863B377
:109DF400237B022B17D02546002345F8243F2A460F
:109E04002179206A10F0F6FB606A90B101A9FFF78E
:109E140085FF00283ED12A462179206A10F0EAFB0A
:109E2400F2E70221C6E71023ADF818302369059341
:109E3400E1E7237B022B31D104F10C01E08910F01E
:109E4400B1FC0028D4D1052025E0237B012B01D0CF
:109E5400052020E0E389ADF80030A38AADF8023094
:109E6400002500E00135012D12D82146002341F8D8
:109E7400243F0EAB03EB450333F8380C10F0D7FB4B
:109E840001A9606AFFF74AFF0028EBD0002002E036
:109E9400052000E000200FB0BDE8F0830520FAE7BC
:109EA40070B5F0B00D4614461E4610AB0A46014686
:109EB4002046FFF769FF50B1224B1B6813F0040FD3
:109EC40003D0214B1B68052B2FDC70B070BD2046DE
:109ED400FFF770FD0028F8D103AB01228DF80C20A8
:109EE400A28AADF80E20002204928DF8142010AA44
:109EF4000692A278AD1AADF81C5008AA93E80300A4
:109F040082E803000AAB04F10C0292E8030083E840
:109F14000300A37D8DF83830236A0C93636A0D9394
:109F24000F9605A800F0D6FBCFE7084BD3F804350D
:109F3400074A009240F20E720649062004F0BEFD64
:109F4400C3E700BF542E0020502E00200010014013
:109F5400648604004C85040010B5547814F0010F95
:109F640003D0D47D14B1FFF738FD10BDFFF798FF7F
:109F7400FBE7F8B505460E4614461F46537813F022
:109F8400020F06D13B462246711E681CFFF7E4FF10
:109F9400F8BD0123C9B21CF0B9FAF3E738B5044699
:109FA4000D46CB695B780371CB691B7883F00103A1
:109FB400C370CB6943628B8A0B2B07D8CB7A002BF7
:109FC4003DD10B7B012B02D0002300E00123237041
:109FD400002B39D0287B022833D0FEF7E1FFA07094
:109FE400AB8A03440B331B4880FB03235B10013B08
:109FF4006372002323720023E37504F10C0395E8D4
:10A00400030083E80300AB6923622B89A382AB7A44
:10A01400A3752B6AA362DF23E362284610F03AFD9E
:10A0240020B12B78012B12D0FF23E36220461CF0D1
:10A03400F5FA18B1E36A43F02003E36238BD012363
:10A04400C5E7054B987DC8E70423A370D3E7202315
:10A05400EBE700BFABAAAA2AA43D002010B54FF439
:10A06400E872002115481DF01BFA05F0BBFF00241F
:10A07400134B1C608022214612481DF011FA124B2A
:10A08400124A1A60124A5A604CF250329A601149CC
:10A09400D9601A6104221A759C7508225A750E48F3
:10A0A40003F004FB0D4B18600D4B1C600D4806F0CB
:10A0B4009BF80D4802F0D4F910BD00BF3C3F0020CE
:10A0C400A03D0020203D0020A43D00208096980063
:10A0D400F049020020A107004DA202001C3D00200F
:10A0E400F83C0020D5900200F82D002008B505F0BA
:10A0F400BFFE08BD98B110B58CB00446036983B1A6
:10A10400C36983B1836983B101466846FFF746FF9B
:10A11400A28A21696846FFF7CFFD0CB010BD0E205E
:10A1240070470E20F9E70E20F7E70E20F5E790B10F
:10A1340010B58CB0044642687AB182697AB10A4695
:10A1440001466846FEF731FFA26861686846FFF77A
:10A15400B3FD0CB010BD0E2070470E20F9E70E20A1
:10A16400F7E70000037B012B01D00020704710B5F6
:10A174008CB000230193CDF80730C288C2F3861453
:10A1840092008DF801200A0E8DF802200A0C8DF839
:10A1940003200A0A8DF804208DF805104278022A5B
:10A1A40014BF0022012244EAC2148DF800400622A2
:10A1B400059201228DF81C20828AADF81E20089396
:10A1C4008DF80C30CDF810D0026A09928DF8183051
:10A1D400C389ADF81A30C36A0B93837D43B98DF8F4
:10A1E40028306FF0010103A8FFF7A1FF0CB010BDE8
:10A1F400024B5B7D8DF82830F3E700BFA43D0020BF
:10A2040090F84C30022B00D0704790F86C30022B41
:10A21400FAD110B50446016DFFF7A4FF10B900236D
:10A2240084F86C3010BD000010B5002406E0054B26
:10A23400742000FB0430FFF7E3FF0134032CF6D94C
:10A2440010BD00BF3C3F002008B5FFF799F9FFF7A8
:10A25400EBFF012008BD10B50C4691F84C30022BE1
:10A2640006D1022384F86C302046FFF7C9FF10BDE5
:10A274007846FDF70BFBF4E72DE9F0438FB0064673
:10A28400FEF752FFD8B93046FEF7AEFF074690BB43
:10A294003046FEF767FE044658B13046FEF730FFFD
:10A2A400804689462046FEF72BFF494508BF4045B6
:10A2B40049D3002C4CD020460FB0BDE8F08307F002
:10A2C40039FF40B14C4B1B6813F0040F03D04B4BC8
:10A2D4001B68012B01DC0024EDE7494BD3F804355E
:10A2E400F2880192474A00924FF45772464902207D
:10A2F40004F0E4FBEFE702AC35460FCD0FC40FCDFD
:10A304000FC495E80F0084E80F00BB788DF809307E
:10A314007BB19DF8083073B19DF811104B1C0121DD
:10A324009940013902A8FFF71DFFBB7813F0010F14
:10A3340005D10024BFE77846FDF7A8FAECE73046DC
:10A34400FFF738FBF5E705212046FFF795F93C4672
:10A3540007F0F0FE50BB757A6B1CF27D52B30825F2
:10A3640005FB03F542B34FF48073AB4227D3F18866
:10A37400B069FEF75FFDF2690146B08A05F0DCFDC5
:10A38400002898D12A4602213046FFF761FB044693
:10A39400002890D107F0CEFE48BB00213046FFF7DD
:10A3A400E1FE02210020FEF763FE84E70520FFF7AB
:10A3B400AFF9D0E70C25D3E74FF4C073D5E70E4BC4
:10A3C4001B6813F0040F03D00C4B1B68002B01DC3B
:10A3D4003C4670E70A4BD3F8043501950B4A0092CA
:10A3E40040F292320849012004F068FBF0E7784615
:10A3F400FDF74CFAD1E700BF542E0020502E002068
:10A40400001001407C8504004C850400A8850400EC
:10A414002DE9F04782B007460E4615469846104689
:10A42400FFF72AFF00284CD00446534B1B6813F057
:10A43400040F03D0514B1B68032B45DC07F07AFE55
:10A4440000284FD0226D297A01238B401A4238D13B
:10A4540013432365A6F1040A2B7AEA7D002A4FD020
:10A464004FF0080C0CFB03FC617A8B424BD0002AA2
:10A474004ED0082353454DD1A269AB699A420BD201
:10A4840004F10C0E05F10C09B9E80F00AEE80F0059
:10A4940099E803008EE80300206F5246391D60449A
:10A4A4001CF0D5FF6B7813F0020F38D1266D23789A
:10A4B400002B3BD0637A5A1C01239340013B9E42FC
:10A4C40038D002B0BDE8F0872D4BD3F804352A7A92
:10A4D40001922C4A00924FF471722B49042004F02B
:10A4E400EDFAABE72046FFF771F8237B012BA9D1E6
:10A4F40094F86C30002BA5D12046FFF77DF8A1E736
:10A504004FF00C0CAEE70CEB0A03A4F84E30B3E7A3
:10A514000C23AFE704212046FFF7AEF8D1E701236F
:10A524002A46F1B238461BF0F1FFBFE77846FDF743
:10A53400ADF9BFE707F0FEFD90B16B7813F0020FA1
:10A5440013D143462246B4F84E10206FFFF704FDA2
:10A5540001212046FEF714FE2046FFF76BF8B0E712
:10A56400216D2046FFF7FEFDE7E70122E988A88A6E
:10A574001CF07CF8E5E700BF542E0020502E00208C
:10A5840000100140548604004C8504002DE9F0417C
:10A5940090B000284FD08046002A4ED01F46144663
:10A5A4000E4604AB00933B46FEF744FE054618B145
:10A5B400284610B0BDE8F08104A8FFF7C5F90546A8
:10A5C4000028F5D1204607F071FE2269E168208950
:10A5D40005F0B2FC0028EBD104A81CF01FF828B148
:10A5E4009DF8113043F002038DF8113000230293DB
:10A5F400039302A9608810F0D5F838B19DF81130A2
:10A6040043F001038DF81130039B08939DF811303A
:10A61400002BCDD09DF8103033B13B4604AA31460F
:10A624004046FFF7F5FEC3E73B4604AA31464046E1
:10A63400FFF79FFCBCE70E25BAE70E25B8E700003C
:10A6440018B3F8B50546174B1F68032F1FD80E46DD
:10A654000024B4420ED205EBC4035B68CBB115F8F9
:10A66400340010F0800F16D1B8B1FEF7CDFCB0B9AC
:10A674000134EEE70C4B43F8375003EBC7035E603D
:10A684000137084A1760002002E00E2070470420BA
:10A69400F8BD0E20FCE70B20FAE70F20F8E70F20A7
:10A6A400F6E700BFF83C0020FC3C0020084B19688A
:10A6B40061B110B504E0064804F06BF9214624B1F9
:10A6C4000C680B79002BF9D0F5E710BD704700BF7B
:10A6D4001041002038B5054630B1104B1C68ACB1B0
:10A6E4000F4B01221A7004E07846FDF7CFF8F4E727
:10A6F40024683CB12379002BFAD154F8043C284651
:10A704009847F5E7064B1B78022B00D038BDFFF7BE
:10A71400CDFF034B00221A70F8E700BF1041002060
:10A724000C41002010B5044630B100232372211DD2
:10A73400034804F003F910BD7846FDF7A7F8F4E7E1
:10A744001041002010B5044658B10A4B1B78013B58
:10A75400DBB2012B09D8074B02221A7001232372A2
:10A7640010BD7846FDF792F8EFE7211D024804F08A
:10A7740010F9F5E70C410020104100200A88836895
:10A784009B5A07339BB223F0030313449BB2028802
:10A79400043A934200D900230B80704710B582B06D
:10A7A40004468368C91AADF806100DF10601FFF7D7
:10A7B400E5FFBDF80630A068184402B010BD00885B
:10A7C400043880B2704743888268D018D15201237C
:10A7D400837070478268002393704380838070473E
:10A7E400073189B221F0030189B2428883889A42F1
:10A7F40004D29B1A99421EDC0020704710B59A427D
:10A804000FD90488A41AA14217D98B4217D3032C59
:10A8140003D98368134404229A70002343801846A2
:10A8240004E0826813449B780BB1042010BDFFF749
:10A83400D1FF0020FAE7042070470020F6E7042047
:10A84400F4E738B504460D468368828813448B4286
:10A8540002D07846FDF71AF80023AB70211D20467C
:10A86400FFF78CFFA288A36813449B78042B00D0C5
:10A8740038BD0023A380FBE710B50C4683684288EB
:10A8840013448B4202D07846FDF700F80023A370EE
:10A8940010BD70B5064615460C46002944D0002E5E
:10A8A40046D0B4F1005F08D94FF08053D3F80C318F
:10A8B40003F50023B4EB832F0ED3B4F5000F08D9AE
:10A8C4004FF08053D3F80C3103F50053B4EB832FCE
:10A8D40002D37846FCF7DAFF6B1E2344B3F1005F22
:10A8E40008D94FF08052D2F80C2102F50022B3EBC4
:10A8F400822F0ED3B3F5000F08D94FF08052D2F84F
:10A904000C2102F50052B3EB822F02D37846FCF7F8
:10A91400BDFF042D10D9358000237380B380B4604B
:10A92400043D2580A37070BD7846FCF7AFFFB6E701
:10A934007846FCF7ABFFB4E77846FCF7A7FFEAE7F5
:10A9440038B50446A0B16288A36813449B78012BF0
:10A9540012D0EFF3108572B6A388A16819448B78DE
:10A96400032B0DD02046FFF735FF05B962B638BD7D
:10A974007846FCF78BFFE6E77846FCF787FFE8E7C5
:10A984002046FFF70BFFA368C31A6380002383707C
:10A99400EBE72DE9F0410E4615460446D0B1EEB181
:10A9A4006288A36813449B78012B1BD025B32046EF
:10A9B400FFF705FFA84221D3EFF3108872B62946AA
:10A9C4002046FFF70DFF074680B1B8F1000F16D1FE
:10A9D40062B614E07846FCF759FFE0E77846FCF7E6
:10A9E40055FFDDE77846FCF751FFDFE729462046AF
:10A9F400FFF7E9FE3060E8E7092700E00927384659
:10AA0400BDE8F081F8B50C4616460546E0B1FCB148
:10AA1400A378012B20D12388B34221D326B3EFF3AB
:10AA2400108772B626800223A370E9182846FFF720
:10AA3400A5FE6B88AA88934203D0AA681344002217
:10AA44009A7007B962B6F8BD7846FCF71FFFDEE7D7
:10AA54007846FCF71BFFDBE77846FCF717FFDAE7DD
:10AA64007846FCF713FFD9E77846FCF70FFFD6E7E3
:10AA740070B50D46044690B1ADB1EFF3108672B6D1
:10AA8400A288A36813449A78042A10D09A78022AD8
:10AA940015D0032A18D0052006B962B670BD7846D1
:10AAA400FCF7F4FEE8E77846FCF7F0FEE5E7211D45
:10AAB4002046FFF763FEA288A3681344E6E7032257
:10AAC4009A702B600020E7E77846FCF7DFFE002051
:10AAD400E2E738B5044680B1EFF3108572B6A0887A
:10AAE400A16801448B78042B0BD08878022814BF0A
:10AAF4000020012005B962B638BD7846FCF7C6FED1
:10AB0400EAE72046FFF74AFE0146EEE738B5044679
:10AB140078B1EFF3108572B6A088A16801448878F3
:10AB2400C31EDBB2012B08D82046FFF737FE0146CF
:10AB3400F5E77846FCF7AAFEEBE7022814BF0020ED
:10AB4400012005B962B638BD70B50C46064678B129
:10AB540094B1EFF3108572B6A378012B10D0032BB8
:10AB640013D121463046FFF76CFE05B962B670BDBD
:10AB74007846FCF78BFEEBE77846FCF787FEE8E7C0
:10AB840021463046FFF778FEEFE77846FCF77EFE75
:10AB9400EBE710B5EFF3108472B68388816819442B
:10ABA4008B78042B06D08878B0FA80F0400904B979
:10ABB40062B610BDFFF7F2FD0146F4E708B5064B97
:10ABC400986800221A605A609A60DA601A615A61C1
:10ABD4009A6104F05DFF08BD1441002000B585B002
:10ABE4000A4BDB6802228DF8002001934FF4805356
:10ABF4000293074A6946012001F07AF918B9012045
:10AC040005B05DF804FB0020FAE700BF1441002002
:10AC14003041002000B585B00A4B1B6802228DF834
:10AC2400002001934FF480530293074A69460120A0
:10AC340001F05EF918B9012005B05DF804FB0020AD
:10AC4400FAE700BF3441002030410020164BDA6897
:10AC5400137951795B1A03F57F2303F6FF7302EB33
:10AC640003339A4205D002F580520F4BDA60032079
:10AC7400704700B585B00D4B1B6801208DF80000AE
:10AC840001930B4B0393042302930A4A694601F090
:10AC94002FF918B1002005B05DF804FB024B012226
:10ACA4001A760220F7E700BF144100203441002047
:10ACB400384100203041002000B585B00C4BDA68E3
:10ACC4000C4B1B68043301208DF8000001920393A0
:10ACD40040F6FC730293084A694601F009F918B971
:10ACE4000120034B187600E0002005B05DF804FB5A
:10ACF40014410020344100203041002000B585B0CB
:10AD04000A4B1B6801208DF800000193084B039344
:10AD140004230293074A694601F0EAF818B90120AE
:10AD240005B05DF804FB0020FAE700BF34410020C1
:10AD3400204100203041002010B584B0104BDA6867
:10AD44001478104B1B68043301208DF80000019324
:10AD5400039202940C4A694601F0CAF868B9094B97
:10AD64001B6804F0FC041C440434054B5C61D96882
:10AD74000A780A441A61012000E0002004B010BDE2
:10AD840014410020344100203041002008B5002344
:10AD9400092B09D8064A52F82320824201D00133F4
:10ADA400F6E7044A536002E07846FCF76FFD08BDFD
:10ADB400908604001441002010B5214BDB6853B188
:10ADC4001F4B1B7E5BB91E4B5B68092B26D978464B
:10ADD400FCF75CFD22E07846FCF758FDF0E7784686
:10ADE400FCF754FDEFE7164A536801335360092B0F
:10ADF40021D97846FCF74AFD1DE0114B00225A6028
:10AE040019E00F4B1B7E1BB10D4B02221A7012E08E
:10AE1400FFF7D4FE0FE00A4B1B7E83B9084B5A6838
:10AE2400084B53F82230984704460228E9D00328F7
:10AE3400E3D00128D7D0012CEDD0032CEBD010BDEA
:10AE44001441002090860400104B1B681B685A1E96
:10AE540012F1030F18D8C3F30B020AB10020704794
:10AE640010B50B4AD3600023137653760124147073
:10AE740093600848FFF78AFF0749204601F026F847
:10AE8400FFF79AFF204610BD002070473441002090
:10AE940014410020E1AB0200A1AE020008B50B781A
:10AEA400032B06D00B4B1B78012B06D0022B0BD0A7
:10AEB40008BD084B00221A76F4E7064B1B7E002BD4
:10AEC400F6D1FFF779FFF3E70B78032BF0D1FFF707
:10AED40075FEEDE71441002000B585B0174BDB6823
:10AEE40018784FF6FF7203F58051184405F032F9D3
:10AEF400F0B10246114BD9680B780B44984219D033
:10AF04000E4B5B7E93B10E4B01208DF80000019235
:10AF14000393042302930B4A694600F0E9FF58B9EE
:10AF24000120064B187605B05DF804FB064BEBE7F1
:10AF34000120F8E70120F6E70020F4E7144100209F
:10AF4400F488040030410020F088040008B5104B58
:10AF5400DB681878002203F58051184405F0FAF8EC
:10AF640008B1012008BD0A4BDA68137951795B1ADC
:10AF740003F57F2303F6FF7302EB03339A4205D0F4
:10AF840002F58052024BDA600320EBE70220E9E786
:10AF940014410020F0B585B0514BDD686A792B79F6
:10AFA400591E8A4214D005F580510C780C444D4941
:10AFB4000968081D0E7906449B1A05EB033563885E
:10AFC400013B9BB247F6FE62934260D927461BE0E1
:10AFD4000120434B58767EE07846FCF757FC16E098
:10AFE40027F47F6323F00F0303F580531A78134487
:10AFF4009D4247D99C4247D25A88013A92B21F4691
:10B0040047F6FE618A4210D93B88002BE4D03B8886
:10B0140007EB830323F47F6222F00F029342DFD015
:10B024007A88B2F5FE4FE3D1DAE71C462FE0784682
:10B03400FCF72CFC16E027F47F6323F00F0303F5E1
:10B0440080531A7813449D4220D99C423BD25A889B
:10B05400013A92B21F4647F6FE618A4210D93B88F4
:10B06400002BE4D03B8807EB830323F47F6222F0B8
:10B074000F029342DFD07A88B2F5FE4FE3D1DAE7CC
:10B084001C4604E0002402E0002400E00024E4B1B3
:10B09400144B1968628801F58051304605F05AF85E
:10B0A400064690B101200E4B18768DF800000194ED
:10B0B4000D4B0393042302930C4A694600F018FFD6
:10B0C40058B92746CBE70024E1E7B4FA84F46409CD
:10B0D400034B5C76012005B0F0BD0020FBE700BF08
:10B0E4001441002034410020EC8804003041002049
:10B0F4002DE9F04186B0644B1B6923B1624B5B6957
:10B104002BB1002748E07846FCF7C0FBF6E7784609
:10B11400FCF7BCFBF5E77846FCF7B8FB17E028F42E
:10B124007F6323F00F0303F580531A7813449E4280
:10B134001FD99C4221D25A88013A92B2984647F6C6
:10B14400FE618A4213D9B8F80030002BE3D0B8F876
:10B15400003008EB830323F47F6222F00F02934252
:10B16400DDD0B8F80220B2F5FE4FE0D1D7E71C4697
:10B1740000E000241CB1009438E00024FAE7002326
:10B184000093019B002B5AD10127002C76D06288B2
:10B1940047F6FF739A4271D0002F73D13A4B5A6924
:10B1A40022F47F6525F00F05AD1A05F580551C695D
:10B1B400DE68337972799B1A06EB03360023019318
:10B1C4006388013B9BB247F6FE629342D3D9A04603
:10B1D400B9E77846FCF75AFB23E024F47F6424F0B3
:10B1E4000F0404F58054237823441C46A642C8D98E
:10B1F4002388019A02EB83029542C2D9009B6340E3
:10B2040023F47F6323F00F03002BBAD16388013B3F
:10B214009BB247F6FE618B42B3D801922388002B80
:10B22400D7D0238804EB830323F47F6222F00F0238
:10B234009342D2D06288B2F5FE4FD6D1CDE7124AFE
:10B24400526901208DF808000392009A0592049334
:10B254000E4A02A900F04CFE70B90B49019B23F081
:10B2640003024B6913444B6114B1074B1C618CE717
:10B274007846FCF70BFBF8E7002000E0012006B05D
:10B28400BDE8F0810120FAE714410020304100209C
:10B2940008B54FF010235B69B3F1FF3F09D04FF0BD
:10B2A40010235B692BB14FF010235B69A3F5805326
:10B2B40005E04FF080525169136903FB01F3A3F5D4
:10B2C4008053024A1360FFF7BFFD08BD34410020DC
:10B2D40010B50446B0B1104B1B78BBB10E4BD96806
:10B2E400E3685879A3EB0032914211D31A79121A08
:10B2F40002F57F2202F6FF7203EB0233994209D86A
:10B30400012004E07846FCF7C1FAE4E7002010BD10
:10B314000020FCE70020FAE714410020024B1878D3
:10B32400003018BF012070471441002010B50446B6
:10B334000E4B1B7893B92378032B13D10B4B9C60D2
:10B34400E268DA6000225A601A76012018705A7690
:10B35400074900F0BBFDFFF72FFD10BD7846FCF751
:10B3640095FAE8E77846FCF791FAE7E714410020FC
:10B37400A1AE0200014B1868704700BF34410020A1
:10B3840010B5044680B163681BB123680BB1A36890
:10B3940013B97846FCF77AFAA3685A1E134207D108
:10B3A4000023E360236110BD7846FCF76FFAEAE7F7
:10B3B4007846FCF76BFAF3E770B5F0B1044683689E
:10B3C400EBB1EFF3108572B60369C068834210D005
:10B3D400084621686268A668013E334003FB0211F7
:10B3E40008B11CF034F82369013323614DB962B606
:10B3F40008E005B962B6052504E00E2502E009253A
:10B4040000E00025284670BD0246C0F30B0048BB8F
:10B4140051B310B401F6FF710C0B144B0221C3F8A5
:10B424000415124BD3F80034002BFAD0014602E085
:10B4340002F580520131A14208D20C4BC3F8082511
:10B444000A4BD3F80034002BFAD0F1E7074B002263
:10B45400C3F80425054BD3F80034002BFAD05DF86B
:10B46400044B7047102070470920704700E00140EA
:10B4740010F0030F2FD111F0030F2FD182B312F06C
:10B48400030F2FD110B49208174B0124C3F80445BD
:10B49400154BD3F80034002BFAD002E00430043109
:10B4A4002246541E52B10B68B3F1FF3FF6D003603D
:10B4B4000D4BD3F80034002BFAD0EFE70A4B0021F0
:10B4C400C3F80415084BD3F80034002BFAD0104607
:10B4D4005DF8044B70471022104670471022FBE7BA
:10B4E4000922F9E70922F7E700E001404388012B2C
:10B4F40005D0022B01D104300860012070470430CC
:10B504004860FAE708B508220221084804F031F936
:10B5140038B1074A91684160127B027204F062F903
:10B5240008BD044804F08CFAFAE700BF4441002047
:10B5340090410020142E00200E4B1B78CBB910B57F
:10B544000D4B5C6804F50054B4F1807F00D910BD44
:10B5540004220121094804F00CF930B14460054A81
:10B564000121117004F03EF9F1E7054804F068FA8E
:10B57400EDE77047A44100209041002044410020A1
:10B58400042E002010B5044608B1A04710BD78462B
:10B59400FCF77CF9F9E7000008B501210C4804F038
:10B5A40049F920B902210A4804F044F928B10948AC
:10B5B40004F046FAFFF7C0FF08BD074A00231360F2
:10B5C40053609360D3601361044A1370F2E700BFC1
:10B5D40044410020342E0020904100206841002086
:10B5E40000B58DB00B4B1B7B012B0ED0094A926822
:10B5F40004928DF80830039002238DF8043001A8DA
:10B60400FFF768F80DB05DF804FB024A9268013A4E
:10B614000492EEE79041002010B58CB00C4682B93C
:10B624004B88012B20D1134B1B7833B16268124B2A
:10B634005A60104B00221A7016E07846FCF726F97F
:10B64400F4E7032A12D12C22002101A81BF028FFC1
:10B6540011238DF804300394084BDA6805921B69B2
:10B66400069301A8FFF736F80CB010BD7846FCF736
:10B674000DF9E8E7A4410020904100204441002056
:10B6840000B583B001F09AFF0021009101916B464F
:10B69400134A144803F062FF009B63B1019A52B14C
:10B6A4001868114988601879087393420BD950B906
:10B6B40000220A600AE00C4B00221A609A601A7396
:10B6C400FFF720FF02E01268074B1A60064B1A6866
:10B6D4005A60FFF731FF01F0B5FF03B05DF804FBDA
:10B6E400F1B40200444100209041002008B504F068
:10B6F400FBF9A0F5805008BD00B587B00023009386
:10B7040001930293039304930593FFF7EFFF0090D3
:10B7140001230193064B03936946064804F041F95B
:10B7240010B907B05DF804FB034804F089F9F8E7A1
:10B734001DB6020044410020242E002010B50B4BFE
:10B7440000241C605C609C60DC601C6101F0BCF93E
:10B75400074B5860074A9A60074ADA601C615C61CB
:10B76400064B1C70FFF7C8FF10BD00BF90410020BE
:10B774006C410020B1B8020000879303A54100206A
:10B7840008B5084B1B7803B108BD0748074B036095
:10B7940000F066FE064801F02FF9024B01221A70F0
:10B7A400F2E700BF4041002084410020D9B90200E3
:10B7B4006C41002010B501F001FF164B1B7B0BBB45
:10B7C400144B9B7B1BBB134B1A8A41F282639A4234
:10B7D40004D8114B1B782BB1012300E001231BB9C2
:10B7E400082410E00023FAE70A4B01221A7300240C
:10B7F4001C829A6801329A60FFF784FE2046FFF7A4
:10B80400EFFE00E0082401F01DFF204610BD0824CF
:10B81400F9E700BF90410020A541002010B501F0D8
:10B82400CDFE204B5B7B9BB11E4B9B7BF3B91D4B29
:10B834001A8A41F282639A4204D81B4B1B782BB1BB
:10B84400012300E001239BB1012302E00023FAE776
:10B8540000231C460BB3134B00225A731B7B4BB1C2
:10B86400012B0ED07846FCF711F816E00023F0E720
:10B874000023EEE7FFF79EFF78B17846FCF706F861
:10B884000BE0084B00201860586018731882FFF70B
:10B89400A7FEFFF737FEFFF74FFE01F0D3FE204669
:10B8A40010BD00BF90410020A541002008B5214BE8
:10B8B4001B7B7BB1012B20D07846FBF7E7FF1D4AA9
:10B8C400138A013313821B4B5B8A13B1013B194A60
:10B8D400538208BD174B1A8A41F282639A4204D8F4
:10B8E400154B1B783BB1012300E00123002BE6D06C
:10B8F400FFF794FFE7E70023F8E70E4B1B8A41F2BA
:10B904008262934204D80C4A127872B1012200E098
:10B914000122002AD3D042F2B012934207D9054B38
:10B9240001225A73FFF77AFFCDE70022F1E7FFF710
:10B9340075FFC4E790410020A541002010B5244BB9
:10B944001B7B002B35D10446214B5B8A2BBB1AB9D8
:10B954001F4B9B688B4205D3FAB11D4B9B68013387
:10B964008B421AD21A4B9B682A338B4223D3184B2F
:10B974009B7B03BB164B996000221A605A601A82A3
:10B9840042F6065159825A731A73FFF7BBFDFFF74B
:10B99400D3FD2046FFF724FE0DE062B10C4B9B68FB
:10B9A40001338B4207D10A4B01225A73FFF736FF4A
:10B9B40001E0012B00D010BD002AFCD1044B9B6890
:10B9C4008B42F8D1024B01225A73FFF727FFF2E7AB
:10B9D4009041002010B50378042B02D0162B11D00F
:10B9E40010BD42681278002AF8D08468027E437E33
:10B9F400012A14BF00220122416904F11000FFF75B
:10BA04009DFFEDE7037A427AC1680020FFF796FFB5
:10BA1400E6E7000010B5184B1A685B689A4226D214
:10BA24000446154B1B7B012B14D0144B9A4213D2A2
:10BA3400114B1A685B68403B9A4215D2EFF31081B0
:10BA440072B60D4A1368581C1060236001B962B6BF
:10BA5400002010BD0A4BE9E7074B01225A73FFF798
:10BA6400DDFE0028EAD1E3E7FFF766FDE6E7FFF72E
:10BA740063FD0F20EDE700BF90410020FFFF7F0032
:10BA840000E0FF0008B538B10D4B01229A730D4A4E
:10BA940013680133136008BD0A4B1B685BB1094A84
:10BAA4001368013B1360002BF5D1054B00229A73F8
:10BAB400FFF7B4FEEFE77846FBF7E8FEEFE700BFD9
:10BAC400904100203C41002000B58DB0ADF8080045
